{
  "contractName": "YouWhoDapp",
  "abi": [
    {
      "inputs": [
        {
          "internalType": "address",
          "name": "_uhu",
          "type": "address"
        },
        {
          "internalType": "contract YouWho",
          "name": "uhu_",
          "type": "address"
        },
        {
          "internalType": "address",
          "name": "_1",
          "type": "address"
        }
      ],
      "stateMutability": "nonpayable",
      "type": "constructor"
    },
    {
      "anonymous": false,
      "inputs": [
        {
          "indexed": true,
          "internalType": "address",
          "name": "user",
          "type": "address"
        },
        {
          "indexed": false,
          "internalType": "uint256",
          "name": "uhuAmount",
          "type": "uint256"
        },
        {
          "indexed": false,
          "internalType": "uint256",
          "name": "timeStart",
          "type": "uint256"
        }
      ],
      "name": "DepositStake",
      "type": "event"
    },
    {
      "anonymous": false,
      "inputs": [
        {
          "indexed": true,
          "internalType": "address",
          "name": "user",
          "type": "address"
        },
        {
          "indexed": true,
          "internalType": "address",
          "name": "provider",
          "type": "address"
        },
        {
          "indexed": false,
          "internalType": "bytes32",
          "name": "booking",
          "type": "bytes32"
        },
        {
          "indexed": false,
          "internalType": "uint256",
          "name": "amount",
          "type": "uint256"
        },
        {
          "indexed": false,
          "internalType": "bytes32",
          "name": "ticker",
          "type": "bytes32"
        },
        {
          "indexed": false,
          "internalType": "uint256",
          "name": "amountUhu",
          "type": "uint256"
        },
        {
          "indexed": false,
          "internalType": "uint256",
          "name": "rating",
          "type": "uint256"
        },
        {
          "indexed": false,
          "internalType": "uint256",
          "name": "fee",
          "type": "uint256"
        }
      ],
      "name": "PaymentDone",
      "type": "event"
    },
    {
      "anonymous": false,
      "inputs": [
        {
          "indexed": true,
          "internalType": "address",
          "name": "provider",
          "type": "address"
        },
        {
          "indexed": false,
          "internalType": "bytes32",
          "name": "booking",
          "type": "bytes32"
        },
        {
          "indexed": false,
          "internalType": "uint256",
          "name": "rating",
          "type": "uint256"
        },
        {
          "indexed": false,
          "internalType": "uint256",
          "name": "amountUhu",
          "type": "uint256"
        }
      ],
      "name": "ReviewedUser",
      "type": "event"
    },
    {
      "anonymous": false,
      "inputs": [
        {
          "indexed": true,
          "internalType": "bytes32",
          "name": "role",
          "type": "bytes32"
        },
        {
          "indexed": true,
          "internalType": "bytes32",
          "name": "previousAdminRole",
          "type": "bytes32"
        },
        {
          "indexed": true,
          "internalType": "bytes32",
          "name": "newAdminRole",
          "type": "bytes32"
        }
      ],
      "name": "RoleAdminChanged",
      "type": "event"
    },
    {
      "anonymous": false,
      "inputs": [
        {
          "indexed": true,
          "internalType": "bytes32",
          "name": "role",
          "type": "bytes32"
        },
        {
          "indexed": true,
          "internalType": "address",
          "name": "account",
          "type": "address"
        },
        {
          "indexed": true,
          "internalType": "address",
          "name": "sender",
          "type": "address"
        }
      ],
      "name": "RoleGranted",
      "type": "event"
    },
    {
      "anonymous": false,
      "inputs": [
        {
          "indexed": true,
          "internalType": "bytes32",
          "name": "role",
          "type": "bytes32"
        },
        {
          "indexed": true,
          "internalType": "address",
          "name": "account",
          "type": "address"
        },
        {
          "indexed": true,
          "internalType": "address",
          "name": "sender",
          "type": "address"
        }
      ],
      "name": "RoleRevoked",
      "type": "event"
    },
    {
      "anonymous": false,
      "inputs": [
        {
          "indexed": true,
          "internalType": "address",
          "name": "user",
          "type": "address"
        },
        {
          "indexed": false,
          "internalType": "uint256",
          "name": "uhuAmount",
          "type": "uint256"
        },
        {
          "indexed": false,
          "internalType": "uint256",
          "name": "depositTime",
          "type": "uint256"
        },
        {
          "indexed": false,
          "internalType": "uint256",
          "name": "interest",
          "type": "uint256"
        }
      ],
      "name": "WithdrawStake",
      "type": "event"
    },
    {
      "stateMutability": "payable",
      "type": "fallback"
    },
    {
      "inputs": [],
      "name": "ADMIN_ROLE",
      "outputs": [
        {
          "internalType": "bytes32",
          "name": "",
          "type": "bytes32"
        }
      ],
      "stateMutability": "view",
      "type": "function"
    },
    {
      "inputs": [],
      "name": "DEFAULT_ADMIN_ROLE",
      "outputs": [
        {
          "internalType": "bytes32",
          "name": "",
          "type": "bytes32"
        }
      ],
      "stateMutability": "view",
      "type": "function"
    },
    {
      "inputs": [],
      "name": "STAKING_ROLE",
      "outputs": [
        {
          "internalType": "bytes32",
          "name": "",
          "type": "bytes32"
        }
      ],
      "stateMutability": "view",
      "type": "function"
    },
    {
      "inputs": [],
      "name": "TOKEN_ROLE",
      "outputs": [
        {
          "internalType": "bytes32",
          "name": "",
          "type": "bytes32"
        }
      ],
      "stateMutability": "view",
      "type": "function"
    },
    {
      "inputs": [
        {
          "internalType": "bytes32",
          "name": "",
          "type": "bytes32"
        }
      ],
      "name": "claimableAddress",
      "outputs": [
        {
          "internalType": "address",
          "name": "",
          "type": "address"
        }
      ],
      "stateMutability": "view",
      "type": "function"
    },
    {
      "inputs": [
        {
          "internalType": "bytes32",
          "name": "",
          "type": "bytes32"
        }
      ],
      "name": "claimableAmount",
      "outputs": [
        {
          "internalType": "uint256",
          "name": "",
          "type": "uint256"
        }
      ],
      "stateMutability": "view",
      "type": "function"
    },
    {
      "inputs": [
        {
          "internalType": "address",
          "name": "",
          "type": "address"
        }
      ],
      "name": "depositStart",
      "outputs": [
        {
          "internalType": "uint256",
          "name": "",
          "type": "uint256"
        }
      ],
      "stateMutability": "view",
      "type": "function"
    },
    {
      "inputs": [],
      "name": "feeCollector_",
      "outputs": [
        {
          "internalType": "address",
          "name": "",
          "type": "address"
        }
      ],
      "stateMutability": "view",
      "type": "function"
    },
    {
      "inputs": [],
      "name": "fee_",
      "outputs": [
        {
          "internalType": "uint256",
          "name": "",
          "type": "uint256"
        }
      ],
      "stateMutability": "view",
      "type": "function"
    },
    {
      "inputs": [
        {
          "internalType": "bytes32",
          "name": "role",
          "type": "bytes32"
        }
      ],
      "name": "getRoleAdmin",
      "outputs": [
        {
          "internalType": "bytes32",
          "name": "",
          "type": "bytes32"
        }
      ],
      "stateMutability": "view",
      "type": "function"
    },
    {
      "inputs": [
        {
          "internalType": "bytes32",
          "name": "role",
          "type": "bytes32"
        },
        {
          "internalType": "uint256",
          "name": "index",
          "type": "uint256"
        }
      ],
      "name": "getRoleMember",
      "outputs": [
        {
          "internalType": "address",
          "name": "",
          "type": "address"
        }
      ],
      "stateMutability": "view",
      "type": "function"
    },
    {
      "inputs": [
        {
          "internalType": "bytes32",
          "name": "role",
          "type": "bytes32"
        }
      ],
      "name": "getRoleMemberCount",
      "outputs": [
        {
          "internalType": "uint256",
          "name": "",
          "type": "uint256"
        }
      ],
      "stateMutability": "view",
      "type": "function"
    },
    {
      "inputs": [
        {
          "internalType": "bytes32",
          "name": "role",
          "type": "bytes32"
        },
        {
          "internalType": "address",
          "name": "account",
          "type": "address"
        }
      ],
      "name": "grantRole",
      "outputs": [],
      "stateMutability": "nonpayable",
      "type": "function"
    },
    {
      "inputs": [
        {
          "internalType": "bytes32",
          "name": "role",
          "type": "bytes32"
        },
        {
          "internalType": "address",
          "name": "account",
          "type": "address"
        }
      ],
      "name": "hasRole",
      "outputs": [
        {
          "internalType": "bool",
          "name": "",
          "type": "bool"
        }
      ],
      "stateMutability": "view",
      "type": "function"
    },
    {
      "inputs": [],
      "name": "interest_",
      "outputs": [
        {
          "internalType": "uint256",
          "name": "",
          "type": "uint256"
        }
      ],
      "stateMutability": "view",
      "type": "function"
    },
    {
      "inputs": [
        {
          "internalType": "address",
          "name": "",
          "type": "address"
        }
      ],
      "name": "isDeposited",
      "outputs": [
        {
          "internalType": "bool",
          "name": "",
          "type": "bool"
        }
      ],
      "stateMutability": "view",
      "type": "function"
    },
    {
      "inputs": [],
      "name": "minStakeTime_",
      "outputs": [
        {
          "internalType": "uint256",
          "name": "",
          "type": "uint256"
        }
      ],
      "stateMutability": "view",
      "type": "function"
    },
    {
      "inputs": [],
      "name": "providerUhuRatio_",
      "outputs": [
        {
          "internalType": "uint256",
          "name": "",
          "type": "uint256"
        }
      ],
      "stateMutability": "view",
      "type": "function"
    },
    {
      "inputs": [
        {
          "internalType": "bytes32",
          "name": "role",
          "type": "bytes32"
        },
        {
          "internalType": "address",
          "name": "account",
          "type": "address"
        }
      ],
      "name": "renounceRole",
      "outputs": [],
      "stateMutability": "nonpayable",
      "type": "function"
    },
    {
      "inputs": [
        {
          "internalType": "bytes32",
          "name": "role",
          "type": "bytes32"
        },
        {
          "internalType": "address",
          "name": "account",
          "type": "address"
        }
      ],
      "name": "revokeRole",
      "outputs": [],
      "stateMutability": "nonpayable",
      "type": "function"
    },
    {
      "inputs": [
        {
          "internalType": "bytes4",
          "name": "interfaceId",
          "type": "bytes4"
        }
      ],
      "name": "supportsInterface",
      "outputs": [
        {
          "internalType": "bool",
          "name": "",
          "type": "bool"
        }
      ],
      "stateMutability": "view",
      "type": "function"
    },
    {
      "inputs": [
        {
          "internalType": "uint256",
          "name": "",
          "type": "uint256"
        }
      ],
      "name": "switches_",
      "outputs": [
        {
          "internalType": "bool",
          "name": "",
          "type": "bool"
        }
      ],
      "stateMutability": "view",
      "type": "function"
    },
    {
      "inputs": [
        {
          "internalType": "uint256",
          "name": "",
          "type": "uint256"
        }
      ],
      "name": "tokenList",
      "outputs": [
        {
          "internalType": "bytes32",
          "name": "",
          "type": "bytes32"
        }
      ],
      "stateMutability": "view",
      "type": "function"
    },
    {
      "inputs": [
        {
          "internalType": "bytes32",
          "name": "",
          "type": "bytes32"
        }
      ],
      "name": "tokenMapping",
      "outputs": [
        {
          "internalType": "address",
          "name": "tokenAddress",
          "type": "address"
        },
        {
          "internalType": "address",
          "name": "oracleAddress",
          "type": "address"
        },
        {
          "internalType": "uint256",
          "name": "manualTokenPrice",
          "type": "uint256"
        },
        {
          "internalType": "uint256",
          "name": "manualOracleDecimals",
          "type": "uint256"
        }
      ],
      "stateMutability": "view",
      "type": "function"
    },
    {
      "inputs": [],
      "name": "uhuBack_",
      "outputs": [
        {
          "internalType": "uint256",
          "name": "",
          "type": "uint256"
        }
      ],
      "stateMutability": "view",
      "type": "function"
    },
    {
      "inputs": [
        {
          "internalType": "address",
          "name": "",
          "type": "address"
        }
      ],
      "name": "uhuBalanceOf",
      "outputs": [
        {
          "internalType": "uint256",
          "name": "",
          "type": "uint256"
        }
      ],
      "stateMutability": "view",
      "type": "function"
    },
    {
      "stateMutability": "payable",
      "type": "receive"
    },
    {
      "inputs": [
        {
          "internalType": "bytes32",
          "name": "_ticker",
          "type": "bytes32"
        },
        {
          "internalType": "address",
          "name": "_tokenAddress",
          "type": "address"
        },
        {
          "internalType": "address",
          "name": "_oracleAddress",
          "type": "address"
        },
        {
          "internalType": "uint256",
          "name": "_manualTokenPrice",
          "type": "uint256"
        },
        {
          "internalType": "uint256",
          "name": "_manualOracleDecimals",
          "type": "uint256"
        }
      ],
      "name": "addToken",
      "outputs": [],
      "stateMutability": "nonpayable",
      "type": "function"
    },
    {
      "inputs": [
        {
          "internalType": "bytes32",
          "name": "_ticker",
          "type": "bytes32"
        },
        {
          "internalType": "address",
          "name": "_tokenAddress",
          "type": "address"
        },
        {
          "internalType": "address",
          "name": "_oracleAddress",
          "type": "address"
        },
        {
          "internalType": "uint256",
          "name": "_manualTokenPrice",
          "type": "uint256"
        },
        {
          "internalType": "uint256",
          "name": "_manualOracleDecimals",
          "type": "uint256"
        }
      ],
      "name": "editToken",
      "outputs": [],
      "stateMutability": "nonpayable",
      "type": "function"
    },
    {
      "inputs": [
        {
          "internalType": "uint256",
          "name": "newValue",
          "type": "uint256"
        }
      ],
      "name": "changeFee",
      "outputs": [],
      "stateMutability": "nonpayable",
      "type": "function"
    },
    {
      "inputs": [
        {
          "internalType": "address",
          "name": "newValue",
          "type": "address"
        }
      ],
      "name": "changeFeeCollector",
      "outputs": [],
      "stateMutability": "nonpayable",
      "type": "function"
    },
    {
      "inputs": [
        {
          "internalType": "uint256",
          "name": "newValue",
          "type": "uint256"
        }
      ],
      "name": "changeUhuBack",
      "outputs": [],
      "stateMutability": "nonpayable",
      "type": "function"
    },
    {
      "inputs": [
        {
          "internalType": "uint256",
          "name": "newValue",
          "type": "uint256"
        }
      ],
      "name": "changeProviderUhuRatio",
      "outputs": [],
      "stateMutability": "nonpayable",
      "type": "function"
    },
    {
      "inputs": [
        {
          "internalType": "uint256",
          "name": "newValue",
          "type": "uint256"
        }
      ],
      "name": "changeMinStakeTime",
      "outputs": [],
      "stateMutability": "nonpayable",
      "type": "function"
    },
    {
      "inputs": [
        {
          "internalType": "uint256",
          "name": "newValue",
          "type": "uint256"
        }
      ],
      "name": "changeInterest",
      "outputs": [],
      "stateMutability": "nonpayable",
      "type": "function"
    },
    {
      "inputs": [
        {
          "internalType": "bool",
          "name": "payEth",
          "type": "bool"
        },
        {
          "internalType": "bool",
          "name": "payToken",
          "type": "bool"
        },
        {
          "internalType": "bool",
          "name": "deposit",
          "type": "bool"
        },
        {
          "internalType": "bool",
          "name": "review",
          "type": "bool"
        }
      ],
      "name": "changeSwitches",
      "outputs": [],
      "stateMutability": "nonpayable",
      "type": "function"
    },
    {
      "inputs": [
        {
          "internalType": "address",
          "name": "provider",
          "type": "address"
        },
        {
          "internalType": "bytes32",
          "name": "booking",
          "type": "bytes32"
        },
        {
          "internalType": "uint256",
          "name": "rating",
          "type": "uint256"
        }
      ],
      "name": "makePaymentEth",
      "outputs": [],
      "stateMutability": "payable",
      "type": "function"
    },
    {
      "inputs": [
        {
          "internalType": "address",
          "name": "provider",
          "type": "address"
        },
        {
          "internalType": "bytes32",
          "name": "booking",
          "type": "bytes32"
        },
        {
          "internalType": "uint256",
          "name": "amount",
          "type": "uint256"
        },
        {
          "internalType": "bytes32",
          "name": "ticker",
          "type": "bytes32"
        },
        {
          "internalType": "uint256",
          "name": "rating",
          "type": "uint256"
        }
      ],
      "name": "makePayment",
      "outputs": [],
      "stateMutability": "nonpayable",
      "type": "function"
    },
    {
      "inputs": [
        {
          "internalType": "uint256",
          "name": "amount",
          "type": "uint256"
        }
      ],
      "name": "depositStake",
      "outputs": [],
      "stateMutability": "nonpayable",
      "type": "function"
    },
    {
      "inputs": [],
      "name": "myStakeInterest",
      "outputs": [
        {
          "internalType": "uint256",
          "name": "interest",
          "type": "uint256"
        }
      ],
      "stateMutability": "view",
      "type": "function"
    },
    {
      "inputs": [],
      "name": "withdrawStake",
      "outputs": [],
      "stateMutability": "nonpayable",
      "type": "function"
    },
    {
      "inputs": [
        {
          "internalType": "bytes32",
          "name": "booking",
          "type": "bytes32"
        },
        {
          "internalType": "uint256",
          "name": "rating",
          "type": "uint256"
        }
      ],
      "name": "reviewClaim",
      "outputs": [],
      "stateMutability": "nonpayable",
      "type": "function"
    },
    {
      "inputs": [
        {
          "internalType": "address",
          "name": "_to",
          "type": "address"
        },
        {
          "internalType": "uint256",
          "name": "amount",
          "type": "uint256"
        },
        {
          "internalType": "bytes32",
          "name": "ticker",
          "type": "bytes32"
        }
      ],
      "name": "transferToken",
      "outputs": [],
      "stateMutability": "nonpayable",
      "type": "function"
    },
    {
      "inputs": [
        {
          "internalType": "address",
          "name": "_to",
          "type": "address"
        },
        {
          "internalType": "uint256",
          "name": "amount",
          "type": "uint256"
        }
      ],
      "name": "transferEth",
      "outputs": [],
      "stateMutability": "nonpayable",
      "type": "function"
    },
    {
      "inputs": [
        {
          "internalType": "address",
          "name": "_to",
          "type": "address"
        },
        {
          "internalType": "uint256",
          "name": "amount",
          "type": "uint256"
        }
      ],
      "name": "mintUhu",
      "outputs": [],
      "stateMutability": "nonpayable",
      "type": "function"
    }
  ],
  "bytecode": "0x60806040523480156200001157600080fd5b506040516200669b3803806200669b833981810160405281019062000037919062000998565b81600260006101000a81548173ffffffffffffffffffffffffffffffffffffffff021916908373ffffffffffffffffffffffffffffffffffffffff1602179055506200008d6000801b826200060860201b60201c565b620000bf7fa49807205ce4d355092ef5a8a18f56e8913cf4a201fbe287825b095693c21775826200060860201b60201c565b620000f17fa7197c38d9c4c7450c7f2cd20d0a17cbe7c344190d6c82a6b49a146e62439ae4826200060860201b60201c565b620001237ff18246d2e788c2a885ec6aeee43fc7c89077b8b7a1e52e99f27f5889e429e2f5826200060860201b60201c565b61012c600b8190555030600c60006101000a81548173ffffffffffffffffffffffffffffffffffffffff021916908373ffffffffffffffffffffffffffffffffffffffff1602179055506103e8600e819055506103e8601081905550603c600f819055506103e8600d8190555060405180608001604052806001151515158152602001600115151515815260200160011515151581526020016001151515158152506011906004620001d79291906200089e565b5060007f5548550000000000000000000000000000000000000000000000000000000000905060405180608001604052808573ffffffffffffffffffffffffffffffffffffffff168152602001600073ffffffffffffffffffffffffffffffffffffffff168152602001670de0b6b3a7640000815260200160128152506009600083815260200190815260200160002060008201518160000160006101000a81548173ffffffffffffffffffffffffffffffffffffffff021916908373ffffffffffffffffffffffffffffffffffffffff16021790555060208201518160010160006101000a81548173ffffffffffffffffffffffffffffffffffffffff021916908373ffffffffffffffffffffffffffffffffffffffff1602179055506040820151816002015560608201518160030155905050600a81908060018154018082558091505060019003906000526020600020016000909190919091505560007f4554480000000000000000000000000000000000000000000000000000000000905060405180608001604052803073ffffffffffffffffffffffffffffffffffffffff168152602001600073ffffffffffffffffffffffffffffffffffffffff168152602001642e90edd000815260200160088152506009600083815260200190815260200160002060008201518160000160006101000a81548173ffffffffffffffffffffffffffffffffffffffff021916908373ffffffffffffffffffffffffffffffffffffffff16021790555060208201518160010160006101000a81548173ffffffffffffffffffffffffffffffffffffffff021916908373ffffffffffffffffffffffffffffffffffffffff1602179055506040820151816002015560608201518160030155905050600a81908060018154018082558091505060019003906000526020600020016000909190919091505560007f55485553440000000000000000000000000000000000000000000000000000009050604051806080016040528073f572bb43ce1653a398950f31c5dce6c47fa6601273ffffffffffffffffffffffffffffffffffffffff168152602001600073ffffffffffffffffffffffffffffffffffffffff1681526020016305f5e100815260200160088152506009600083815260200190815260200160002060008201518160000160006101000a81548173ffffffffffffffffffffffffffffffffffffffff021916908373ffffffffffffffffffffffffffffffffffffffff16021790555060208201518160010160006101000a81548173ffffffffffffffffffffffffffffffffffffffff021916908373ffffffffffffffffffffffffffffffffffffffff1602179055506040820151816002015560608201518160030155905050600a81908060018154018082558091505060019003906000526020600020016000909190919091505550505050505062000a75565b6200061f82826200065060201b620035891760201c565b6200064b81600160008581526020019081526020016000206200066660201b620035971790919060201c565b505050565b6200066282826200069e60201b60201c565b5050565b600062000696836000018373ffffffffffffffffffffffffffffffffffffffff1660001b6200078f60201b60201c565b905092915050565b620006b082826200080960201b60201c565b6200078b57600160008084815260200190815260200160002060000160008373ffffffffffffffffffffffffffffffffffffffff1673ffffffffffffffffffffffffffffffffffffffff16815260200190815260200160002060006101000a81548160ff021916908315150217905550620007306200087360201b60201c565b73ffffffffffffffffffffffffffffffffffffffff168173ffffffffffffffffffffffffffffffffffffffff16837f2f8788117e7eff1d82e926ec794901d17c78024a50270940304540a733656f0d60405160405180910390a45b5050565b6000620007a383836200087b60201b60201c565b620007fe57826000018290806001815401808255809150506001900390600052602060002001600090919091909150558260000180549050836001016000848152602001908152602001600020819055506001905062000803565b600090505b92915050565b600080600084815260200190815260200160002060000160008373ffffffffffffffffffffffffffffffffffffffff1673ffffffffffffffffffffffffffffffffffffffff16815260200190815260200160002060009054906101000a900460ff16905092915050565b600033905090565b600080836001016000848152602001908152602001600020541415905092915050565b82805482825590600052602060002090601f01602090048101928215620009385791602002820160005b838211156200090757835183826101000a81548160ff0219169083151502179055509260200192600101602081600001049283019260010302620008c8565b8015620009365782816101000a81549060ff021916905560010160208160000104928301926001030262000907565b505b5090506200094791906200094b565b5090565b5b80821115620009665760008160009055506001016200094c565b5090565b6000815190506200097b8162000a41565b92915050565b600081519050620009928162000a5b565b92915050565b600080600060608486031215620009b457620009b362000a3c565b5b6000620009c4868287016200096a565b9350506020620009d78682870162000981565b9250506040620009ea868287016200096a565b9150509250925092565b600062000a018262000a1c565b9050919050565b600062000a1582620009f4565b9050919050565b600073ffffffffffffffffffffffffffffffffffffffff82169050919050565b600080fd5b62000a4c81620009f4565b811462000a5857600080fd5b50565b62000a668162000a08565b811462000a7257600080fd5b50565b615c168062000a856000396000f3fe60806040526004361061026b5760003560e01c80639245290d11610144578063d547741f116100b6578063f004b15a1161007a578063f004b15a14610970578063f33b480d1461099b578063fa240f62146109c4578063fe7625ff146109ef578063fe8bd34314610a18578063ff87930a14610a4157610272565b8063d547741f146108a1578063e256e78a146108ca578063e9bb84c2146108f5578063eb2d070b1461091e578063eda2a7151461094757610272565b8063bed9d86111610108578063bed9d861146107b2578063c1d12182146107c9578063c8e17636146107e5578063ca15c87314610810578063cb82cc8f1461084d578063ccfdeb0a1461087657610272565b80639245290d146106cf5780639ead7222146106f85780639f783dae14610735578063a217fddf1461075e578063b95b98d41461078957610272565b80634cde06e8116101dd57806375b238fc116101a157806375b238fc146105a95780637a1742d4146105d45780638301057b146105ff5780639010d07c1461062a578063910528161461066757806391d148541461069257610272565b80634cde06e81461049d5780635a63561c146104da578063667cb4ba146105035780636a1db1bf14610543578063737320241461056c57610272565b806315836ade1161022f57806315836ade1461036b578063248a9ca3146103a8578063299ce916146103e55780632f2ff15d1461042257806336568abe1461044b5780633d9ce2ed1461047457610272565b806301ffc9a7146102745780630e59db0a146102b1578063130d4cbc146102da5780631410e9ff1461030557806314c07be51461034257610272565b3661027257005b005b34801561028057600080fd5b5061029b60048036038101906102969190614384565b610a7e565b6040516102a891906149fa565b60405180910390f35b3480156102bd57600080fd5b506102d860048036038101906102d391906141f5565b610af8565b005b3480156102e657600080fd5b506102ef610bb0565b6040516102fc9190614e2a565b60405180910390f35b34801561031157600080fd5b5061032c600480360381019061032791906143b1565b610d19565b60405161033991906149fa565b60405180910390f35b34801561034e57600080fd5b50610369600480360381019061036491906142c9565b610d4d565b005b34801561037757600080fd5b50610392600480360381019061038d919061425c565b610f4c565b60405161039f9190614e2a565b60405180910390f35b3480156103b457600080fd5b506103cf60048036038101906103ca919061425c565b610f64565b6040516103dc9190614a15565b60405180910390f35b3480156103f157600080fd5b5061040c6004803603810190610407919061403a565b610f83565b6040516104199190614e2a565b60405180910390f35b34801561042e57600080fd5b5061044960048036038101906104449190614289565b610f9b565b005b34801561045757600080fd5b50610472600480360381019061046d9190614289565b610fcf565b005b34801561048057600080fd5b5061049b600480360381019061049691906142c9565b611003565b005b3480156104a957600080fd5b506104c460048036038101906104bf919061425c565b6111a8565b6040516104d1919061493a565b60405180910390f35b3480156104e657600080fd5b5061050160048036038101906104fc91906143b1565b6111db565b005b34801561050f57600080fd5b5061052a6004803603810190610525919061425c565b611255565b60405161053a949392919061498c565b60405180910390f35b34801561054f57600080fd5b5061056a600480360381019061056591906143b1565b6112c5565b005b34801561057857600080fd5b50610593600480360381019061058e919061403a565b61133f565b6040516105a091906149fa565b60405180910390f35b3480156105b557600080fd5b506105be61135f565b6040516105cb9190614a15565b60405180910390f35b3480156105e057600080fd5b506105e9611383565b6040516105f69190614e2a565b60405180910390f35b34801561060b57600080fd5b50610614611389565b6040516106219190614a15565b60405180910390f35b34801561063657600080fd5b50610651600480360381019061064c9190614344565b6113ad565b60405161065e919061493a565b60405180910390f35b34801561067357600080fd5b5061067c6113dc565b6040516106899190614a15565b60405180910390f35b34801561069e57600080fd5b506106b960048036038101906106b49190614289565b611400565b6040516106c691906149fa565b60405180910390f35b3480156106db57600080fd5b506106f660048036038101906106f1919061403a565b61146a565b005b34801561070457600080fd5b5061071f600480360381019061071a91906143b1565b61151e565b60405161072c9190614a15565b60405180910390f35b34801561074157600080fd5b5061075c60048036038101906107579190614175565b611542565b005b34801561076a57600080fd5b50610773611706565b6040516107809190614a15565b60405180910390f35b34801561079557600080fd5b506107b060048036038101906107ab91906143b1565b61170d565b005b3480156107be57600080fd5b506107c7611787565b005b6107e360048036038101906107de9190614067565b611c37565b005b3480156107f157600080fd5b506107fa6123ff565b6040516108079190614e2a565b60405180910390f35b34801561081c57600080fd5b506108376004803603810190610832919061425c565b612405565b6040516108449190614e2a565b60405180910390f35b34801561085957600080fd5b50610874600480360381019061086f91906143b1565b612429565b005b34801561088257600080fd5b5061088b612726565b6040516108989190614e2a565b60405180910390f35b3480156108ad57600080fd5b506108c860048036038101906108c39190614289565b61272c565b005b3480156108d657600080fd5b506108df612760565b6040516108ec919061493a565b60405180910390f35b34801561090157600080fd5b5061091c60048036038101906109179190614135565b612786565b005b34801561092a57600080fd5b50610945600480360381019061094091906143b1565b612824565b005b34801561095357600080fd5b5061096e600480360381019061096991906140ba565b61289e565b005b34801561097c57600080fd5b5061098561316c565b6040516109929190614e2a565b60405180910390f35b3480156109a757600080fd5b506109c260048036038101906109bd9190614344565b613172565b005b3480156109d057600080fd5b506109d961340b565b6040516109e69190614e2a565b60405180910390f35b3480156109fb57600080fd5b50610a166004803603810190610a1191906143b1565b613411565b005b348015610a2457600080fd5b50610a3f6004803603810190610a3a9190614135565b61348b565b005b348015610a4d57600080fd5b50610a686004803603810190610a63919061403a565b613571565b604051610a759190614e2a565b60405180910390f35b60007f5a05180f000000000000000000000000000000000000000000000000000000007bffffffffffffffffffffffffffffffffffffffffffffffffffffffff1916827bffffffffffffffffffffffffffffffffffffffffffffffffffffffff19161480610af15750610af0826135c7565b5b9050919050565b610b297fa49807205ce4d355092ef5a8a18f56e8913cf4a201fbe287825b095693c21775610b24613641565b611400565b610b68576040517f08c379a0000000000000000000000000000000000000000000000000000000008152600401610b5f90614daa565b60405180910390fd5b604051806080016040528085151515158152602001841515151581526020018315151515815260200182151515158152506011906004610ba9929190613ea5565b5050505050565b600060011515600460003373ffffffffffffffffffffffffffffffffffffffff1673ffffffffffffffffffffffffffffffffffffffff16815260200190815260200160002060009054906101000a900460ff16151514610c45576040517f08c379a0000000000000000000000000000000000000000000000000000000008152600401610c3c90614b6a565b60405180910390fd5b6000600560003373ffffffffffffffffffffffffffffffffffffffff1673ffffffffffffffffffffffffffffffffffffffff1681526020019081526020016000205442610c92919061511e565b90506000670de0b6b3a7640000600660003373ffffffffffffffffffffffffffffffffffffffff1673ffffffffffffffffffffffffffffffffffffffff16815260200190815260200160002054600d5462305252610cf091906150c4565b610cfa91906150c4565b610d049190614f22565b90508181610d1291906150c4565b9250505090565b60118181548110610d2957600080fd5b9060005260206000209060209182820401919006915054906101000a900460ff1681565b84600073ffffffffffffffffffffffffffffffffffffffff166009600083815260200190815260200160002060000160009054906101000a900473ffffffffffffffffffffffffffffffffffffffff1673ffffffffffffffffffffffffffffffffffffffff161415610df4576040517f08c379a0000000000000000000000000000000000000000000000000000000008152600401610deb90614c2a565b60405180910390fd5b610e257fa7197c38d9c4c7450c7f2cd20d0a17cbe7c344190d6c82a6b49a146e62439ae4610e20613641565b611400565b610e64576040517f08c379a0000000000000000000000000000000000000000000000000000000008152600401610e5b90614bea565b60405180910390fd5b846009600088815260200190815260200160002060000160006101000a81548173ffffffffffffffffffffffffffffffffffffffff021916908373ffffffffffffffffffffffffffffffffffffffff160217905550836009600088815260200190815260200160002060010160006101000a81548173ffffffffffffffffffffffffffffffffffffffff021916908373ffffffffffffffffffffffffffffffffffffffff160217905550826009600088815260200190815260200160002060020181905550816009600088815260200190815260200160002060030181905550505050505050565b60086020528060005260406000206000915090505481565b6000806000838152602001908152602001600020600101549050919050565b60066020528060005260406000206000915090505481565b610fa58282613649565b610fca816001600085815260200190815260200160002061359790919063ffffffff16565b505050565b610fd98282613672565b610ffe81600160008581526020019081526020016000206136f590919063ffffffff16565b505050565b6110347fa7197c38d9c4c7450c7f2cd20d0a17cbe7c344190d6c82a6b49a146e62439ae461102f613641565b611400565b611073576040517f08c379a000000000000000000000000000000000000000000000000000000000815260040161106a90614dea565b60405180910390fd5b60405180608001604052808573ffffffffffffffffffffffffffffffffffffffff1681526020018473ffffffffffffffffffffffffffffffffffffffff168152602001838152602001828152506009600087815260200190815260200160002060008201518160000160006101000a81548173ffffffffffffffffffffffffffffffffffffffff021916908373ffffffffffffffffffffffffffffffffffffffff16021790555060208201518160010160006101000a81548173ffffffffffffffffffffffffffffffffffffffff021916908373ffffffffffffffffffffffffffffffffffffffff1602179055506040820151816002015560608201518160030155905050600a8590806001815401808255809150506001900390600052602060002001600090919091909150555050505050565b60076020528060005260406000206000915054906101000a900473ffffffffffffffffffffffffffffffffffffffff1681565b61120c7ff18246d2e788c2a885ec6aeee43fc7c89077b8b7a1e52e99f27f5889e429e2f5611207613641565b611400565b61124b576040517f08c379a000000000000000000000000000000000000000000000000000000000815260040161124290614d0a565b60405180910390fd5b80600d8190555050565b60096020528060005260406000206000915090508060000160009054906101000a900473ffffffffffffffffffffffffffffffffffffffff16908060010160009054906101000a900473ffffffffffffffffffffffffffffffffffffffff16908060020154908060030154905084565b6112f67fa49807205ce4d355092ef5a8a18f56e8913cf4a201fbe287825b095693c217756112f1613641565b611400565b611335576040517f08c379a000000000000000000000000000000000000000000000000000000000815260040161132c90614b4a565b60405180910390fd5b80600b8190555050565b60046020528060005260406000206000915054906101000a900460ff1681565b7fa49807205ce4d355092ef5a8a18f56e8913cf4a201fbe287825b095693c2177581565b60105481565b7fa7197c38d9c4c7450c7f2cd20d0a17cbe7c344190d6c82a6b49a146e62439ae481565b60006113d4826001600086815260200190815260200160002061372590919063ffffffff16565b905092915050565b7ff18246d2e788c2a885ec6aeee43fc7c89077b8b7a1e52e99f27f5889e429e2f581565b600080600084815260200190815260200160002060000160008373ffffffffffffffffffffffffffffffffffffffff1673ffffffffffffffffffffffffffffffffffffffff16815260200190815260200160002060009054906101000a900460ff16905092915050565b61149b7fa49807205ce4d355092ef5a8a18f56e8913cf4a201fbe287825b095693c21775611496613641565b611400565b6114da576040517f08c379a00000000000000000000000000000000000000000000000000000000081526004016114d190614d4a565b60405180910390fd5b80600c60006101000a81548173ffffffffffffffffffffffffffffffffffffffff021916908373ffffffffffffffffffffffffffffffffffffffff16021790555050565b600a818154811061152e57600080fd5b906000526020600020016000915090505481565b80600073ffffffffffffffffffffffffffffffffffffffff166009600083815260200190815260200160002060000160009054906101000a900473ffffffffffffffffffffffffffffffffffffffff1673ffffffffffffffffffffffffffffffffffffffff1614156115e9576040517f08c379a00000000000000000000000000000000000000000000000000000000081526004016115e090614c2a565b60405180910390fd5b6115fd6000801b6115f8613641565b611400565b61163c576040517f08c379a000000000000000000000000000000000000000000000000000000000815260040161163390614d8a565b60405180910390fd5b6009600083815260200190815260200160002060000160009054906101000a900473ffffffffffffffffffffffffffffffffffffffff1673ffffffffffffffffffffffffffffffffffffffff1663a9059cbb85856040518363ffffffff1660e01b81526004016116ad9291906149d1565b602060405180830381600087803b1580156116c757600080fd5b505af11580156116db573d6000803e3d6000fd5b505050506040513d601f19601f820116820180604052508101906116ff91906141c8565b5050505050565b6000801b81565b61173e7fa49807205ce4d355092ef5a8a18f56e8913cf4a201fbe287825b095693c21775611739613641565b611400565b61177d576040517f08c379a000000000000000000000000000000000000000000000000000000000815260040161177490614cea565b60405180910390fd5b8060108190555050565b60011515600460003373ffffffffffffffffffffffffffffffffffffffff1673ffffffffffffffffffffffffffffffffffffffff16815260200190815260200160002060009054906101000a900460ff1615151461181a576040517f08c379a000000000000000000000000000000000000000000000000000000000815260040161181190614b6a565b60405180910390fd5b600f54600560003373ffffffffffffffffffffffffffffffffffffffff1673ffffffffffffffffffffffffffffffffffffffff1681526020019081526020016000205442611868919061511e565b10156118a9576040517f08c379a00000000000000000000000000000000000000000000000000000000081526004016118a090614baa565b60405180910390fd5b6000600560003373ffffffffffffffffffffffffffffffffffffffff1673ffffffffffffffffffffffffffffffffffffffff16815260200190815260200160002054426118f6919061511e565b90506000670de0b6b3a7640000600660003373ffffffffffffffffffffffffffffffffffffffff1673ffffffffffffffffffffffffffffffffffffffff16815260200190815260200160002054600d546230525261195491906150c4565b61195e91906150c4565b6119689190614f22565b90506000828261197891906150c4565b90506000600660003373ffffffffffffffffffffffffffffffffffffffff1673ffffffffffffffffffffffffffffffffffffffff1681526020019081526020016000205490506000600560003373ffffffffffffffffffffffffffffffffffffffff1673ffffffffffffffffffffffffffffffffffffffff168152602001908152602001600020819055506000600660003373ffffffffffffffffffffffffffffffffffffffff1673ffffffffffffffffffffffffffffffffffffffff168152602001908152602001600020819055506000600460003373ffffffffffffffffffffffffffffffffffffffff1673ffffffffffffffffffffffffffffffffffffffff16815260200190815260200160002060006101000a81548160ff021916908315150217905550600260009054906101000a900473ffffffffffffffffffffffffffffffffffffffff1673ffffffffffffffffffffffffffffffffffffffff166340c10f1933846040518363ffffffff1660e01b8152600401611afd9291906149d1565b600060405180830381600087803b158015611b1757600080fd5b505af1158015611b2b573d6000803e3d6000fd5b50505050600260009054906101000a900473ffffffffffffffffffffffffffffffffffffffff1673ffffffffffffffffffffffffffffffffffffffff1663a9059cbb33836040518363ffffffff1660e01b8152600401611b8c9291906149d1565b602060405180830381600087803b158015611ba657600080fd5b505af1158015611bba573d6000803e3d6000fd5b505050506040513d601f19601f82011682018060405250810190611bde91906141c8565b503373ffffffffffffffffffffffffffffffffffffffff167f1340f1a8f3d456a649e1a12071dfa15655e3d09252131d0f980c3b405cc8dd2e828685604051611c2993929190614e6e565b60405180910390a250505050565b6011600081548110611c4c57611c4b6152e7565b5b90600052602060002090602091828204019190069054906101000a900460ff16156123fa5764e8d4a510003411611cb8576040517f08c379a0000000000000000000000000000000000000000000000000000000008152600401611caf90614d6a565b60405180910390fd5b8273ffffffffffffffffffffffffffffffffffffffff163373ffffffffffffffffffffffffffffffffffffffff161415611d27576040517f08c379a0000000000000000000000000000000000000000000000000000000008152600401611d1e90614b2a565b60405180910390fd5b600081118015611d38575060328111155b611d77576040517f08c379a0000000000000000000000000000000000000000000000000000000008152600401611d6e90614b8a565b60405180910390fd5b6000612710600b5434611d8a91906150c4565b611d949190614f22565b905060008134611da4919061511e565b9050600c60009054906101000a900473ffffffffffffffffffffffffffffffffffffffff1673ffffffffffffffffffffffffffffffffffffffff166108fc839081150290604051600060405180830381858888f19350505050158015611e0e573d6000803e3d6000fd5b508473ffffffffffffffffffffffffffffffffffffffff166108fc829081150290604051600060405180830381858888f19350505050158015611e55573d6000803e3d6000fd5b50600080600e541461236557600073ffffffffffffffffffffffffffffffffffffffff16600960007f4554480000000000000000000000000000000000000000000000000000000000815260200190815260200160002060010160009054906101000a900473ffffffffffffffffffffffffffffffffffffffff1673ffffffffffffffffffffffffffffffffffffffff16146121a657600960007f4554480000000000000000000000000000000000000000000000000000000000815260200190815260200160002060010160009054906101000a900473ffffffffffffffffffffffffffffffffffffffff16600360006101000a81548173ffffffffffffffffffffffffffffffffffffffff021916908373ffffffffffffffffffffffffffffffffffffffff1602179055506000600360009054906101000a900473ffffffffffffffffffffffffffffffffffffffff1673ffffffffffffffffffffffffffffffffffffffff1663feaf968c6040518163ffffffff1660e01b815260040160a06040518083038186803b158015611fec57600080fd5b505afa158015612000573d6000803e3d6000fd5b505050506040513d601f19601f8201168201806040525081019061202491906143de565b5050509150506000600360009054906101000a900473ffffffffffffffffffffffffffffffffffffffff1673ffffffffffffffffffffffffffffffffffffffff1663313ce5676040518163ffffffff1660e01b815260040160206040518083038186803b15801561209457600080fd5b505afa1580156120a8573d6000803e3d6000fd5b505050506040513d601f19601f820116820180604052508101906120cc9190614459565b9050612710600e548260ff16600a6120e49190614fa6565b84346120f091906150c4565b6120fa9190614f22565b61210491906150c4565b61210e9190614f22565b9250600260009054906101000a900473ffffffffffffffffffffffffffffffffffffffff1673ffffffffffffffffffffffffffffffffffffffff166340c10f1933856040518363ffffffff1660e01b815260040161216d9291906149d1565b600060405180830381600087803b15801561218757600080fd5b505af115801561219b573d6000803e3d6000fd5b5050505050506122e1565b612710600e54600960007f4554480000000000000000000000000000000000000000000000000000000000815260200190815260200160002060030154600a6121ef9190614fa6565b600960007f45544800000000000000000000000000000000000000000000000000000000008152602001908152602001600020600201543461223191906150c4565b61223b9190614f22565b61224591906150c4565b61224f9190614f22565b9050600260009054906101000a900473ffffffffffffffffffffffffffffffffffffffff1673ffffffffffffffffffffffffffffffffffffffff166340c10f1933836040518363ffffffff1660e01b81526004016122ae9291906149d1565b600060405180830381600087803b1580156122c857600080fd5b505af11580156122dc573d6000803e3d6000fd5b505050505b6010546064826122f191906150c4565b6122fb9190614f22565b6008600087815260200190815260200160002081905550856007600087815260200190815260200160002060006101000a81548173ffffffffffffffffffffffffffffffffffffffff021916908373ffffffffffffffffffffffffffffffffffffffff1602179055505b8573ffffffffffffffffffffffffffffffffffffffff163373ffffffffffffffffffffffffffffffffffffffff167f4e6154e8230208d2d6f42cfead45eaafcc628b104c2c4059ecdc6369bd18f3d687347f4554480000000000000000000000000000000000000000000000000000000000868a600b546040516123ee96959493929190614a30565b60405180910390a35050505b505050565b600f5481565b60006124226001600084815260200190815260200160002061373f565b9050919050565b601160028154811061243e5761243d6152e7565b5b90600052602060002090602091828204019190069054906101000a900460ff16156127235760001515600460003373ffffffffffffffffffffffffffffffffffffffff1673ffffffffffffffffffffffffffffffffffffffff16815260200190815260200160002060009054906101000a900460ff161515146124f6576040517f08c379a00000000000000000000000000000000000000000000000000000000081526004016124ed90614dca565b60405180910390fd5b662386f26fc10000811015612540576040517f08c379a000000000000000000000000000000000000000000000000000000000815260040161253790614cca565b60405180910390fd5b600260009054906101000a900473ffffffffffffffffffffffffffffffffffffffff1673ffffffffffffffffffffffffffffffffffffffff166323b872dd3330846040518463ffffffff1660e01b815260040161259f93929190614955565b602060405180830381600087803b1580156125b957600080fd5b505af11580156125cd573d6000803e3d6000fd5b505050506040513d601f19601f820116820180604052508101906125f191906141c8565b5080600660003373ffffffffffffffffffffffffffffffffffffffff1673ffffffffffffffffffffffffffffffffffffffff1681526020019081526020016000208190555042600560003373ffffffffffffffffffffffffffffffffffffffff1673ffffffffffffffffffffffffffffffffffffffff168152602001908152602001600020819055506001600460003373ffffffffffffffffffffffffffffffffffffffff1673ffffffffffffffffffffffffffffffffffffffff16815260200190815260200160002060006101000a81548160ff0219169083151502179055503373ffffffffffffffffffffffffffffffffffffffff167f19238c17ec71e5aaac0a7b3bf40940da594ff3a233408a985b748f3f26c7fdbf824260405161271a929190614e45565b60405180910390a25b50565b600b5481565b6127368282613754565b61275b81600160008581526020019081526020016000206136f590919063ffffffff16565b505050565b600c60009054906101000a900473ffffffffffffffffffffffffffffffffffffffff1681565b61279a6000801b612795613641565b611400565b6127d9576040517f08c379a00000000000000000000000000000000000000000000000000000000081526004016127d090614c4a565b60405180910390fd5b8173ffffffffffffffffffffffffffffffffffffffff166108fc829081150290604051600060405180830381858888f1935050505015801561281f573d6000803e3d6000fd5b505050565b6128557ff18246d2e788c2a885ec6aeee43fc7c89077b8b7a1e52e99f27f5889e429e2f5612850613641565b611400565b612894576040517f08c379a000000000000000000000000000000000000000000000000000000000815260040161288b90614c6a565b60405180910390fd5b80600f8190555050565b81600073ffffffffffffffffffffffffffffffffffffffff166009600083815260200190815260200160002060000160009054906101000a900473ffffffffffffffffffffffffffffffffffffffff1673ffffffffffffffffffffffffffffffffffffffff161415612945576040517f08c379a000000000000000000000000000000000000000000000000000000000815260040161293c90614c2a565b60405180910390fd5b601160018154811061295a576129596152e7565b5b90600052602060002090602091828204019190069054906101000a900460ff161561316457620f424084116129c4576040517f08c379a00000000000000000000000000000000000000000000000000000000081526004016129bb90614c8a565b60405180910390fd5b8573ffffffffffffffffffffffffffffffffffffffff163373ffffffffffffffffffffffffffffffffffffffff161415612a33576040517f08c379a0000000000000000000000000000000000000000000000000000000008152600401612a2a90614b2a565b60405180910390fd5b600082118015612a44575060328211155b612a83576040517f08c379a0000000000000000000000000000000000000000000000000000000008152600401612a7a90614b8a565b60405180910390fd5b6000612710600b5486612a9691906150c4565b612aa09190614f22565b905060008186612ab0919061511e565b90506009600086815260200190815260200160002060000160009054906101000a900473ffffffffffffffffffffffffffffffffffffffff1673ffffffffffffffffffffffffffffffffffffffff166323b872dd33600c60009054906101000a900473ffffffffffffffffffffffffffffffffffffffff16856040518463ffffffff1660e01b8152600401612b4793929190614955565b602060405180830381600087803b158015612b6157600080fd5b505af1158015612b75573d6000803e3d6000fd5b505050506040513d601f19601f82011682018060405250810190612b9991906141c8565b506009600086815260200190815260200160002060000160009054906101000a900473ffffffffffffffffffffffffffffffffffffffff1673ffffffffffffffffffffffffffffffffffffffff166323b872dd338a846040518463ffffffff1660e01b8152600401612c0d93929190614955565b602060405180830381600087803b158015612c2757600080fd5b505af1158015612c3b573d6000803e3d6000fd5b505050506040513d601f19601f82011682018060405250810190612c5f91906141c8565b50600080600e54146130ef57600073ffffffffffffffffffffffffffffffffffffffff166009600088815260200190815260200160002060010160009054906101000a900473ffffffffffffffffffffffffffffffffffffffff1673ffffffffffffffffffffffffffffffffffffffff1614612f70576009600087815260200190815260200160002060010160009054906101000a900473ffffffffffffffffffffffffffffffffffffffff16600360006101000a81548173ffffffffffffffffffffffffffffffffffffffff021916908373ffffffffffffffffffffffffffffffffffffffff1602179055506000600360009054906101000a900473ffffffffffffffffffffffffffffffffffffffff1673ffffffffffffffffffffffffffffffffffffffff1663feaf968c6040518163ffffffff1660e01b815260040160a06040518083038186803b158015612db657600080fd5b505afa158015612dca573d6000803e3d6000fd5b505050506040513d601f19601f82011682018060405250810190612dee91906143de565b5050509150506000600360009054906101000a900473ffffffffffffffffffffffffffffffffffffffff1673ffffffffffffffffffffffffffffffffffffffff1663313ce5676040518163ffffffff1660e01b815260040160206040518083038186803b158015612e5e57600080fd5b505afa158015612e72573d6000803e3d6000fd5b505050506040513d601f19601f82011682018060405250810190612e969190614459565b9050612710600e548260ff16600a612eae9190614fa6565b848c612eba91906150c4565b612ec49190614f22565b612ece91906150c4565b612ed89190614f22565b9250600260009054906101000a900473ffffffffffffffffffffffffffffffffffffffff1673ffffffffffffffffffffffffffffffffffffffff166340c10f1933856040518363ffffffff1660e01b8152600401612f379291906149d1565b600060405180830381600087803b158015612f5157600080fd5b505af1158015612f65573d6000803e3d6000fd5b50505050505061306b565b612710600e546009600089815260200190815260200160002060030154600a612f999190614fa6565b600960008a8152602001908152602001600020600201548a612fbb91906150c4565b612fc59190614f22565b612fcf91906150c4565b612fd99190614f22565b9050600260009054906101000a900473ffffffffffffffffffffffffffffffffffffffff1673ffffffffffffffffffffffffffffffffffffffff166340c10f1933836040518363ffffffff1660e01b81526004016130389291906149d1565b600060405180830381600087803b15801561305257600080fd5b505af1158015613066573d6000803e3d6000fd5b505050505b60105460648261307b91906150c4565b6130859190614f22565b600860008a81526020019081526020016000208190555088600760008a815260200190815260200160002060006101000a81548173ffffffffffffffffffffffffffffffffffffffff021916908373ffffffffffffffffffffffffffffffffffffffff1602179055505b8873ffffffffffffffffffffffffffffffffffffffff163373ffffffffffffffffffffffffffffffffffffffff167f4e6154e8230208d2d6f42cfead45eaafcc628b104c2c4059ecdc6369bd18f3d68a8a8a868b600b5460405161315896959493929190614a30565b60405180910390a35050505b505050505050565b600e5481565b6011600381548110613187576131866152e7565b5b90600052602060002090602091828204019190069054906101000a900460ff1615613407576000600860008481526020019081526020016000205411613202576040517f08c379a00000000000000000000000000000000000000000000000000000000081526004016131f990614caa565b60405180910390fd5b3373ffffffffffffffffffffffffffffffffffffffff166007600084815260200190815260200160002060009054906101000a900473ffffffffffffffffffffffffffffffffffffffff1673ffffffffffffffffffffffffffffffffffffffff16146132a3576040517f08c379a000000000000000000000000000000000000000000000000000000000815260040161329a90614c0a565b60405180910390fd5b6000811180156132b4575060328111155b6132f3576040517f08c379a00000000000000000000000000000000000000000000000000000000081526004016132ea90614b8a565b60405180910390fd5b60006008600084815260200190815260200160002054905060006008600085815260200190815260200160002081905550600260009054906101000a900473ffffffffffffffffffffffffffffffffffffffff1673ffffffffffffffffffffffffffffffffffffffff166340c10f1933836040518363ffffffff1660e01b81526004016133819291906149d1565b600060405180830381600087803b15801561339b57600080fd5b505af11580156133af573d6000803e3d6000fd5b505050503373ffffffffffffffffffffffffffffffffffffffff167f7a402d8ab15240a871372a3897945c37813ecf921b95837448bf8edce3ded55f8484846040516133fd93929190614a91565b60405180910390a2505b5050565b600d5481565b6134427fa49807205ce4d355092ef5a8a18f56e8913cf4a201fbe287825b095693c2177561343d613641565b611400565b613481576040517f08c379a000000000000000000000000000000000000000000000000000000000815260040161347890614bca565b60405180910390fd5b80600e8190555050565b61349f6000801b61349a613641565b611400565b6134de576040517f08c379a00000000000000000000000000000000000000000000000000000000081526004016134d590614d2a565b60405180910390fd5b600260009054906101000a900473ffffffffffffffffffffffffffffffffffffffff1673ffffffffffffffffffffffffffffffffffffffff166340c10f1983836040518363ffffffff1660e01b815260040161353b9291906149d1565b600060405180830381600087803b15801561355557600080fd5b505af1158015613569573d6000803e3d6000fd5b505050505050565b60056020528060005260406000206000915090505481565b613593828261377d565b5050565b60006135bf836000018373ffffffffffffffffffffffffffffffffffffffff1660001b61385d565b905092915050565b60007f7965db0b000000000000000000000000000000000000000000000000000000007bffffffffffffffffffffffffffffffffffffffffffffffffffffffff1916827bffffffffffffffffffffffffffffffffffffffffffffffffffffffff1916148061363a5750613639826138cd565b5b9050919050565b600033905090565b61365282610f64565b6136638161365e613641565b613937565b61366d838361377d565b505050565b61367a613641565b73ffffffffffffffffffffffffffffffffffffffff168173ffffffffffffffffffffffffffffffffffffffff16146136e7576040517f08c379a00000000000000000000000000000000000000000000000000000000081526004016136de90614e0a565b60405180910390fd5b6136f182826139d4565b5050565b600061371d836000018373ffffffffffffffffffffffffffffffffffffffff1660001b613ab5565b905092915050565b60006137348360000183613bc1565b60001c905092915050565b600061374d82600001613c35565b9050919050565b61375d82610f64565b61376e81613769613641565b613937565b61377883836139d4565b505050565b6137878282611400565b61385957600160008084815260200190815260200160002060000160008373ffffffffffffffffffffffffffffffffffffffff1673ffffffffffffffffffffffffffffffffffffffff16815260200190815260200160002060006101000a81548160ff0219169083151502179055506137fe613641565b73ffffffffffffffffffffffffffffffffffffffff168173ffffffffffffffffffffffffffffffffffffffff16837f2f8788117e7eff1d82e926ec794901d17c78024a50270940304540a733656f0d60405160405180910390a45b5050565b60006138698383613c46565b6138c25782600001829080600181540180825580915050600190039060005260206000200160009091909190915055826000018054905083600101600084815260200190815260200160002081905550600190506138c7565b600090505b92915050565b60007f01ffc9a7000000000000000000000000000000000000000000000000000000007bffffffffffffffffffffffffffffffffffffffffffffffffffffffff1916827bffffffffffffffffffffffffffffffffffffffffffffffffffffffff1916149050919050565b6139418282611400565b6139d0576139668173ffffffffffffffffffffffffffffffffffffffff166014613c69565b6139748360001c6020613c69565b604051602001613985929190614900565b6040516020818303038152906040526040517f08c379a00000000000000000000000000000000000000000000000000000000081526004016139c79190614ac8565b60405180910390fd5b5050565b6139de8282611400565b15613ab157600080600084815260200190815260200160002060000160008373ffffffffffffffffffffffffffffffffffffffff1673ffffffffffffffffffffffffffffffffffffffff16815260200190815260200160002060006101000a81548160ff021916908315150217905550613a56613641565b73ffffffffffffffffffffffffffffffffffffffff168173ffffffffffffffffffffffffffffffffffffffff16837ff6391f5c32d9c69d2a47ea670b442974b53935d1edc7fd64eb21e047a839171b60405160405180910390a45b5050565b60008083600101600084815260200190815260200160002054905060008114613bb5576000600182613ae7919061511e565b9050600060018660000180549050613aff919061511e565b90506000866000018281548110613b1957613b186152e7565b5b9060005260206000200154905080876000018481548110613b3d57613b3c6152e7565b5b9060005260206000200181905550838760010160008381526020019081526020016000208190555086600001805480613b7957613b786152b8565b5b60019003818190600052602060002001600090559055866001016000878152602001908152602001600020600090556001945050505050613bbb565b60009150505b92915050565b600081836000018054905011613c0c576040517f08c379a0000000000000000000000000000000000000000000000000000000008152600401613c0390614aea565b60405180910390fd5b826000018281548110613c2257613c216152e7565b5b9060005260206000200154905092915050565b600081600001805490509050919050565b600080836001016000848152602001908152602001600020541415905092915050565b606060006002836002613c7c91906150c4565b613c869190614ecc565b67ffffffffffffffff811115613c9f57613c9e615316565b5b6040519080825280601f01601f191660200182016040528015613cd15781602001600182028036833780820191505090505b5090507f300000000000000000000000000000000000000000000000000000000000000081600081518110613d0957613d086152e7565b5b60200101907effffffffffffffffffffffffffffffffffffffffffffffffffffffffffffff1916908160001a9053507f780000000000000000000000000000000000000000000000000000000000000081600181518110613d6d57613d6c6152e7565b5b60200101907effffffffffffffffffffffffffffffffffffffffffffffffffffffffffffff1916908160001a90535060006001846002613dad91906150c4565b613db79190614ecc565b90505b6001811115613e57577f3031323334353637383961626364656600000000000000000000000000000000600f861660108110613df957613df86152e7565b5b1a60f81b828281518110613e1057613e0f6152e7565b5b60200101907effffffffffffffffffffffffffffffffffffffffffffffffffffffffffffff1916908160001a905350600485901c945080613e5090615230565b9050613dba565b5060008414613e9b576040517f08c379a0000000000000000000000000000000000000000000000000000000008152600401613e9290614b0a565b60405180910390fd5b8091505092915050565b82805482825590600052602060002090601f01602090048101928215613f3a5791602002820160005b83821115613f0b57835183826101000a81548160ff0219169083151502179055509260200192600101602081600001049283019260010302613ece565b8015613f385782816101000a81549060ff0219169055600101602081600001049283019260010302613f0b565b505b509050613f479190613f4b565b5090565b5b80821115613f64576000816000905550600101613f4c565b5090565b600081359050613f7781615b28565b92915050565b600081359050613f8c81615b3f565b92915050565b600081519050613fa181615b3f565b92915050565b600081359050613fb681615b56565b92915050565b600081359050613fcb81615b6d565b92915050565b600081519050613fe081615b84565b92915050565b600081359050613ff581615b9b565b92915050565b60008151905061400a81615b9b565b92915050565b60008151905061401f81615bc9565b92915050565b60008151905061403481615bb2565b92915050565b6000602082840312156140505761404f615345565b5b600061405e84828501613f68565b91505092915050565b6000806000606084860312156140805761407f615345565b5b600061408e86828701613f68565b935050602061409f86828701613fa7565b92505060406140b086828701613fe6565b9150509250925092565b600080600080600060a086880312156140d6576140d5615345565b5b60006140e488828901613f68565b95505060206140f588828901613fa7565b945050604061410688828901613fe6565b935050606061411788828901613fa7565b925050608061412888828901613fe6565b9150509295509295909350565b6000806040838503121561414c5761414b615345565b5b600061415a85828601613f68565b925050602061416b85828601613fe6565b9150509250929050565b60008060006060848603121561418e5761418d615345565b5b600061419c86828701613f68565b93505060206141ad86828701613fe6565b92505060406141be86828701613fa7565b9150509250925092565b6000602082840312156141de576141dd615345565b5b60006141ec84828501613f92565b91505092915050565b6000806000806080858703121561420f5761420e615345565b5b600061421d87828801613f7d565b945050602061422e87828801613f7d565b935050604061423f87828801613f7d565b925050606061425087828801613f7d565b91505092959194509250565b60006020828403121561427257614271615345565b5b600061428084828501613fa7565b91505092915050565b600080604083850312156142a05761429f615345565b5b60006142ae85828601613fa7565b92505060206142bf85828601613f68565b9150509250929050565b600080600080600060a086880312156142e5576142e4615345565b5b60006142f388828901613fa7565b955050602061430488828901613f68565b945050604061431588828901613f68565b935050606061432688828901613fe6565b925050608061433788828901613fe6565b9150509295509295909350565b6000806040838503121561435b5761435a615345565b5b600061436985828601613fa7565b925050602061437a85828601613fe6565b9150509250929050565b60006020828403121561439a57614399615345565b5b60006143a884828501613fbc565b91505092915050565b6000602082840312156143c7576143c6615345565b5b60006143d584828501613fe6565b91505092915050565b600080600080600060a086880312156143fa576143f9615345565b5b600061440888828901614010565b955050602061441988828901613fd1565b945050604061442a88828901613ffb565b935050606061443b88828901613ffb565b925050608061444c88828901614010565b9150509295509295909350565b60006020828403121561446f5761446e615345565b5b600061447d84828501614025565b91505092915050565b61448f81615152565b82525050565b61449e81615164565b82525050565b6144ad81615170565b82525050565b60006144be82614ea5565b6144c88185614eb0565b93506144d88185602086016151fd565b6144e18161534a565b840191505092915050565b60006144f782614ea5565b6145018185614ec1565b93506145118185602086016151fd565b80840191505092915050565b600061452a602283614eb0565b915061453582615368565b604082019050919050565b600061454d602083614eb0565b9150614558826153b7565b602082019050919050565b6000614570602483614eb0565b915061457b826153e0565b604082019050919050565b6000614593602c83614eb0565b915061459e8261542f565b604082019050919050565b60006145b6601a83614eb0565b91506145c18261547e565b602082019050919050565b60006145d9602383614eb0565b91506145e4826154a7565b604082019050919050565b60006145fc603b83614eb0565b9150614607826154f6565b604082019050919050565b600061461f603983614eb0565b915061462a82615545565b604082019050919050565b6000614642602f83614eb0565b915061464d82615594565b604082019050919050565b6000614665603483614eb0565b9150614670826155e3565b604082019050919050565b6000614688601483614eb0565b915061469382615632565b602082019050919050565b60006146ab603683614eb0565b91506146b68261565b565b604082019050919050565b60006146ce603583614eb0565b91506146d9826156aa565b604082019050919050565b60006146f1602e83614eb0565b91506146fc826156f9565b604082019050919050565b6000614714602783614eb0565b915061471f82615748565b604082019050919050565b6000614737602283614eb0565b915061474282615797565b604082019050919050565b600061475a603d83614eb0565b9150614765826157e6565b604082019050919050565b600061477d603083614eb0565b915061478882615835565b604082019050919050565b60006147a0603983614eb0565b91506147ab82615884565b604082019050919050565b60006147c3603a83614eb0565b91506147ce826158d3565b604082019050919050565b60006147e6601783614ec1565b91506147f182615922565b601782019050919050565b6000614809602883614eb0565b91506148148261594b565b604082019050919050565b600061482c603983614eb0565b91506148378261599a565b604082019050919050565b600061484f603a83614eb0565b915061485a826159e9565b604082019050919050565b6000614872601d83614eb0565b915061487d82615a38565b602082019050919050565b6000614895601183614ec1565b91506148a082615a61565b601182019050919050565b60006148b8602e83614eb0565b91506148c382615a8a565b604082019050919050565b60006148db602f83614eb0565b91506148e682615ad9565b604082019050919050565b6148fa816151d0565b82525050565b600061490b826147d9565b915061491782856144ec565b915061492282614888565b915061492e82846144ec565b91508190509392505050565b600060208201905061494f6000830184614486565b92915050565b600060608201905061496a6000830186614486565b6149776020830185614486565b61498460408301846148f1565b949350505050565b60006080820190506149a16000830187614486565b6149ae6020830186614486565b6149bb60408301856148f1565b6149c860608301846148f1565b95945050505050565b60006040820190506149e66000830185614486565b6149f360208301846148f1565b9392505050565b6000602082019050614a0f6000830184614495565b92915050565b6000602082019050614a2a60008301846144a4565b92915050565b600060c082019050614a4560008301896144a4565b614a5260208301886148f1565b614a5f60408301876144a4565b614a6c60608301866148f1565b614a7960808301856148f1565b614a8660a08301846148f1565b979650505050505050565b6000606082019050614aa660008301866144a4565b614ab360208301856148f1565b614ac060408301846148f1565b949350505050565b60006020820190508181036000830152614ae281846144b3565b905092915050565b60006020820190508181036000830152614b038161451d565b9050919050565b60006020820190508181036000830152614b2381614540565b9050919050565b60006020820190508181036000830152614b4381614563565b9050919050565b60006020820190508181036000830152614b6381614586565b9050919050565b60006020820190508181036000830152614b83816145a9565b9050919050565b60006020820190508181036000830152614ba3816145cc565b9050919050565b60006020820190508181036000830152614bc3816145ef565b9050919050565b60006020820190508181036000830152614be381614612565b9050919050565b60006020820190508181036000830152614c0381614635565b9050919050565b60006020820190508181036000830152614c2381614658565b9050919050565b60006020820190508181036000830152614c438161467b565b9050919050565b60006020820190508181036000830152614c638161469e565b9050919050565b60006020820190508181036000830152614c83816146c1565b9050919050565b60006020820190508181036000830152614ca3816146e4565b9050919050565b60006020820190508181036000830152614cc381614707565b9050919050565b60006020820190508181036000830152614ce38161472a565b9050919050565b60006020820190508181036000830152614d038161474d565b9050919050565b60006020820190508181036000830152614d2381614770565b9050919050565b60006020820190508181036000830152614d4381614793565b9050919050565b60006020820190508181036000830152614d63816147b6565b9050919050565b60006020820190508181036000830152614d83816147fc565b9050919050565b60006020820190508181036000830152614da38161481f565b9050919050565b60006020820190508181036000830152614dc381614842565b9050919050565b60006020820190508181036000830152614de381614865565b9050919050565b60006020820190508181036000830152614e03816148ab565b9050919050565b60006020820190508181036000830152614e23816148ce565b9050919050565b6000602082019050614e3f60008301846148f1565b92915050565b6000604082019050614e5a60008301856148f1565b614e6760208301846148f1565b9392505050565b6000606082019050614e8360008301866148f1565b614e9060208301856148f1565b614e9d60408301846148f1565b949350505050565b600081519050919050565b600082825260208201905092915050565b600081905092915050565b6000614ed7826151d0565b9150614ee2836151d0565b9250827fffffffffffffffffffffffffffffffffffffffffffffffffffffffffffffffff03821115614f1757614f1661525a565b5b828201905092915050565b6000614f2d826151d0565b9150614f38836151d0565b925082614f4857614f47615289565b5b828204905092915050565b6000808291508390505b6001851115614f9d57808604811115614f7957614f7861525a565b5b6001851615614f885780820291505b8081029050614f968561535b565b9450614f5d565b94509492505050565b6000614fb1826151d0565b9150614fbc836151d0565b9250614fe97fffffffffffffffffffffffffffffffffffffffffffffffffffffffffffffffff8484614ff1565b905092915050565b60008261500157600190506150bd565b8161500f57600090506150bd565b8160018114615025576002811461502f5761505e565b60019150506150bd565b60ff8411156150415761504061525a565b5b8360020a9150848211156150585761505761525a565b5b506150bd565b5060208310610133831016604e8410600b84101617156150935782820a90508381111561508e5761508d61525a565b5b6150bd565b6150a08484846001614f53565b925090508184048111156150b7576150b661525a565b5b81810290505b9392505050565b60006150cf826151d0565b91506150da836151d0565b9250817fffffffffffffffffffffffffffffffffffffffffffffffffffffffffffffffff04831182151516156151135761511261525a565b5b828202905092915050565b6000615129826151d0565b9150615134836151d0565b9250828210156151475761514661525a565b5b828203905092915050565b600061515d826151b0565b9050919050565b60008115159050919050565b6000819050919050565b60007fffffffff0000000000000000000000000000000000000000000000000000000082169050919050565b6000819050919050565b600073ffffffffffffffffffffffffffffffffffffffff82169050919050565b6000819050919050565b600060ff82169050919050565b600069ffffffffffffffffffff82169050919050565b60005b8381101561521b578082015181840152602081019050615200565b8381111561522a576000848401525b50505050565b600061523b826151d0565b9150600082141561524f5761524e61525a565b5b600182039050919050565b7f4e487b7100000000000000000000000000000000000000000000000000000000600052601160045260246000fd5b7f4e487b7100000000000000000000000000000000000000000000000000000000600052601260045260246000fd5b7f4e487b7100000000000000000000000000000000000000000000000000000000600052603160045260246000fd5b7f4e487b7100000000000000000000000000000000000000000000000000000000600052603260045260246000fd5b7f4e487b7100000000000000000000000000000000000000000000000000000000600052604160045260246000fd5b600080fd5b6000601f19601f8301169050919050565b60008160011c9050919050565b7f456e756d657261626c655365743a20696e646578206f7574206f6620626f756e60008201527f6473000000000000000000000000000000000000000000000000000000000000602082015250565b7f537472696e67733a20686578206c656e67746820696e73756666696369656e74600082015250565b7f43616e206e6f74207472616e73666572207061796d656e7420746f20796f757260008201527f73656c6600000000000000000000000000000000000000000000000000000000602082015250565b7f4572726f723a20596f75206d75737420686176652061646d696e20726f6c652060008201527f746f2065646974206665652e0000000000000000000000000000000000000000602082015250565b7f4572726f722c206e6f2070726576696f7573206465706f736974000000000000600082015250565b7f4572726f722c20726174696e67206d757374206265206265747765656e20312060008201527f2620350000000000000000000000000000000000000000000000000000000000602082015250565b7f4572726f722c207761697420666f72206d696e696d756d207374616b696e672060008201527f6475726174696f6e206265666f7265207769746864726177696e670000000000602082015250565b7f4572726f723a20596f75206d75737420686176652061646d696e20726f6c652060008201527f746f206564697420757365722055485520726577617264732e00000000000000602082015250565b7f4572726f723a20596f75206d757374206861766520746f6b656e20726f6c652060008201527f746f206564697420746f6b656e732e0000000000000000000000000000000000602082015250565b7f4572726f722c206f6e6c7920636c61696d61626c65206279207365727669636560008201527f2070726f7669646572206f6620626f6f6b696e67000000000000000000000000602082015250565b7f546f6b656e20646f6573206e6f74206578697374000000000000000000000000600082015250565b7f4572726f723a20596f75206d75737420686176652073757065722061646d696e60008201527f20726f6c6520746f207472616e73666572206574682e00000000000000000000602082015250565b7f4572726f723a20596f75206d7573742068617665207374616b696e6720726f6c60008201527f6520746f2065646974206d696e2e207374616b652e0000000000000000000000602082015250565b7f5061796d656e74206d757374206861766520612076616c7565206f766572203160008201527f6d696c206261736520756e697473000000000000000000000000000000000000602082015250565b7f4572726f722c20616c726561647920636c61696d656420666f7220746869732060008201527f626f6f6b696e6700000000000000000000000000000000000000000000000000602082015250565b7f4572726f722c206465706f736974206d757374206265203e3d20302e3031205560008201527f4855000000000000000000000000000000000000000000000000000000000000602082015250565b7f4572726f723a20596f75206d75737420686176652061646d696e20726f6c652060008201527f746f20656469742070726f76696465722055485520726577617264732e000000602082015250565b7f4572726f723a20596f75206d7573742068617665207374616b696e6720726f6c60008201527f6520746f20656469742025206170792e00000000000000000000000000000000602082015250565b7f4572726f723a20596f75206d75737420686176652073757065722061646d696e60008201527f20726f6c6520746f206d696e742055485520746f6b656e732e00000000000000602082015250565b7f4572726f723a20596f75206d75737420686176652061646d696e20726f6c652060008201527f746f206564697420636f6c6c6563746f7220616464726573732e000000000000602082015250565b7f416363657373436f6e74726f6c3a206163636f756e7420000000000000000000600082015250565b7f5061796d656e74206d757374206861766520612076616c7565206f766572203160008201527f3030302047776569000000000000000000000000000000000000000000000000602082015250565b7f4572726f723a20596f75206d75737420686176652073757065722061646d696e60008201527f20726f6c6520746f207472616e7366657220746f6b656e732e00000000000000602082015250565b7f4572726f723a20596f75206d75737420686176652061646d696e20726f6c652060008201527f746f20656469742066756e6374696f6e2073776974636865732e000000000000602082015250565b7f4572726f722c206465706f73697420616c726561647920616374697665000000600082015250565b7f206973206d697373696e6720726f6c6520000000000000000000000000000000600082015250565b7f4572726f723a20596f75206d757374206861766520746f6b656e20726f6c652060008201527f746f2061646420746f6b656e732e000000000000000000000000000000000000602082015250565b7f416363657373436f6e74726f6c3a2063616e206f6e6c792072656e6f756e636560008201527f20726f6c657320666f722073656c660000000000000000000000000000000000602082015250565b615b3181615152565b8114615b3c57600080fd5b50565b615b4881615164565b8114615b5357600080fd5b50565b615b5f81615170565b8114615b6a57600080fd5b50565b615b768161517a565b8114615b8157600080fd5b50565b615b8d816151a6565b8114615b9857600080fd5b50565b615ba4816151d0565b8114615baf57600080fd5b50565b615bbb816151da565b8114615bc657600080fd5b50565b615bd2816151e7565b8114615bdd57600080fd5b5056fea26469706673582212209034104279eb878f10b846b4e3fdfd5d47093e876f73c2323d027cbd5fb8b7f064736f6c63430008060033",
  "immutableReferences": {},
  "source": "// SPDX-License-Identifier: MIT\n\npragma solidity ^0.8.0;\n\n// import \"../../node_modules/@openzeppelin/contracts/access/Ownable.sol\";\nimport \"../../node_modules/@openzeppelin/contracts/token/ERC20/IERC20.sol\";\nimport \"../../node_modules/@openzeppelin/contracts/access/AccessControlEnumerable.sol\";\nimport \"../../node_modules/@openzeppelin/contracts/utils/Context.sol\";\nimport \"../../node_modules/@chainlink/contracts/src/v0.8/interfaces/AggregatorV3Interface.sol\";\nimport \"./YouWho.sol\";\n\n// interface YouWhoInterface {\n//     function mint(address to, uint256 amount) external payable;\n// }\n\ncontract YouWhoDapp is     \n    Context,\n    AccessControlEnumerable {\n\n    bytes32 public constant ADMIN_ROLE = keccak256(\"ADMIN_ROLE\");\n    bytes32 public constant TOKEN_ROLE = keccak256(\"TOKEN_ROLE\");\n    bytes32 public constant STAKING_ROLE = keccak256(\"STAKING_ROLE\");\n\n    // another way of instantiating IERC20 : IERC20 public token; then assigning a token address: token = IERC20(address tokenAddress);\n    // YouWhoInterface YouWhoInstance = YouWhoInterface(tokenMapping[bytes32(\"UHU\")].tokenAddress);\n    YouWho private uhuToken;\n    AggregatorV3Interface internal priceFeed;\n\n    event PaymentDone(address indexed user, address indexed provider, bytes32 booking, uint amount, bytes32 ticker, uint amountUhu, uint rating, uint fee);\n    event DepositStake(address indexed user, uint uhuAmount, uint timeStart);\n    event WithdrawStake(address indexed user, uint uhuAmount, uint depositTime, uint interest);\n    event ReviewedUser(address indexed provider, bytes32 booking, uint rating, uint amountUhu);\n\n    struct Token {\n        address tokenAddress;\n        address oracleAddress;\n        uint manualTokenPrice;\n        uint manualOracleDecimals;\n    }\n\n    mapping(address => bool) public isDeposited;\n    mapping(address => uint) public depositStart;\n    mapping(address => uint) public uhuBalanceOf;\n    mapping(bytes32 => address) public claimableAddress;\n    mapping(bytes32 => uint) public claimableAmount;\n    mapping(bytes32 => Token) public tokenMapping;\n\n    bytes32[] public tokenList;\n    uint public fee_; // percentage as an integer, ie, input 3 for 3% fee. divide by 10000\n    address public feeCollector_; // address which payment fees are sent to\n    uint public interest_; // staking interest per annum, input as integer, ie, input 10 for 10% pa.\n    uint public uhuBack_; // amount of uhu returned as a % of USD value of payment, ie, input 10 for 10% back\n    uint public minStakeTime_; // minimum amount of time to stake before being able to withdraw, in seconds\n    uint public providerUhuRatio_; // the amount to divide the users uhu rewards by, eg if 10% of user rewards then set to 100/10 = 10, if 50% then 100/50 = 2\n    bool[] public switches_; // switches for various functions\n    \n\n    constructor(address _uhu, YouWho uhu_, address _1) {\n\n        uhuToken = uhu_;\n\n        _setupRole(DEFAULT_ADMIN_ROLE, _1);\n        _setupRole(ADMIN_ROLE, _1);\n        _setupRole(TOKEN_ROLE, _1);\n        _setupRole(STAKING_ROLE, _1);\n\n        fee_ = 300; // 3% of every payment goes to owner, divide by 10000\n        feeCollector_ =  address(this); // address which payment fees are sent to, set to contract address at beggining\n        uhuBack_ = 1000; // 10% of each payment USD amount, uhu is minted to user, divide by 10000\n        providerUhuRatio_ = 1000; // 100/ratio, eg, 100/1000 means provider will get 10% uhu that user gets, so if user get 300 provider will get 30\n        minStakeTime_ = 60; // 10 seconds just to test, use 86400 seconds for 24hrs\n        interest_ = 1000; // 10% pa staking interest, divide by 10000\n        switches_ = [ true, true, true, true ];\n\n\n        // set chainlink address to 0 for now\n        bytes32 tickerUhu = bytes32(\"UHU\");\n        tokenMapping[tickerUhu] = Token(_uhu, address(0), 1 * (10**18), 18);\n        tokenList.push(tickerUhu);\n        \n\n        // ganache ETH / USD\n        bytes32 tickerEth = bytes32(\"ETH\");\n        tokenMapping[tickerEth] = Token(address(this), address(0), 2000 * (10**8), 8);\n        tokenList.push(tickerEth);\n\n        // ganache mock USDC / USD\n        bytes32 tickerUhusd = bytes32(\"UHUSD\");\n        tokenMapping[tickerUhusd] = Token(0xf572bb43CE1653A398950f31c5DCe6c47fA66012, address(0), 1 * (10**8), 8);\n        tokenList.push(tickerUhusd);\n\n\n        // // rinkeby ETH / USD\n        // bytes32 tickerEth = bytes32(\"ETH\");\n        // tokenMapping[tickerEth] = Token(address(this), 0x8A753747A1Fa494EC906cE90E9f37563A8AF630e, 2000 * (10**8), 8);\n        // tokenList.push(tickerEth);\n\n        // // rinkeby mock USDC / USD\n        // bytes32 tickerUhusd = bytes32(\"UHUSD\");\n        // tokenMapping[tickerUhusd] = Token(0x7c875FCdf6728E16c51CFC542341110A9DD469cC, 0xa24de01df22b63d23Ebc1882a5E3d4ec0d907bFB, 1 * (10**8), 8);\n        // tokenList.push(tickerUhusd);\n\n\n        // // mainnet ETH / USD\n        // bytes32 tickerEth = bytes32(\"ETH\");\n        // tokenMapping[tickerEth] = Token(address(this), 0x5f4eC3Df9cbd43714FE2740f5E3616155c5b8419, 2000 * (10**8), 8);\n        // tokenList.push(tickerEth);\n\n        // // mainnet SUSD / USD\n        // bytes32 tickerSusd = bytes32(\"SUSD\");\n        // tokenMapping[tickerSusd] = Token(0x57Ab1ec28D129707052df4dF418D58a2D46d5f51, 0xad35Bd71b9aFE6e4bDc266B345c198eaDEf9Ad94, 1 * (10**8), 8);\n        // tokenList.push(tickerSusd);\n\n        // // mainnet DAI / USD\n        // bytes32 tickerDai = bytes32(\"DAI\");\n        // tokenMapping[tickerDai] = Token(0x6B175474E89094C44Da98b954EedeAC495271d0F, 0xAed0c38402a5d19df6E4c03F4E2DceD6e29c1ee9, 1 * (10**8), 8);\n        // tokenList.push(tickerDai);\n\n        // // mainnet USDC / USD\n        // bytes32 tickerUsdc = bytes32(\"USDC\");\n        // tokenMapping[tickerUsdc] = Token(0xA0b86991c6218b36c1d19D4a2e9Eb0cE3606eB48, 0x8fFfFfd4AfB6115b954Bd326cbe7B4BA576818f6, 1 * (10**8), 8);\n        // tokenList.push(tickerUsdc);\n\n        // // mainnet USDT / USD\n        // bytes32 tickerUsdt = bytes32(\"USDT\");\n        // tokenMapping[tickerUsdt] = Token(0xdAC17F958D2ee523a2206206994597C13D831ec7, 0x3E7d1eAB13ad0104d2750B8863b489D65364e32D, 1 * (10**8), 8);\n        // tokenList.push(tickerUsdt);\n\n    }\n\n    modifier tokenExists(bytes32 ticker) {\n        require(tokenMapping[ticker].tokenAddress != address(0),\"Token does not exist\");\n        _;\n    }\n\n    // this function is for future proofing incase more ERC20 tokens need to be added\n    function addToken(bytes32 _ticker, address _tokenAddress, address _oracleAddress, uint _manualTokenPrice, uint _manualOracleDecimals ) external {\n        require(hasRole(TOKEN_ROLE, _msgSender()),\"Error: You must have token role to add tokens.\");\n        tokenMapping[_ticker] = Token(_tokenAddress, _oracleAddress, _manualTokenPrice, _manualOracleDecimals);\n        tokenList.push(_ticker);\n    }\n\n    // this function is for future proofing, for when token address and/or oracle address changes\n    function editToken(bytes32 _ticker, address _tokenAddress, address _oracleAddress, uint _manualTokenPrice, uint _manualOracleDecimals ) external tokenExists(_ticker) {\n        require(hasRole(TOKEN_ROLE, _msgSender()),\"Error: You must have token role to edit tokens.\");\n        tokenMapping[_ticker].tokenAddress = _tokenAddress;\n        tokenMapping[_ticker].oracleAddress = _oracleAddress;\n        tokenMapping[_ticker].manualTokenPrice = _manualTokenPrice;\n        tokenMapping[_ticker].manualOracleDecimals = _manualOracleDecimals;\n    }\n\n    // function to change fee of the YouWho payment network, newFee should be an integer, eg input 3 for 3% fee per payment transaction\n    function changeFee(uint newValue) external {\n        require(hasRole(ADMIN_ROLE, _msgSender()),\"Error: You must have admin role to edit fee.\");\n        fee_ = newValue;\n    }\n\n    // function to change feeCollector address of the YouWho payment network\n    function changeFeeCollector(address newValue) external {\n        require(hasRole(ADMIN_ROLE, _msgSender()),\"Error: You must have admin role to edit collector address.\");\n        feeCollector_ = newValue;\n    }\n\n    // function to change amount of UHU the user gets back for each payment\n    function changeUhuBack(uint newValue) external {\n        require(hasRole(ADMIN_ROLE, _msgSender()),\"Error: You must have admin role to edit user UHU rewards.\");\n        uhuBack_ = newValue;\n    }\n\n    // function to change the amount of UHU the provider gets back when reviewing the user, if 10 then the provider gets 1/10 of UHU the user got\n    function changeProviderUhuRatio(uint newValue) external {\n        require(hasRole(ADMIN_ROLE, _msgSender()),\"Error: You must have admin role to edit provider UHU rewards.\");\n        providerUhuRatio_ = newValue;\n    }\n\n    // function to change the minimum UHU staking time in seconds, 1 day = 86400 seconds\n    function changeMinStakeTime(uint newValue) external {\n        require(hasRole(STAKING_ROLE, _msgSender()),\"Error: You must have staking role to edit min. stake.\");\n        minStakeTime_ = newValue;\n    }\n\n    // function to change yearly interest rate of uhu staking, newInterest should be an integer, eg input 10 for 10% interest pa\n    function changeInterest(uint newValue) external {\n        require(hasRole(STAKING_ROLE, _msgSender()),\"Error: You must have staking role to edit % apy.\");\n        interest_ = newValue;\n    }\n\n    // switches to turn various functions on and off\n    function changeSwitches(bool payEth, bool payToken, bool deposit, bool review) external {\n        require(hasRole(ADMIN_ROLE, _msgSender()),\"Error: You must have admin role to edit function switches.\");\n        switches_ = [ payEth, payToken, deposit, review ];\n    }\n\n    // payment router, % fee will go to contract owner\n    // for Eth payments, transfer value: ether to this function and it will route it to provider and owner\n    function makePaymentEth(address provider, bytes32 booking, uint rating) public payable {\n\n        if (switches_[0]) {\n\n            require(msg.value > 1000000000000, \"Payment must have a value over 1000 Gwei\");\n            require(msg.sender != provider, \"Can not transfer payment to yourself\");\n            require(rating > 0 && rating <= 50, \"Error, rating must be between 1 & 5\");\n\n            uint amountToOwner = msg.value * fee_ / 10000;\n            uint amountToProvider = msg.value - amountToOwner;\n\n            payable(feeCollector_).transfer(amountToOwner);\n            payable(provider).transfer(amountToProvider);\n\n            uint amountUhu;\n            \n            if (uhuBack_ != 0) {\n\n                if (tokenMapping[bytes32(\"ETH\")].oracleAddress != address(0)) {\n                    priceFeed = AggregatorV3Interface(tokenMapping[bytes32(\"ETH\")].oracleAddress);\n                    (, int price, , , ) = priceFeed.latestRoundData();\n                    (uint8 decimals) = priceFeed.decimals();\n\n                    amountUhu = msg.value * uint(price) / (10 ** uint(decimals)) * uhuBack_ / 10000; \n                    uhuToken.mint(msg.sender,amountUhu);\n\n                } else {\n                    amountUhu = msg.value * tokenMapping[bytes32(\"ETH\")].manualTokenPrice / (10 ** tokenMapping[bytes32(\"ETH\")].manualOracleDecimals) * uhuBack_ / 10000; \n                    uhuToken.mint(msg.sender,amountUhu);\n                }\n\n                claimableAmount[booking] = amountUhu * 100 / providerUhuRatio_;\n                claimableAddress[booking] = provider;\n\n            } \n\n            emit PaymentDone(msg.sender, provider, booking, msg.value, bytes32(\"ETH\"), amountUhu, rating, fee_);\n\n        }\n    }\n\n    // for ERC20 payments\n    function makePayment(address provider, bytes32 booking, uint amount, bytes32 ticker, uint rating) public tokenExists(ticker) {\n\n        if (switches_[1]) {\n\n            require(amount > 1000000, \"Payment must have a value over 1mil base units\");\n            require(msg.sender != provider, \"Can not transfer payment to yourself\");\n            require(rating > 0 && rating <= 50, \"Error, rating must be between 1 & 5\");\n\n            uint amountToOwner = amount * fee_ / 10000;\n            uint amountToProvider = amount - amountToOwner;\n\n            IERC20(tokenMapping[ticker].tokenAddress).transferFrom(msg.sender, feeCollector_, amountToOwner);\n            IERC20(tokenMapping[ticker].tokenAddress).transferFrom(msg.sender, provider, amountToProvider);\n\n            uint amountUhu;\n\n            if (uhuBack_ != 0) {\n\n                if (tokenMapping[ticker].oracleAddress != address(0)) {\n                    priceFeed = AggregatorV3Interface(tokenMapping[ticker].oracleAddress);\n                    (, int price, , , ) = priceFeed.latestRoundData();\n                    (uint8 decimals) = priceFeed.decimals();\n\n                    amountUhu = amount * uint(price) / (10 ** uint(decimals)) * uhuBack_ / 10000;\n                    uhuToken.mint(msg.sender,amountUhu);\n\n                } else {\n                    amountUhu = amount * tokenMapping[ticker].manualTokenPrice / (10 ** tokenMapping[ticker].manualOracleDecimals) * uhuBack_ / 10000;\n                    uhuToken.mint(msg.sender,amountUhu);\n                }\n                \n                claimableAmount[booking] = amountUhu * 100 / providerUhuRatio_;\n                claimableAddress[booking] = provider;\n            }\n\n            emit PaymentDone(msg.sender, provider, booking, amount, ticker, amountUhu, rating, fee_);\n\n        }\n    }\n\n    function depositStake(uint amount) public {\n\n        if (switches_[2]) {\n        \n            require(isDeposited[msg.sender] == false, 'Error, deposit already active');\n            require(amount >= (10**16), 'Error, deposit must be >= 0.01 UHU');\n\n            uhuToken.transferFrom(msg.sender,address(this),amount);\n\n            uhuBalanceOf[msg.sender] = amount;\n            depositStart[msg.sender] = block.timestamp;\n            isDeposited[msg.sender] = true; //activate deposit status\n\n            emit DepositStake(msg.sender, amount, block.timestamp);\n\n        }\n    }\n\n    function myStakeInterest() public view returns (uint interest) {\n        require(isDeposited[msg.sender]==true, 'Error, no previous deposit');\n        \n        //check user's hodl time\n        uint depositTime = block.timestamp - depositStart[msg.sender];\n        //calc interest per second\n        uint interestPerSecond = 3166802 * interest_ * uhuBalanceOf[msg.sender] / 1e18;\n        //calc accrued interest\n        interest = interestPerSecond * depositTime;\n\n    }\n\n    function withdrawStake() public {\n        require(isDeposited[msg.sender] == true, 'Error, no previous deposit');\n        require(block.timestamp - depositStart[msg.sender] >= minStakeTime_, 'Error, wait for minimum staking duration before withdrawing');\n\n        //check user's hodl time\n        uint depositTime = block.timestamp - depositStart[msg.sender];\n\n        //31668017 - interest(10% APY) per second for min. deposit amount (0.01 UHU), cuz:\n        //1e15(10% of 0.01 UHU) / 31577600 (seconds in 365.25 days)\n\n        //(uhuBalanceOf[msg.sender] / 1e16) - calc. how much higher interest will be (based on deposit), e.g.:\n        //for min. deposit (0.01 UHU), (uhuBalanceOf[msg.sender] / 1e16) = 1 (the same, 31668017/s)\n        //for deposit 0.02 UHU, (uhuBalanceOf[msg.sender] / 1e16) = 2 (doubled, (2*31668017)/s)\n        uint interestPerSecond = 3166802 * interest_ * uhuBalanceOf[msg.sender] / 1e18;\n        uint interestToPay = interestPerSecond * depositTime;\n\n        uint userBalance = uhuBalanceOf[msg.sender]; //for event\n        //reset depositer data\n        depositStart[msg.sender] = 0;\n        uhuBalanceOf[msg.sender] = 0;\n        isDeposited[msg.sender] = false;\n\n        uhuToken.mint(msg.sender, interestToPay); //interest to user\n        uhuToken.transfer(msg.sender,userBalance); //send funds back to user\n\n        emit WithdrawStake(msg.sender, userBalance, depositTime, interestToPay);\n    }\n\n\n    function reviewClaim(bytes32 booking, uint rating) public {\n\n        if (switches_[3]) {\n\n            require(claimableAmount[booking] > 0, \"Error, already claimed for this booking\");\n            require(claimableAddress[booking] == msg.sender, \"Error, only claimable by service provider of booking\");\n            require(rating > 0 && rating <= 50, \"Error, rating must be between 1 & 5\");\n\n            uint claimableNow = claimableAmount[booking];\n            claimableAmount[booking] = 0;\n            uhuToken.mint(msg.sender,claimableNow);\n\n            emit ReviewedUser(msg.sender, booking, rating, claimableNow); // add msg.sender & claimableNow amount to event emitted\n\n        }\n    }\n\n    function transferToken(address _to, uint amount, bytes32 ticker) public tokenExists(ticker) {\n        require(hasRole(DEFAULT_ADMIN_ROLE, _msgSender()),\"Error: You must have super admin role to transfer tokens.\");\n        IERC20(tokenMapping[ticker].tokenAddress).transfer(_to,amount);\n    }\n\n    function transferEth(address _to, uint amount) public {\n        require(hasRole(DEFAULT_ADMIN_ROLE, _msgSender()),\"Error: You must have super admin role to transfer eth.\");\n        payable(_to).transfer(amount);\n    }\n\n    function mintUhu(address _to, uint amount) public {\n        require(hasRole(DEFAULT_ADMIN_ROLE, _msgSender()),\"Error: You must have super admin role to mint UHU tokens.\");\n        uhuToken.mint(_to,amount);\n    }\n\n    fallback() external payable {\n        // custom function code\n    }\n\n    receive() external payable {\n        // custom function code\n    }\n\n}\n",
  "sourcePath": "/home/phyx1u5/Moralis/yh2/youwho/src/contracts/YouWhoDapp.sol",
  "compiler": {
    "name": "solc",
    "version": "0.8.6+commit.11564f7e.Emscripten.clang"
  },
  "schemaVersion": "3.3.4",
  "updatedAt": "2021-06-23T09:27:11.151Z",
  "devdoc": {
    "kind": "dev",
    "methods": {
      "getRoleAdmin(bytes32)": {
        "details": "Returns the admin role that controls `role`. See {grantRole} and {revokeRole}. To change a role's admin, use {_setRoleAdmin}."
      },
      "getRoleMember(bytes32,uint256)": {
        "details": "Returns one of the accounts that have `role`. `index` must be a value between 0 and {getRoleMemberCount}, non-inclusive. Role bearers are not sorted in any particular way, and their ordering may change at any point. WARNING: When using {getRoleMember} and {getRoleMemberCount}, make sure you perform all queries on the same block. See the following https://forum.openzeppelin.com/t/iterating-over-elements-on-enumerableset-in-openzeppelin-contracts/2296[forum post] for more information."
      },
      "getRoleMemberCount(bytes32)": {
        "details": "Returns the number of accounts that have `role`. Can be used together with {getRoleMember} to enumerate all bearers of a role."
      },
      "grantRole(bytes32,address)": {
        "details": "Overload {grantRole} to track enumerable memberships"
      },
      "hasRole(bytes32,address)": {
        "details": "Returns `true` if `account` has been granted `role`."
      },
      "renounceRole(bytes32,address)": {
        "details": "Overload {renounceRole} to track enumerable memberships"
      },
      "revokeRole(bytes32,address)": {
        "details": "Overload {revokeRole} to track enumerable memberships"
      },
      "supportsInterface(bytes4)": {
        "details": "See {IERC165-supportsInterface}."
      }
    },
    "version": 1
  },
  "userdoc": {
    "kind": "user",
    "methods": {},
    "version": 1
  }
}