{
  "contractName": "YouWhoToken",
  "abi": [
    {
      "inputs": [
        {
          "internalType": "address",
          "name": "_1",
          "type": "address"
        }
      ],
      "stateMutability": "nonpayable",
      "type": "constructor"
    },
    {
      "anonymous": false,
      "inputs": [
        {
          "indexed": true,
          "internalType": "address",
          "name": "owner",
          "type": "address"
        },
        {
          "indexed": true,
          "internalType": "address",
          "name": "spender",
          "type": "address"
        },
        {
          "indexed": false,
          "internalType": "uint256",
          "name": "value",
          "type": "uint256"
        }
      ],
      "name": "Approval",
      "type": "event"
    },
    {
      "anonymous": false,
      "inputs": [
        {
          "indexed": false,
          "internalType": "address",
          "name": "account",
          "type": "address"
        }
      ],
      "name": "Paused",
      "type": "event"
    },
    {
      "anonymous": false,
      "inputs": [
        {
          "indexed": true,
          "internalType": "bytes32",
          "name": "role",
          "type": "bytes32"
        },
        {
          "indexed": true,
          "internalType": "bytes32",
          "name": "previousAdminRole",
          "type": "bytes32"
        },
        {
          "indexed": true,
          "internalType": "bytes32",
          "name": "newAdminRole",
          "type": "bytes32"
        }
      ],
      "name": "RoleAdminChanged",
      "type": "event"
    },
    {
      "anonymous": false,
      "inputs": [
        {
          "indexed": true,
          "internalType": "bytes32",
          "name": "role",
          "type": "bytes32"
        },
        {
          "indexed": true,
          "internalType": "address",
          "name": "account",
          "type": "address"
        },
        {
          "indexed": true,
          "internalType": "address",
          "name": "sender",
          "type": "address"
        }
      ],
      "name": "RoleGranted",
      "type": "event"
    },
    {
      "anonymous": false,
      "inputs": [
        {
          "indexed": true,
          "internalType": "bytes32",
          "name": "role",
          "type": "bytes32"
        },
        {
          "indexed": true,
          "internalType": "address",
          "name": "account",
          "type": "address"
        },
        {
          "indexed": true,
          "internalType": "address",
          "name": "sender",
          "type": "address"
        }
      ],
      "name": "RoleRevoked",
      "type": "event"
    },
    {
      "anonymous": false,
      "inputs": [
        {
          "indexed": true,
          "internalType": "address",
          "name": "from",
          "type": "address"
        },
        {
          "indexed": true,
          "internalType": "address",
          "name": "to",
          "type": "address"
        },
        {
          "indexed": false,
          "internalType": "uint256",
          "name": "value",
          "type": "uint256"
        }
      ],
      "name": "Transfer",
      "type": "event"
    },
    {
      "anonymous": false,
      "inputs": [
        {
          "indexed": false,
          "internalType": "address",
          "name": "account",
          "type": "address"
        }
      ],
      "name": "Unpaused",
      "type": "event"
    },
    {
      "inputs": [],
      "name": "CAP_ROLE",
      "outputs": [
        {
          "internalType": "bytes32",
          "name": "",
          "type": "bytes32"
        }
      ],
      "stateMutability": "view",
      "type": "function",
      "constant": true
    },
    {
      "inputs": [],
      "name": "DEFAULT_ADMIN_ROLE",
      "outputs": [
        {
          "internalType": "bytes32",
          "name": "",
          "type": "bytes32"
        }
      ],
      "stateMutability": "view",
      "type": "function",
      "constant": true
    },
    {
      "inputs": [],
      "name": "MINTER_ROLE",
      "outputs": [
        {
          "internalType": "bytes32",
          "name": "",
          "type": "bytes32"
        }
      ],
      "stateMutability": "view",
      "type": "function",
      "constant": true
    },
    {
      "inputs": [],
      "name": "PAUSER_ROLE",
      "outputs": [
        {
          "internalType": "bytes32",
          "name": "",
          "type": "bytes32"
        }
      ],
      "stateMutability": "view",
      "type": "function",
      "constant": true
    },
    {
      "inputs": [
        {
          "internalType": "address",
          "name": "owner",
          "type": "address"
        },
        {
          "internalType": "address",
          "name": "spender",
          "type": "address"
        }
      ],
      "name": "allowance",
      "outputs": [
        {
          "internalType": "uint256",
          "name": "",
          "type": "uint256"
        }
      ],
      "stateMutability": "view",
      "type": "function",
      "constant": true
    },
    {
      "inputs": [
        {
          "internalType": "address",
          "name": "spender",
          "type": "address"
        },
        {
          "internalType": "uint256",
          "name": "amount",
          "type": "uint256"
        }
      ],
      "name": "approve",
      "outputs": [
        {
          "internalType": "bool",
          "name": "",
          "type": "bool"
        }
      ],
      "stateMutability": "nonpayable",
      "type": "function"
    },
    {
      "inputs": [
        {
          "internalType": "address",
          "name": "account",
          "type": "address"
        }
      ],
      "name": "balanceOf",
      "outputs": [
        {
          "internalType": "uint256",
          "name": "",
          "type": "uint256"
        }
      ],
      "stateMutability": "view",
      "type": "function",
      "constant": true
    },
    {
      "inputs": [
        {
          "internalType": "uint256",
          "name": "amount",
          "type": "uint256"
        }
      ],
      "name": "burn",
      "outputs": [],
      "stateMutability": "nonpayable",
      "type": "function"
    },
    {
      "inputs": [
        {
          "internalType": "address",
          "name": "account",
          "type": "address"
        },
        {
          "internalType": "uint256",
          "name": "amount",
          "type": "uint256"
        }
      ],
      "name": "burnFrom",
      "outputs": [],
      "stateMutability": "nonpayable",
      "type": "function"
    },
    {
      "inputs": [],
      "name": "decimals",
      "outputs": [
        {
          "internalType": "uint8",
          "name": "",
          "type": "uint8"
        }
      ],
      "stateMutability": "view",
      "type": "function",
      "constant": true
    },
    {
      "inputs": [
        {
          "internalType": "address",
          "name": "spender",
          "type": "address"
        },
        {
          "internalType": "uint256",
          "name": "subtractedValue",
          "type": "uint256"
        }
      ],
      "name": "decreaseAllowance",
      "outputs": [
        {
          "internalType": "bool",
          "name": "",
          "type": "bool"
        }
      ],
      "stateMutability": "nonpayable",
      "type": "function"
    },
    {
      "inputs": [
        {
          "internalType": "bytes32",
          "name": "role",
          "type": "bytes32"
        }
      ],
      "name": "getRoleAdmin",
      "outputs": [
        {
          "internalType": "bytes32",
          "name": "",
          "type": "bytes32"
        }
      ],
      "stateMutability": "view",
      "type": "function",
      "constant": true
    },
    {
      "inputs": [
        {
          "internalType": "bytes32",
          "name": "role",
          "type": "bytes32"
        },
        {
          "internalType": "uint256",
          "name": "index",
          "type": "uint256"
        }
      ],
      "name": "getRoleMember",
      "outputs": [
        {
          "internalType": "address",
          "name": "",
          "type": "address"
        }
      ],
      "stateMutability": "view",
      "type": "function",
      "constant": true
    },
    {
      "inputs": [
        {
          "internalType": "bytes32",
          "name": "role",
          "type": "bytes32"
        }
      ],
      "name": "getRoleMemberCount",
      "outputs": [
        {
          "internalType": "uint256",
          "name": "",
          "type": "uint256"
        }
      ],
      "stateMutability": "view",
      "type": "function",
      "constant": true
    },
    {
      "inputs": [
        {
          "internalType": "bytes32",
          "name": "role",
          "type": "bytes32"
        },
        {
          "internalType": "address",
          "name": "account",
          "type": "address"
        }
      ],
      "name": "grantRole",
      "outputs": [],
      "stateMutability": "nonpayable",
      "type": "function"
    },
    {
      "inputs": [
        {
          "internalType": "bytes32",
          "name": "role",
          "type": "bytes32"
        },
        {
          "internalType": "address",
          "name": "account",
          "type": "address"
        }
      ],
      "name": "hasRole",
      "outputs": [
        {
          "internalType": "bool",
          "name": "",
          "type": "bool"
        }
      ],
      "stateMutability": "view",
      "type": "function",
      "constant": true
    },
    {
      "inputs": [
        {
          "internalType": "address",
          "name": "spender",
          "type": "address"
        },
        {
          "internalType": "uint256",
          "name": "addedValue",
          "type": "uint256"
        }
      ],
      "name": "increaseAllowance",
      "outputs": [
        {
          "internalType": "bool",
          "name": "",
          "type": "bool"
        }
      ],
      "stateMutability": "nonpayable",
      "type": "function"
    },
    {
      "inputs": [],
      "name": "name",
      "outputs": [
        {
          "internalType": "string",
          "name": "",
          "type": "string"
        }
      ],
      "stateMutability": "view",
      "type": "function",
      "constant": true
    },
    {
      "inputs": [],
      "name": "paused",
      "outputs": [
        {
          "internalType": "bool",
          "name": "",
          "type": "bool"
        }
      ],
      "stateMutability": "view",
      "type": "function",
      "constant": true
    },
    {
      "inputs": [
        {
          "internalType": "bytes32",
          "name": "role",
          "type": "bytes32"
        },
        {
          "internalType": "address",
          "name": "account",
          "type": "address"
        }
      ],
      "name": "renounceRole",
      "outputs": [],
      "stateMutability": "nonpayable",
      "type": "function"
    },
    {
      "inputs": [
        {
          "internalType": "bytes32",
          "name": "role",
          "type": "bytes32"
        },
        {
          "internalType": "address",
          "name": "account",
          "type": "address"
        }
      ],
      "name": "revokeRole",
      "outputs": [],
      "stateMutability": "nonpayable",
      "type": "function"
    },
    {
      "inputs": [
        {
          "internalType": "bytes4",
          "name": "interfaceId",
          "type": "bytes4"
        }
      ],
      "name": "supportsInterface",
      "outputs": [
        {
          "internalType": "bool",
          "name": "",
          "type": "bool"
        }
      ],
      "stateMutability": "view",
      "type": "function",
      "constant": true
    },
    {
      "inputs": [],
      "name": "symbol",
      "outputs": [
        {
          "internalType": "string",
          "name": "",
          "type": "string"
        }
      ],
      "stateMutability": "view",
      "type": "function",
      "constant": true
    },
    {
      "inputs": [],
      "name": "totalSupply",
      "outputs": [
        {
          "internalType": "uint256",
          "name": "",
          "type": "uint256"
        }
      ],
      "stateMutability": "view",
      "type": "function",
      "constant": true
    },
    {
      "inputs": [
        {
          "internalType": "address",
          "name": "recipient",
          "type": "address"
        },
        {
          "internalType": "uint256",
          "name": "amount",
          "type": "uint256"
        }
      ],
      "name": "transfer",
      "outputs": [
        {
          "internalType": "bool",
          "name": "",
          "type": "bool"
        }
      ],
      "stateMutability": "nonpayable",
      "type": "function"
    },
    {
      "inputs": [
        {
          "internalType": "address",
          "name": "sender",
          "type": "address"
        },
        {
          "internalType": "address",
          "name": "recipient",
          "type": "address"
        },
        {
          "internalType": "uint256",
          "name": "amount",
          "type": "uint256"
        }
      ],
      "name": "transferFrom",
      "outputs": [
        {
          "internalType": "bool",
          "name": "",
          "type": "bool"
        }
      ],
      "stateMutability": "nonpayable",
      "type": "function"
    },
    {
      "inputs": [],
      "name": "cap",
      "outputs": [
        {
          "internalType": "uint256",
          "name": "",
          "type": "uint256"
        }
      ],
      "stateMutability": "view",
      "type": "function",
      "constant": true
    },
    {
      "inputs": [
        {
          "internalType": "uint256",
          "name": "newCap",
          "type": "uint256"
        }
      ],
      "name": "changeCap",
      "outputs": [],
      "stateMutability": "nonpayable",
      "type": "function"
    },
    {
      "inputs": [
        {
          "internalType": "address",
          "name": "to",
          "type": "address"
        },
        {
          "internalType": "uint256",
          "name": "amount",
          "type": "uint256"
        }
      ],
      "name": "mint",
      "outputs": [],
      "stateMutability": "nonpayable",
      "type": "function"
    },
    {
      "inputs": [],
      "name": "pause",
      "outputs": [],
      "stateMutability": "nonpayable",
      "type": "function"
    },
    {
      "inputs": [],
      "name": "unpause",
      "outputs": [],
      "stateMutability": "nonpayable",
      "type": "function"
    }
  ],
  "bytecode": "0x60806040523480156200001157600080fd5b506040516200453f3803806200453f833981810160405281019062000037919062000820565b6040518060400160405280600681526020017f596f7557686f00000000000000000000000000000000000000000000000000008152506040518060400160405280600381526020017f55485500000000000000000000000000000000000000000000000000000000008152508160059080519060200190620000bb92919062000759565b508060069080519060200190620000d492919062000759565b5050506000600760006101000a81548160ff0219169083151502179055506200014362000106620002ab60201b60201c565b62000116620002b360201b60201c565b60ff16600a620001279190620009d5565b62cc07c962000137919062000b12565b620002bc60201b60201c565b620001858162000158620002b360201b60201c565b60ff16600a620001699190620009d5565b6214672d62000179919062000b12565b620002bc60201b60201c565b620001a96000801b6200019d620002ab60201b60201c565b6200042260201b60201c565b620001ea7f9f2df0fed2c77648de5860a4cc508cd0818c85b8b8a1ab4ceeef8d981c8956a6620001de620002ab60201b60201c565b6200042260201b60201c565b6200022b7f65d7a28e3265b37a6474929f336521b332c1681b933f6cb9f3376673440d862a6200021f620002ab60201b60201c565b6200042260201b60201c565b6200026c7f2865fb6486f1182ff260a98800c07add86e3bf298ef0eac98fcd12371e94abc962000260620002ab60201b60201c565b6200042260201b60201c565b6200027c620002b360201b60201c565b60ff16600a6200028d9190620009d5565b6307f84dda6200029e919062000b12565b6008819055505062000ce4565b600033905090565b60006012905090565b600073ffffffffffffffffffffffffffffffffffffffff168273ffffffffffffffffffffffffffffffffffffffff1614156200032f576040517f08c379a00000000000000000000000000000000000000000000000000000000081526004016200032690620008ab565b60405180910390fd5b62000343600083836200046a60201b60201c565b80600460008282546200035791906200091d565b9250508190555080600260008473ffffffffffffffffffffffffffffffffffffffff1673ffffffffffffffffffffffffffffffffffffffff1681526020019081526020016000206000828254620003af91906200091d565b925050819055508173ffffffffffffffffffffffffffffffffffffffff16600073ffffffffffffffffffffffffffffffffffffffff167fddf252ad1be2c89b69c2b068fc378daa952ba7f163c4a11628f55a4df523b3ef83604051620004169190620008ef565b60405180910390a35050565b6200043982826200048760201b620010c21760201c565b6200046581600160008581526020019081526020016000206200049d60201b620010d01790919060201c565b505050565b62000482838383620004d560201b620011001760201c565b505050565b6200049982826200054560201b60201c565b5050565b6000620004cd836000018373ffffffffffffffffffffffffffffffffffffffff1660001b6200063660201b60201c565b905092915050565b620004ed838383620006b060201b620011581760201c565b620004fd620006b560201b60201c565b1562000540576040517f08c379a00000000000000000000000000000000000000000000000000000000081526004016200053790620008cd565b60405180910390fd5b505050565b620005578282620006cc60201b60201c565b6200063257600160008084815260200190815260200160002060000160008373ffffffffffffffffffffffffffffffffffffffff1673ffffffffffffffffffffffffffffffffffffffff16815260200190815260200160002060006101000a81548160ff021916908315150217905550620005d7620002ab60201b60201c565b73ffffffffffffffffffffffffffffffffffffffff168173ffffffffffffffffffffffffffffffffffffffff16837f2f8788117e7eff1d82e926ec794901d17c78024a50270940304540a733656f0d60405160405180910390a45b5050565b60006200064a83836200073660201b60201c565b620006a5578260000182908060018154018082558091505060019003906000526020600020016000909190919091505582600001805490508360010160008481526020019081526020016000208190555060019050620006aa565b600090505b92915050565b505050565b6000600760009054906101000a900460ff16905090565b600080600084815260200190815260200160002060000160008373ffffffffffffffffffffffffffffffffffffffff1673ffffffffffffffffffffffffffffffffffffffff16815260200190815260200160002060009054906101000a900460ff16905092915050565b600080836001016000848152602001908152602001600020541415905092915050565b828054620007679062000bb1565b90600052602060002090601f0160209004810192826200078b5760008555620007d7565b82601f10620007a657805160ff1916838001178555620007d7565b82800160010185558215620007d7579182015b82811115620007d6578251825591602001919060010190620007b9565b5b509050620007e69190620007ea565b5090565b5b8082111562000805576000816000905550600101620007eb565b5090565b6000815190506200081a8162000cca565b92915050565b6000602082840312156200083357600080fd5b6000620008438482850162000809565b91505092915050565b60006200085b601f836200090c565b9150620008688262000c52565b602082019050919050565b600062000882602a836200090c565b91506200088f8262000c7b565b604082019050919050565b620008a58162000ba7565b82525050565b60006020820190508181036000830152620008c6816200084c565b9050919050565b60006020820190508181036000830152620008e88162000873565b9050919050565b60006020820190506200090660008301846200089a565b92915050565b600082825260208201905092915050565b60006200092a8262000ba7565b9150620009378362000ba7565b9250827fffffffffffffffffffffffffffffffffffffffffffffffffffffffffffffffff038211156200096f576200096e62000be7565b5b828201905092915050565b6000808291508390505b6001851115620009cc57808604811115620009a457620009a362000be7565b5b6001851615620009b45780820291505b8081029050620009c48562000c45565b945062000984565b94509492505050565b6000620009e28262000ba7565b9150620009ef8362000ba7565b925062000a1e7fffffffffffffffffffffffffffffffffffffffffffffffffffffffffffffffff848462000a26565b905092915050565b60008262000a38576001905062000b0b565b8162000a48576000905062000b0b565b816001811462000a61576002811462000a6c5762000aa2565b600191505062000b0b565b60ff84111562000a815762000a8062000be7565b5b8360020a91508482111562000a9b5762000a9a62000be7565b5b5062000b0b565b5060208310610133831016604e8410600b841016171562000adc5782820a90508381111562000ad65762000ad562000be7565b5b62000b0b565b62000aeb84848460016200097a565b9250905081840481111562000b055762000b0462000be7565b5b81810290505b9392505050565b600062000b1f8262000ba7565b915062000b2c8362000ba7565b9250817fffffffffffffffffffffffffffffffffffffffffffffffffffffffffffffffff048311821515161562000b685762000b6762000be7565b5b828202905092915050565b600062000b808262000b87565b9050919050565b600073ffffffffffffffffffffffffffffffffffffffff82169050919050565b6000819050919050565b6000600282049050600182168062000bca57607f821691505b6020821081141562000be15762000be062000c16565b5b50919050565b7f4e487b7100000000000000000000000000000000000000000000000000000000600052601160045260246000fd5b7f4e487b7100000000000000000000000000000000000000000000000000000000600052602260045260246000fd5b60008160011c9050919050565b7f45524332303a206d696e7420746f20746865207a65726f206164647265737300600082015250565b7f45524332305061757361626c653a20746f6b656e207472616e7366657220776860008201527f696c652070617573656400000000000000000000000000000000000000000000602082015250565b62000cd58162000b73565b811462000ce157600080fd5b50565b61384b8062000cf46000396000f3fe608060405234801561001057600080fd5b50600436106101e55760003560e01c806370a082311161010f578063a217fddf116100a2578063d539139311610071578063d5391393146105a6578063d547741f146105c4578063dd62ed3e146105e0578063e63ab1e914610610576101e5565b8063a217fddf146104f8578063a457c2d714610516578063a9059cbb14610546578063ca15c87314610576576101e5565b80638456cb59116100de5780638456cb59146104705780639010d07c1461047a57806391d14854146104aa57806395d89b41146104da576101e5565b806370a08231146103ea57806379cc67901461041a578063800edb9d1461043657806382c95f9c14610452576101e5565b8063313ce567116101875780633f4ba83a116101565780633f4ba83a1461038a57806340c10f191461039457806342966c68146103b05780635c975abb146103cc576101e5565b8063313ce56714610302578063355274ea1461032057806336568abe1461033e578063395093511461035a576101e5565b806318160ddd116101c357806318160ddd1461026857806323b872dd14610286578063248a9ca3146102b65780632f2ff15d146102e6576101e5565b806301ffc9a7146101ea57806306fdde031461021a578063095ea7b314610238575b600080fd5b61020460048036038101906101ff9190612643565b61062e565b6040516102119190612b0a565b60405180910390f35b6102226106a8565b60405161022f9190612b40565b60405180910390f35b610252600480360381019061024d9190612566565b61073a565b60405161025f9190612b0a565b60405180910390f35b610270610758565b60405161027d9190612e42565b60405180910390f35b6102a0600480360381019061029b9190612517565b610762565b6040516102ad9190612b0a565b60405180910390f35b6102d060048036038101906102cb91906125a2565b610863565b6040516102dd9190612b25565b60405180910390f35b61030060048036038101906102fb91906125cb565b610882565b005b61030a6108b6565b6040516103179190612e5d565b60405180910390f35b6103286108bf565b6040516103359190612e42565b60405180910390f35b610358600480360381019061035391906125cb565b6108c9565b005b610374600480360381019061036f9190612566565b6108fd565b6040516103819190612b0a565b60405180910390f35b6103926109a9565b005b6103ae60048036038101906103a99190612566565b610a23565b005b6103ca60048036038101906103c5919061266c565b610afd565b005b6103d4610b11565b6040516103e19190612b0a565b60405180910390f35b61040460048036038101906103ff91906124b2565b610b28565b6040516104119190612e42565b60405180910390f35b610434600480360381019061042f9190612566565b610b71565b005b610450600480360381019061044b919061266c565b610bf5565b005b61045a610cb9565b6040516104679190612b25565b60405180910390f35b610478610cdd565b005b610494600480360381019061048f9190612607565b610d57565b6040516104a19190612aef565b60405180910390f35b6104c460048036038101906104bf91906125cb565b610d86565b6040516104d19190612b0a565b60405180910390f35b6104e2610df0565b6040516104ef9190612b40565b60405180910390f35b610500610e82565b60405161050d9190612b25565b60405180910390f35b610530600480360381019061052b9190612566565b610e89565b60405161053d9190612b0a565b60405180910390f35b610560600480360381019061055b9190612566565b610f7d565b60405161056d9190612b0a565b60405180910390f35b610590600480360381019061058b91906125a2565b610f9b565b60405161059d9190612e42565b60405180910390f35b6105ae610fbf565b6040516105bb9190612b25565b60405180910390f35b6105de60048036038101906105d991906125cb565b610fe3565b005b6105fa60048036038101906105f591906124db565b611017565b6040516106079190612e42565b60405180910390f35b61061861109e565b6040516106259190612b25565b60405180910390f35b60007f5a05180f000000000000000000000000000000000000000000000000000000007bffffffffffffffffffffffffffffffffffffffffffffffffffffffff1916827bffffffffffffffffffffffffffffffffffffffffffffffffffffffff191614806106a157506106a08261115d565b5b9050919050565b6060600580546106b79061306b565b80601f01602080910402602001604051908101604052809291908181526020018280546106e39061306b565b80156107305780601f1061070557610100808354040283529160200191610730565b820191906000526020600020905b81548152906001019060200180831161071357829003601f168201915b5050505050905090565b600061074e6107476111d7565b84846111df565b6001905092915050565b6000600454905090565b600061076f8484846113aa565b6000600360008673ffffffffffffffffffffffffffffffffffffffff1673ffffffffffffffffffffffffffffffffffffffff16815260200190815260200160002060006107ba6111d7565b73ffffffffffffffffffffffffffffffffffffffff1673ffffffffffffffffffffffffffffffffffffffff1681526020019081526020016000205490508281101561083a576040517f08c379a000000000000000000000000000000000000000000000000000000000815260040161083190612ca2565b60405180910390fd5b610857856108466111d7565b85846108529190612f4f565b6111df565b60019150509392505050565b6000806000838152602001908152602001600020600101549050919050565b61088c828261162c565b6108b181600160008581526020019081526020016000206110d090919063ffffffff16565b505050565b60006012905090565b6000600854905090565b6108d38282611655565b6108f881600160008581526020019081526020016000206116d890919063ffffffff16565b505050565b600061099f61090a6111d7565b8484600360006109186111d7565b73ffffffffffffffffffffffffffffffffffffffff1673ffffffffffffffffffffffffffffffffffffffff16815260200190815260200160002060008873ffffffffffffffffffffffffffffffffffffffff1673ffffffffffffffffffffffffffffffffffffffff1681526020019081526020016000205461099a9190612e9f565b6111df565b6001905092915050565b6109da7f65d7a28e3265b37a6474929f336521b332c1681b933f6cb9f3376673440d862a6109d56111d7565b610d86565b610a19576040517f08c379a0000000000000000000000000000000000000000000000000000000008152600401610a1090612c02565b60405180910390fd5b610a21611708565b565b610a547f9f2df0fed2c77648de5860a4cc508cd0818c85b8b8a1ab4ceeef8d981c8956a6610a4f6111d7565b610d86565b610a93576040517f08c379a0000000000000000000000000000000000000000000000000000000008152600401610a8a90612cc2565b60405180910390fd5b610a9b6108bf565b81610aa4610758565b610aae9190612e9f565b1115610aef576040517f08c379a0000000000000000000000000000000000000000000000000000000008152600401610ae690612d42565b60405180910390fd5b610af982826117aa565b5050565b610b0e610b086111d7565b826118ff565b50565b6000600760009054906101000a900460ff16905090565b6000600260008373ffffffffffffffffffffffffffffffffffffffff1673ffffffffffffffffffffffffffffffffffffffff168152602001908152602001600020549050919050565b6000610b8483610b7f6111d7565b611017565b905081811015610bc9576040517f08c379a0000000000000000000000000000000000000000000000000000000008152600401610bc090612ce2565b60405180910390fd5b610be683610bd56111d7565b8484610be19190612f4f565b6111df565b610bf083836118ff565b505050565b610c267f2865fb6486f1182ff260a98800c07add86e3bf298ef0eac98fcd12371e94abc9610c216111d7565b610d86565b610c65576040517f08c379a0000000000000000000000000000000000000000000000000000000008152600401610c5c90612c82565b60405180910390fd5b80610c6e610758565b1115610caf576040517f08c379a0000000000000000000000000000000000000000000000000000000008152600401610ca690612d62565b60405180910390fd5b8060088190555050565b7f2865fb6486f1182ff260a98800c07add86e3bf298ef0eac98fcd12371e94abc981565b610d0e7f65d7a28e3265b37a6474929f336521b332c1681b933f6cb9f3376673440d862a610d096111d7565b610d86565b610d4d576040517f08c379a0000000000000000000000000000000000000000000000000000000008152600401610d4490612da2565b60405180910390fd5b610d55611ad5565b565b6000610d7e8260016000868152602001908152602001600020611b7890919063ffffffff16565b905092915050565b600080600084815260200190815260200160002060000160008373ffffffffffffffffffffffffffffffffffffffff1673ffffffffffffffffffffffffffffffffffffffff16815260200190815260200160002060009054906101000a900460ff16905092915050565b606060068054610dff9061306b565b80601f0160208091040260200160405190810160405280929190818152602001828054610e2b9061306b565b8015610e785780601f10610e4d57610100808354040283529160200191610e78565b820191906000526020600020905b815481529060010190602001808311610e5b57829003601f168201915b5050505050905090565b6000801b81565b60008060036000610e986111d7565b73ffffffffffffffffffffffffffffffffffffffff1673ffffffffffffffffffffffffffffffffffffffff16815260200190815260200160002060008573ffffffffffffffffffffffffffffffffffffffff1673ffffffffffffffffffffffffffffffffffffffff16815260200190815260200160002054905082811015610f55576040517f08c379a0000000000000000000000000000000000000000000000000000000008152600401610f4c90612dc2565b60405180910390fd5b610f72610f606111d7565b858584610f6d9190612f4f565b6111df565b600191505092915050565b6000610f91610f8a6111d7565b84846113aa565b6001905092915050565b6000610fb860016000848152602001908152602001600020611b92565b9050919050565b7f9f2df0fed2c77648de5860a4cc508cd0818c85b8b8a1ab4ceeef8d981c8956a681565b610fed8282611ba7565b61101281600160008581526020019081526020016000206116d890919063ffffffff16565b505050565b6000600360008473ffffffffffffffffffffffffffffffffffffffff1673ffffffffffffffffffffffffffffffffffffffff16815260200190815260200160002060008373ffffffffffffffffffffffffffffffffffffffff1673ffffffffffffffffffffffffffffffffffffffff16815260200190815260200160002054905092915050565b7f65d7a28e3265b37a6474929f336521b332c1681b933f6cb9f3376673440d862a81565b6110cc8282611bd0565b5050565b60006110f8836000018373ffffffffffffffffffffffffffffffffffffffff1660001b611cb0565b905092915050565b61110b838383611158565b611113610b11565b15611153576040517f08c379a000000000000000000000000000000000000000000000000000000000815260040161114a90612e22565b60405180910390fd5b505050565b505050565b60007f7965db0b000000000000000000000000000000000000000000000000000000007bffffffffffffffffffffffffffffffffffffffffffffffffffffffff1916827bffffffffffffffffffffffffffffffffffffffffffffffffffffffff191614806111d057506111cf82611d20565b5b9050919050565b600033905090565b600073ffffffffffffffffffffffffffffffffffffffff168373ffffffffffffffffffffffffffffffffffffffff16141561124f576040517f08c379a000000000000000000000000000000000000000000000000000000000815260040161124690612d82565b60405180910390fd5b600073ffffffffffffffffffffffffffffffffffffffff168273ffffffffffffffffffffffffffffffffffffffff1614156112bf576040517f08c379a00000000000000000000000000000000000000000000000000000000081526004016112b690612c22565b60405180910390fd5b80600360008573ffffffffffffffffffffffffffffffffffffffff1673ffffffffffffffffffffffffffffffffffffffff16815260200190815260200160002060008473ffffffffffffffffffffffffffffffffffffffff1673ffffffffffffffffffffffffffffffffffffffff168152602001908152602001600020819055508173ffffffffffffffffffffffffffffffffffffffff168373ffffffffffffffffffffffffffffffffffffffff167f8c5be1e5ebec7d5bd14f71427d1e84f3dd0314c0f7b2291e5b200ac8c7c3b9258360405161139d9190612e42565b60405180910390a3505050565b600073ffffffffffffffffffffffffffffffffffffffff168373ffffffffffffffffffffffffffffffffffffffff16141561141a576040517f08c379a000000000000000000000000000000000000000000000000000000000815260040161141190612d22565b60405180910390fd5b600073ffffffffffffffffffffffffffffffffffffffff168273ffffffffffffffffffffffffffffffffffffffff16141561148a576040517f08c379a000000000000000000000000000000000000000000000000000000000815260040161148190612ba2565b60405180910390fd5b611495838383611d8a565b6000600260008573ffffffffffffffffffffffffffffffffffffffff1673ffffffffffffffffffffffffffffffffffffffff1681526020019081526020016000205490508181101561151c576040517f08c379a000000000000000000000000000000000000000000000000000000000815260040161151390612c42565b60405180910390fd5b81816115289190612f4f565b600260008673ffffffffffffffffffffffffffffffffffffffff1673ffffffffffffffffffffffffffffffffffffffff1681526020019081526020016000208190555081600260008573ffffffffffffffffffffffffffffffffffffffff1673ffffffffffffffffffffffffffffffffffffffff16815260200190815260200160002060008282546115ba9190612e9f565b925050819055508273ffffffffffffffffffffffffffffffffffffffff168473ffffffffffffffffffffffffffffffffffffffff167fddf252ad1be2c89b69c2b068fc378daa952ba7f163c4a11628f55a4df523b3ef8460405161161e9190612e42565b60405180910390a350505050565b61163582610863565b611646816116416111d7565b611d9a565b6116508383611bd0565b505050565b61165d6111d7565b73ffffffffffffffffffffffffffffffffffffffff168173ffffffffffffffffffffffffffffffffffffffff16146116ca576040517f08c379a00000000000000000000000000000000000000000000000000000000081526004016116c190612de2565b60405180910390fd5b6116d48282611e37565b5050565b6000611700836000018373ffffffffffffffffffffffffffffffffffffffff1660001b611f18565b905092915050565b611710610b11565b61174f576040517f08c379a000000000000000000000000000000000000000000000000000000000815260040161174690612bc2565b60405180910390fd5b6000600760006101000a81548160ff0219169083151502179055507f5db9ee0a495bf2e6ff9c91a7834c1ba4fdd244a5e8aa4e537bd38aeae4b073aa6117936111d7565b6040516117a09190612aef565b60405180910390a1565b600073ffffffffffffffffffffffffffffffffffffffff168273ffffffffffffffffffffffffffffffffffffffff16141561181a576040517f08c379a000000000000000000000000000000000000000000000000000000000815260040161181190612e02565b60405180910390fd5b61182660008383611d8a565b80600460008282546118389190612e9f565b9250508190555080600260008473ffffffffffffffffffffffffffffffffffffffff1673ffffffffffffffffffffffffffffffffffffffff168152602001908152602001600020600082825461188e9190612e9f565b925050819055508173ffffffffffffffffffffffffffffffffffffffff16600073ffffffffffffffffffffffffffffffffffffffff167fddf252ad1be2c89b69c2b068fc378daa952ba7f163c4a11628f55a4df523b3ef836040516118f39190612e42565b60405180910390a35050565b600073ffffffffffffffffffffffffffffffffffffffff168273ffffffffffffffffffffffffffffffffffffffff16141561196f576040517f08c379a000000000000000000000000000000000000000000000000000000000815260040161196690612d02565b60405180910390fd5b61197b82600083611d8a565b6000600260008473ffffffffffffffffffffffffffffffffffffffff1673ffffffffffffffffffffffffffffffffffffffff16815260200190815260200160002054905081811015611a02576040517f08c379a00000000000000000000000000000000000000000000000000000000081526004016119f990612be2565b60405180910390fd5b8181611a0e9190612f4f565b600260008573ffffffffffffffffffffffffffffffffffffffff1673ffffffffffffffffffffffffffffffffffffffff168152602001908152602001600020819055508160046000828254611a639190612f4f565b92505081905550600073ffffffffffffffffffffffffffffffffffffffff168373ffffffffffffffffffffffffffffffffffffffff167fddf252ad1be2c89b69c2b068fc378daa952ba7f163c4a11628f55a4df523b3ef84604051611ac89190612e42565b60405180910390a3505050565b611add610b11565b15611b1d576040517f08c379a0000000000000000000000000000000000000000000000000000000008152600401611b1490612c62565b60405180910390fd5b6001600760006101000a81548160ff0219169083151502179055507f62e78cea01bee320cd4e420270b5ea74000d11b0c9f74754ebdbfc544b05a258611b616111d7565b604051611b6e9190612aef565b60405180910390a1565b6000611b878360000183612096565b60001c905092915050565b6000611ba082600001612130565b9050919050565b611bb082610863565b611bc181611bbc6111d7565b611d9a565b611bcb8383611e37565b505050565b611bda8282610d86565b611cac57600160008084815260200190815260200160002060000160008373ffffffffffffffffffffffffffffffffffffffff1673ffffffffffffffffffffffffffffffffffffffff16815260200190815260200160002060006101000a81548160ff021916908315150217905550611c516111d7565b73ffffffffffffffffffffffffffffffffffffffff168173ffffffffffffffffffffffffffffffffffffffff16837f2f8788117e7eff1d82e926ec794901d17c78024a50270940304540a733656f0d60405160405180910390a45b5050565b6000611cbc8383612141565b611d15578260000182908060018154018082558091505060019003906000526020600020016000909190919091505582600001805490508360010160008481526020019081526020016000208190555060019050611d1a565b600090505b92915050565b60007f01ffc9a7000000000000000000000000000000000000000000000000000000007bffffffffffffffffffffffffffffffffffffffffffffffffffffffff1916827bffffffffffffffffffffffffffffffffffffffffffffffffffffffff1916149050919050565b611d95838383611100565b505050565b611da48282610d86565b611e3357611dc98173ffffffffffffffffffffffffffffffffffffffff166014612164565b611dd78360001c6020612164565b604051602001611de8929190612ab5565b6040516020818303038152906040526040517f08c379a0000000000000000000000000000000000000000000000000000000008152600401611e2a9190612b40565b60405180910390fd5b5050565b611e418282610d86565b15611f1457600080600084815260200190815260200160002060000160008373ffffffffffffffffffffffffffffffffffffffff1673ffffffffffffffffffffffffffffffffffffffff16815260200190815260200160002060006101000a81548160ff021916908315150217905550611eb96111d7565b73ffffffffffffffffffffffffffffffffffffffff168173ffffffffffffffffffffffffffffffffffffffff16837ff6391f5c32d9c69d2a47ea670b442974b53935d1edc7fd64eb21e047a839171b60405160405180910390a45b5050565b6000808360010160008481526020019081526020016000205490506000811461208a576000600182611f4a9190612f4f565b9050600060018660000180549050611f629190612f4f565b90506000866000018281548110611fa2577f4e487b7100000000000000000000000000000000000000000000000000000000600052603260045260246000fd5b9060005260206000200154905080876000018481548110611fec577f4e487b7100000000000000000000000000000000000000000000000000000000600052603260045260246000fd5b906000526020600020018190555083876001016000838152602001908152602001600020819055508660000180548061204e577f4e487b7100000000000000000000000000000000000000000000000000000000600052603160045260246000fd5b60019003818190600052602060002001600090559055866001016000878152602001908152602001600020600090556001945050505050612090565b60009150505b92915050565b6000818360000180549050116120e1576040517f08c379a00000000000000000000000000000000000000000000000000000000081526004016120d890612b62565b60405180910390fd5b82600001828154811061211d577f4e487b7100000000000000000000000000000000000000000000000000000000600052603260045260246000fd5b9060005260206000200154905092915050565b600081600001805490509050919050565b600080836001016000848152602001908152602001600020541415905092915050565b6060600060028360026121779190612ef5565b6121819190612e9f565b67ffffffffffffffff8111156121c0577f4e487b7100000000000000000000000000000000000000000000000000000000600052604160045260246000fd5b6040519080825280601f01601f1916602001820160405280156121f25781602001600182028036833780820191505090505b5090507f300000000000000000000000000000000000000000000000000000000000000081600081518110612250577f4e487b7100000000000000000000000000000000000000000000000000000000600052603260045260246000fd5b60200101907effffffffffffffffffffffffffffffffffffffffffffffffffffffffffffff1916908160001a9053507f7800000000000000000000000000000000000000000000000000000000000000816001815181106122da577f4e487b7100000000000000000000000000000000000000000000000000000000600052603260045260246000fd5b60200101907effffffffffffffffffffffffffffffffffffffffffffffffffffffffffffff1916908160001a9053506000600184600261231a9190612ef5565b6123249190612e9f565b90505b6001811115612410577f3031323334353637383961626364656600000000000000000000000000000000600f86166010811061238c577f4e487b7100000000000000000000000000000000000000000000000000000000600052603260045260246000fd5b1a60f81b8282815181106123c9577f4e487b7100000000000000000000000000000000000000000000000000000000600052603260045260246000fd5b60200101907effffffffffffffffffffffffffffffffffffffffffffffffffffffffffffff1916908160001a905350600485901c94508061240990613041565b9050612327565b5060008414612454576040517f08c379a000000000000000000000000000000000000000000000000000000000815260040161244b90612b82565b60405180910390fd5b8091505092915050565b60008135905061246d816137b9565b92915050565b600081359050612482816137d0565b92915050565b600081359050612497816137e7565b92915050565b6000813590506124ac816137fe565b92915050565b6000602082840312156124c457600080fd5b60006124d28482850161245e565b91505092915050565b600080604083850312156124ee57600080fd5b60006124fc8582860161245e565b925050602061250d8582860161245e565b9150509250929050565b60008060006060848603121561252c57600080fd5b600061253a8682870161245e565b935050602061254b8682870161245e565b925050604061255c8682870161249d565b9150509250925092565b6000806040838503121561257957600080fd5b60006125878582860161245e565b92505060206125988582860161249d565b9150509250929050565b6000602082840312156125b457600080fd5b60006125c284828501612473565b91505092915050565b600080604083850312156125de57600080fd5b60006125ec85828601612473565b92505060206125fd8582860161245e565b9150509250929050565b6000806040838503121561261a57600080fd5b600061262885828601612473565b92505060206126398582860161249d565b9150509250929050565b60006020828403121561265557600080fd5b600061266384828501612488565b91505092915050565b60006020828403121561267e57600080fd5b600061268c8482850161249d565b91505092915050565b61269e81612f83565b82525050565b6126ad81612f95565b82525050565b6126bc81612fa1565b82525050565b60006126cd82612e78565b6126d78185612e83565b93506126e781856020860161300e565b6126f0816130fb565b840191505092915050565b600061270682612e78565b6127108185612e94565b935061272081856020860161300e565b80840191505092915050565b6000612739602283612e83565b91506127448261310c565b604082019050919050565b600061275c602083612e83565b91506127678261315b565b602082019050919050565b600061277f602383612e83565b915061278a82613184565b604082019050919050565b60006127a2601483612e83565b91506127ad826131d3565b602082019050919050565b60006127c5602283612e83565b91506127d0826131fc565b604082019050919050565b60006127e8603983612e83565b91506127f38261324b565b604082019050919050565b600061280b602283612e83565b91506128168261329a565b604082019050919050565b600061282e602683612e83565b9150612839826132e9565b604082019050919050565b6000612851601083612e83565b915061285c82613338565b602082019050919050565b6000612874603983612e83565b915061287f82613361565b604082019050919050565b6000612897602883612e83565b91506128a2826133b0565b604082019050919050565b60006128ba603683612e83565b91506128c5826133ff565b604082019050919050565b60006128dd602483612e83565b91506128e88261344e565b604082019050919050565b6000612900602183612e83565b915061290b8261349d565b604082019050919050565b6000612923602583612e83565b915061292e826134ec565b604082019050919050565b6000612946601983612e83565b91506129518261353b565b602082019050919050565b6000612969603b83612e83565b915061297482613564565b604082019050919050565b600061298c602483612e83565b9150612997826135b3565b604082019050919050565b60006129af603783612e83565b91506129ba82613602565b604082019050919050565b60006129d2601783612e94565b91506129dd82613651565b601782019050919050565b60006129f5602583612e83565b9150612a008261367a565b604082019050919050565b6000612a18601183612e94565b9150612a23826136c9565b601182019050919050565b6000612a3b602f83612e83565b9150612a46826136f2565b604082019050919050565b6000612a5e601f83612e83565b9150612a6982613741565b602082019050919050565b6000612a81602a83612e83565b9150612a8c8261376a565b604082019050919050565b612aa081612ff7565b82525050565b612aaf81613001565b82525050565b6000612ac0826129c5565b9150612acc82856126fb565b9150612ad782612a0b565b9150612ae382846126fb565b91508190509392505050565b6000602082019050612b046000830184612695565b92915050565b6000602082019050612b1f60008301846126a4565b92915050565b6000602082019050612b3a60008301846126b3565b92915050565b60006020820190508181036000830152612b5a81846126c2565b905092915050565b60006020820190508181036000830152612b7b8161272c565b9050919050565b60006020820190508181036000830152612b9b8161274f565b9050919050565b60006020820190508181036000830152612bbb81612772565b9050919050565b60006020820190508181036000830152612bdb81612795565b9050919050565b60006020820190508181036000830152612bfb816127b8565b9050919050565b60006020820190508181036000830152612c1b816127db565b9050919050565b60006020820190508181036000830152612c3b816127fe565b9050919050565b60006020820190508181036000830152612c5b81612821565b9050919050565b60006020820190508181036000830152612c7b81612844565b9050919050565b60006020820190508181036000830152612c9b81612867565b9050919050565b60006020820190508181036000830152612cbb8161288a565b9050919050565b60006020820190508181036000830152612cdb816128ad565b9050919050565b60006020820190508181036000830152612cfb816128d0565b9050919050565b60006020820190508181036000830152612d1b816128f3565b9050919050565b60006020820190508181036000830152612d3b81612916565b9050919050565b60006020820190508181036000830152612d5b81612939565b9050919050565b60006020820190508181036000830152612d7b8161295c565b9050919050565b60006020820190508181036000830152612d9b8161297f565b9050919050565b60006020820190508181036000830152612dbb816129a2565b9050919050565b60006020820190508181036000830152612ddb816129e8565b9050919050565b60006020820190508181036000830152612dfb81612a2e565b9050919050565b60006020820190508181036000830152612e1b81612a51565b9050919050565b60006020820190508181036000830152612e3b81612a74565b9050919050565b6000602082019050612e576000830184612a97565b92915050565b6000602082019050612e726000830184612aa6565b92915050565b600081519050919050565b600082825260208201905092915050565b600081905092915050565b6000612eaa82612ff7565b9150612eb583612ff7565b9250827fffffffffffffffffffffffffffffffffffffffffffffffffffffffffffffffff03821115612eea57612ee961309d565b5b828201905092915050565b6000612f0082612ff7565b9150612f0b83612ff7565b9250817fffffffffffffffffffffffffffffffffffffffffffffffffffffffffffffffff0483118215151615612f4457612f4361309d565b5b828202905092915050565b6000612f5a82612ff7565b9150612f6583612ff7565b925082821015612f7857612f7761309d565b5b828203905092915050565b6000612f8e82612fd7565b9050919050565b60008115159050919050565b6000819050919050565b60007fffffffff0000000000000000000000000000000000000000000000000000000082169050919050565b600073ffffffffffffffffffffffffffffffffffffffff82169050919050565b6000819050919050565b600060ff82169050919050565b60005b8381101561302c578082015181840152602081019050613011565b8381111561303b576000848401525b50505050565b600061304c82612ff7565b915060008214156130605761305f61309d565b5b600182039050919050565b6000600282049050600182168061308357607f821691505b60208210811415613097576130966130cc565b5b50919050565b7f4e487b7100000000000000000000000000000000000000000000000000000000600052601160045260246000fd5b7f4e487b7100000000000000000000000000000000000000000000000000000000600052602260045260246000fd5b6000601f19601f8301169050919050565b7f456e756d657261626c655365743a20696e646578206f7574206f6620626f756e60008201527f6473000000000000000000000000000000000000000000000000000000000000602082015250565b7f537472696e67733a20686578206c656e67746820696e73756666696369656e74600082015250565b7f45524332303a207472616e7366657220746f20746865207a65726f206164647260008201527f6573730000000000000000000000000000000000000000000000000000000000602082015250565b7f5061757361626c653a206e6f7420706175736564000000000000000000000000600082015250565b7f45524332303a206275726e20616d6f756e7420657863656564732062616c616e60008201527f6365000000000000000000000000000000000000000000000000000000000000602082015250565b7f45524332305072657365744d696e7465725061757365723a206d75737420686160008201527f76652070617573657220726f6c6520746f20756e706175736500000000000000602082015250565b7f45524332303a20617070726f766520746f20746865207a65726f20616464726560008201527f7373000000000000000000000000000000000000000000000000000000000000602082015250565b7f45524332303a207472616e7366657220616d6f756e742065786365656473206260008201527f616c616e63650000000000000000000000000000000000000000000000000000602082015250565b7f5061757361626c653a2070617573656400000000000000000000000000000000600082015250565b7f45524332305072657365744d696e7465725061757365723a206d75737420686160008201527f76652063617020726f6c6520746f206368616e67652063617000000000000000602082015250565b7f45524332303a207472616e7366657220616d6f756e742065786365656473206160008201527f6c6c6f77616e6365000000000000000000000000000000000000000000000000602082015250565b7f45524332305072657365744d696e7465725061757365723a206d75737420686160008201527f7665206d696e74657220726f6c6520746f206d696e7400000000000000000000602082015250565b7f45524332303a206275726e20616d6f756e74206578636565647320616c6c6f7760008201527f616e636500000000000000000000000000000000000000000000000000000000602082015250565b7f45524332303a206275726e2066726f6d20746865207a65726f2061646472657360008201527f7300000000000000000000000000000000000000000000000000000000000000602082015250565b7f45524332303a207472616e736665722066726f6d20746865207a65726f20616460008201527f6472657373000000000000000000000000000000000000000000000000000000602082015250565b7f45524332304361707065643a2063617020657863656564656400000000000000600082015250565b7f45524332304361707065643a206e6577206361702063616e74206265206c657360008201527f73207468616e2063757272656e7420746f74616c20737570706c790000000000602082015250565b7f45524332303a20617070726f76652066726f6d20746865207a65726f2061646460008201527f7265737300000000000000000000000000000000000000000000000000000000602082015250565b7f45524332305072657365744d696e7465725061757365723a206d75737420686160008201527f76652070617573657220726f6c6520746f207061757365000000000000000000602082015250565b7f416363657373436f6e74726f6c3a206163636f756e7420000000000000000000600082015250565b7f45524332303a2064656372656173656420616c6c6f77616e63652062656c6f7760008201527f207a65726f000000000000000000000000000000000000000000000000000000602082015250565b7f206973206d697373696e6720726f6c6520000000000000000000000000000000600082015250565b7f416363657373436f6e74726f6c3a2063616e206f6e6c792072656e6f756e636560008201527f20726f6c657320666f722073656c660000000000000000000000000000000000602082015250565b7f45524332303a206d696e7420746f20746865207a65726f206164647265737300600082015250565b7f45524332305061757361626c653a20746f6b656e207472616e7366657220776860008201527f696c652070617573656400000000000000000000000000000000000000000000602082015250565b6137c281612f83565b81146137cd57600080fd5b50565b6137d981612fa1565b81146137e457600080fd5b50565b6137f081612fab565b81146137fb57600080fd5b50565b61380781612ff7565b811461381257600080fd5b5056fea26469706673582212205631f35476a0769b15cad0b93ed0c87ce1061e317f75399ae65f08a52f8ca67664736f6c63430008040033",
  "immutableReferences": {},
  "source": "// SPDX-License-Identifier: MIT\n\npragma solidity ^0.8.0;\n\nimport \"../../node_modules/@openzeppelin/contracts/token/ERC20/ERC20.sol\";\nimport \"../../node_modules/@openzeppelin/contracts/token/ERC20/extensions/ERC20Burnable.sol\";\nimport \"../../node_modules/@openzeppelin/contracts/token/ERC20/extensions/ERC20Pausable.sol\";\nimport \"../../node_modules/@openzeppelin/contracts/access/AccessControlEnumerable.sol\";\nimport \"../../node_modules/@openzeppelin/contracts/utils/Context.sol\";\n\n/**\n * @dev {ERC20} token, including:\n *\n *  - ability for holders to burn (destroy) their tokens\n *  - a minter role that allows for token minting (creation)\n *  - a pauser role that allows to stop all token transfers\n *\n * This contract uses {AccessControl} to lock permissioned functions using the\n * different roles - head to its documentation for details.\n *\n * The account that deploys the contract will be granted the minter and pauser\n * roles, as well as the default admin role, which will let it grant both minter\n * and pauser roles to other accounts.\n */\ncontract YouWhoToken is\n    Context,\n    AccessControlEnumerable,\n    ERC20Burnable,\n    ERC20Pausable\n{\n    bytes32 public constant MINTER_ROLE = keccak256(\"MINTER_ROLE\");\n    bytes32 public constant PAUSER_ROLE = keccak256(\"PAUSER_ROLE\");\n    bytes32 public constant CAP_ROLE = keccak256(\"CAP_ROLE\");\n    uint256 private _cap;\n\n    /**\n     * @dev Grants `DEFAULT_ADMIN_ROLE`, `MINTER_ROLE` and `PAUSER_ROLE` to the\n     * account that deploys the contract.\n     *\n     * See {ERC20-constructor}.\n     */\n    // constructor(string memory name, string memory symbol, uint256 cap_, address _1 ) ERC20(name, symbol) {\n    constructor(address _1) ERC20(\"YouWho\", \"UHU\") {\n        _mint(_msgSender(), 13371337 * (10**uint256(decimals())));\n        _mint(_1, 1337133 * (10**uint256(decimals())));\n        // _mint(_2, 10000);\n        // _mint(_3, 10000);\n        // _mint(_4, 10000);\n        _setupRole(DEFAULT_ADMIN_ROLE, _msgSender());\n        _setupRole(MINTER_ROLE, _msgSender());\n        _setupRole(PAUSER_ROLE, _msgSender());\n        _setupRole(CAP_ROLE, _msgSender());\n        // require(cap_ > 0, \"ERC20Capped: cap is 0\");\n        _cap = 133713370 * (10**uint256(decimals()));\n        // _cap = cap_;\n    }\n\n    function cap() public view virtual returns (uint256) {\n        return _cap;\n    }\n\n    function changeCap(uint256 newCap) external {\n        require(hasRole(CAP_ROLE, _msgSender()),\"ERC20PresetMinterPauser: must have cap role to change cap\");\n        require(ERC20.totalSupply() <= newCap,\"ERC20Capped: new cap cant be less than current total supply\");        \n        _cap = newCap;\n    }\n\n    /**\n     * @dev Creates `amount` new tokens for `to`.\n     *\n     * See {ERC20-_mint}.\n     *\n     * Requirements:\n     *\n     * - the caller must have the `MINTER_ROLE`.\n     */\n    function mint(address to, uint256 amount) public virtual {\n        require(hasRole(MINTER_ROLE, _msgSender()),\"ERC20PresetMinterPauser: must have minter role to mint\");\n        require(ERC20.totalSupply() + amount <= cap(),\"ERC20Capped: cap exceeded\");\n        _mint(to, amount);\n    }\n\n    /**\n     * @dev Pauses all token transfers.\n     *\n     * See {ERC20Pausable} and {Pausable-_pause}.\n     *\n     * Requirements:\n     *\n     * - the caller must have the `PAUSER_ROLE`.\n     */\n    function pause() public virtual {\n        require(hasRole(PAUSER_ROLE, _msgSender()),\"ERC20PresetMinterPauser: must have pauser role to pause\");\n        _pause();\n    }\n\n    /**\n     * @dev Unpauses all token transfers.\n     *\n     * See {ERC20Pausable} and {Pausable-_unpause}.\n     *\n     * Requirements:\n     *\n     * - the caller must have the `PAUSER_ROLE`.\n     */\n    function unpause() public virtual {\n        require(hasRole(PAUSER_ROLE, _msgSender()),\"ERC20PresetMinterPauser: must have pauser role to unpause\");\n        _unpause();\n    }\n\n    function _beforeTokenTransfer(address from,address to,uint256 amount) internal virtual override(ERC20, ERC20Pausable) {\n        super._beforeTokenTransfer(from, to, amount);\n    }\n}\n",
  "sourcePath": "/home/phyx1u5/Moralis/yh2/youwho/src/contracts/YouWhoToken.sol",
  "compiler": {
    "name": "solc",
    "version": "0.8.4+commit.c7e474f2.Emscripten.clang"
  },
  "schemaVersion": "3.3.4",
  "updatedAt": "2021-06-09T05:45:13.461Z",
  "networkType": "ethereum",
  "devdoc": {
    "details": "{ERC20} token, including:  - ability for holders to burn (destroy) their tokens  - a minter role that allows for token minting (creation)  - a pauser role that allows to stop all token transfers This contract uses {AccessControl} to lock permissioned functions using the different roles - head to its documentation for details. The account that deploys the contract will be granted the minter and pauser roles, as well as the default admin role, which will let it grant both minter and pauser roles to other accounts.",
    "kind": "dev",
    "methods": {
      "allowance(address,address)": {
        "details": "See {IERC20-allowance}."
      },
      "approve(address,uint256)": {
        "details": "See {IERC20-approve}. Requirements: - `spender` cannot be the zero address."
      },
      "balanceOf(address)": {
        "details": "See {IERC20-balanceOf}."
      },
      "burn(uint256)": {
        "details": "Destroys `amount` tokens from the caller. See {ERC20-_burn}."
      },
      "burnFrom(address,uint256)": {
        "details": "Destroys `amount` tokens from `account`, deducting from the caller's allowance. See {ERC20-_burn} and {ERC20-allowance}. Requirements: - the caller must have allowance for ``accounts``'s tokens of at least `amount`."
      },
      "constructor": {
        "details": "Grants `DEFAULT_ADMIN_ROLE`, `MINTER_ROLE` and `PAUSER_ROLE` to the account that deploys the contract. See {ERC20-constructor}."
      },
      "decimals()": {
        "details": "Returns the number of decimals used to get its user representation. For example, if `decimals` equals `2`, a balance of `505` tokens should be displayed to a user as `5,05` (`505 / 10 ** 2`). Tokens usually opt for a value of 18, imitating the relationship between Ether and Wei. This is the value {ERC20} uses, unless this function is overridden; NOTE: This information is only used for _display_ purposes: it in no way affects any of the arithmetic of the contract, including {IERC20-balanceOf} and {IERC20-transfer}."
      },
      "decreaseAllowance(address,uint256)": {
        "details": "Atomically decreases the allowance granted to `spender` by the caller. This is an alternative to {approve} that can be used as a mitigation for problems described in {IERC20-approve}. Emits an {Approval} event indicating the updated allowance. Requirements: - `spender` cannot be the zero address. - `spender` must have allowance for the caller of at least `subtractedValue`."
      },
      "getRoleAdmin(bytes32)": {
        "details": "Returns the admin role that controls `role`. See {grantRole} and {revokeRole}. To change a role's admin, use {_setRoleAdmin}."
      },
      "getRoleMember(bytes32,uint256)": {
        "details": "Returns one of the accounts that have `role`. `index` must be a value between 0 and {getRoleMemberCount}, non-inclusive. Role bearers are not sorted in any particular way, and their ordering may change at any point. WARNING: When using {getRoleMember} and {getRoleMemberCount}, make sure you perform all queries on the same block. See the following https://forum.openzeppelin.com/t/iterating-over-elements-on-enumerableset-in-openzeppelin-contracts/2296[forum post] for more information."
      },
      "getRoleMemberCount(bytes32)": {
        "details": "Returns the number of accounts that have `role`. Can be used together with {getRoleMember} to enumerate all bearers of a role."
      },
      "grantRole(bytes32,address)": {
        "details": "Overload {grantRole} to track enumerable memberships"
      },
      "hasRole(bytes32,address)": {
        "details": "Returns `true` if `account` has been granted `role`."
      },
      "increaseAllowance(address,uint256)": {
        "details": "Atomically increases the allowance granted to `spender` by the caller. This is an alternative to {approve} that can be used as a mitigation for problems described in {IERC20-approve}. Emits an {Approval} event indicating the updated allowance. Requirements: - `spender` cannot be the zero address."
      },
      "mint(address,uint256)": {
        "details": "Creates `amount` new tokens for `to`. See {ERC20-_mint}. Requirements: - the caller must have the `MINTER_ROLE`."
      },
      "name()": {
        "details": "Returns the name of the token."
      },
      "pause()": {
        "details": "Pauses all token transfers. See {ERC20Pausable} and {Pausable-_pause}. Requirements: - the caller must have the `PAUSER_ROLE`."
      },
      "paused()": {
        "details": "Returns true if the contract is paused, and false otherwise."
      },
      "renounceRole(bytes32,address)": {
        "details": "Overload {renounceRole} to track enumerable memberships"
      },
      "revokeRole(bytes32,address)": {
        "details": "Overload {revokeRole} to track enumerable memberships"
      },
      "supportsInterface(bytes4)": {
        "details": "See {IERC165-supportsInterface}."
      },
      "symbol()": {
        "details": "Returns the symbol of the token, usually a shorter version of the name."
      },
      "totalSupply()": {
        "details": "See {IERC20-totalSupply}."
      },
      "transfer(address,uint256)": {
        "details": "See {IERC20-transfer}. Requirements: - `recipient` cannot be the zero address. - the caller must have a balance of at least `amount`."
      },
      "transferFrom(address,address,uint256)": {
        "details": "See {IERC20-transferFrom}. Emits an {Approval} event indicating the updated allowance. This is not required by the EIP. See the note at the beginning of {ERC20}. Requirements: - `sender` and `recipient` cannot be the zero address. - `sender` must have a balance of at least `amount`. - the caller must have allowance for ``sender``'s tokens of at least `amount`."
      },
      "unpause()": {
        "details": "Unpauses all token transfers. See {ERC20Pausable} and {Pausable-_unpause}. Requirements: - the caller must have the `PAUSER_ROLE`."
      }
    },
    "version": 1
  },
  "userdoc": {
    "kind": "user",
    "methods": {},
    "version": 1
  }
}