{
  "contractName": "YouWho",
  "abi": [
    {
      "inputs": [
        {
          "internalType": "address",
          "name": "_1",
          "type": "address"
        },
        {
          "internalType": "address",
          "name": "_2",
          "type": "address"
        },
        {
          "internalType": "address",
          "name": "_3",
          "type": "address"
        },
        {
          "internalType": "address",
          "name": "_4",
          "type": "address"
        },
        {
          "internalType": "address",
          "name": "_5",
          "type": "address"
        }
      ],
      "stateMutability": "nonpayable",
      "type": "constructor"
    },
    {
      "anonymous": false,
      "inputs": [
        {
          "indexed": true,
          "internalType": "address",
          "name": "owner",
          "type": "address"
        },
        {
          "indexed": true,
          "internalType": "address",
          "name": "spender",
          "type": "address"
        },
        {
          "indexed": false,
          "internalType": "uint256",
          "name": "value",
          "type": "uint256"
        }
      ],
      "name": "Approval",
      "type": "event"
    },
    {
      "anonymous": false,
      "inputs": [
        {
          "indexed": false,
          "internalType": "address",
          "name": "account",
          "type": "address"
        }
      ],
      "name": "Paused",
      "type": "event"
    },
    {
      "anonymous": false,
      "inputs": [
        {
          "indexed": true,
          "internalType": "bytes32",
          "name": "role",
          "type": "bytes32"
        },
        {
          "indexed": true,
          "internalType": "bytes32",
          "name": "previousAdminRole",
          "type": "bytes32"
        },
        {
          "indexed": true,
          "internalType": "bytes32",
          "name": "newAdminRole",
          "type": "bytes32"
        }
      ],
      "name": "RoleAdminChanged",
      "type": "event"
    },
    {
      "anonymous": false,
      "inputs": [
        {
          "indexed": true,
          "internalType": "bytes32",
          "name": "role",
          "type": "bytes32"
        },
        {
          "indexed": true,
          "internalType": "address",
          "name": "account",
          "type": "address"
        },
        {
          "indexed": true,
          "internalType": "address",
          "name": "sender",
          "type": "address"
        }
      ],
      "name": "RoleGranted",
      "type": "event"
    },
    {
      "anonymous": false,
      "inputs": [
        {
          "indexed": true,
          "internalType": "bytes32",
          "name": "role",
          "type": "bytes32"
        },
        {
          "indexed": true,
          "internalType": "address",
          "name": "account",
          "type": "address"
        },
        {
          "indexed": true,
          "internalType": "address",
          "name": "sender",
          "type": "address"
        }
      ],
      "name": "RoleRevoked",
      "type": "event"
    },
    {
      "anonymous": false,
      "inputs": [
        {
          "indexed": true,
          "internalType": "address",
          "name": "from",
          "type": "address"
        },
        {
          "indexed": true,
          "internalType": "address",
          "name": "to",
          "type": "address"
        },
        {
          "indexed": false,
          "internalType": "uint256",
          "name": "value",
          "type": "uint256"
        }
      ],
      "name": "Transfer",
      "type": "event"
    },
    {
      "anonymous": false,
      "inputs": [
        {
          "indexed": false,
          "internalType": "address",
          "name": "account",
          "type": "address"
        }
      ],
      "name": "Unpaused",
      "type": "event"
    },
    {
      "inputs": [],
      "name": "CAP_ROLE",
      "outputs": [
        {
          "internalType": "bytes32",
          "name": "",
          "type": "bytes32"
        }
      ],
      "stateMutability": "view",
      "type": "function",
      "constant": true
    },
    {
      "inputs": [],
      "name": "DEFAULT_ADMIN_ROLE",
      "outputs": [
        {
          "internalType": "bytes32",
          "name": "",
          "type": "bytes32"
        }
      ],
      "stateMutability": "view",
      "type": "function",
      "constant": true
    },
    {
      "inputs": [],
      "name": "MINTER_ROLE",
      "outputs": [
        {
          "internalType": "bytes32",
          "name": "",
          "type": "bytes32"
        }
      ],
      "stateMutability": "view",
      "type": "function",
      "constant": true
    },
    {
      "inputs": [],
      "name": "PAUSER_ROLE",
      "outputs": [
        {
          "internalType": "bytes32",
          "name": "",
          "type": "bytes32"
        }
      ],
      "stateMutability": "view",
      "type": "function",
      "constant": true
    },
    {
      "inputs": [
        {
          "internalType": "address",
          "name": "owner",
          "type": "address"
        },
        {
          "internalType": "address",
          "name": "spender",
          "type": "address"
        }
      ],
      "name": "allowance",
      "outputs": [
        {
          "internalType": "uint256",
          "name": "",
          "type": "uint256"
        }
      ],
      "stateMutability": "view",
      "type": "function",
      "constant": true
    },
    {
      "inputs": [
        {
          "internalType": "address",
          "name": "spender",
          "type": "address"
        },
        {
          "internalType": "uint256",
          "name": "amount",
          "type": "uint256"
        }
      ],
      "name": "approve",
      "outputs": [
        {
          "internalType": "bool",
          "name": "",
          "type": "bool"
        }
      ],
      "stateMutability": "nonpayable",
      "type": "function"
    },
    {
      "inputs": [
        {
          "internalType": "address",
          "name": "account",
          "type": "address"
        }
      ],
      "name": "balanceOf",
      "outputs": [
        {
          "internalType": "uint256",
          "name": "",
          "type": "uint256"
        }
      ],
      "stateMutability": "view",
      "type": "function",
      "constant": true
    },
    {
      "inputs": [
        {
          "internalType": "uint256",
          "name": "amount",
          "type": "uint256"
        }
      ],
      "name": "burn",
      "outputs": [],
      "stateMutability": "nonpayable",
      "type": "function"
    },
    {
      "inputs": [
        {
          "internalType": "address",
          "name": "account",
          "type": "address"
        },
        {
          "internalType": "uint256",
          "name": "amount",
          "type": "uint256"
        }
      ],
      "name": "burnFrom",
      "outputs": [],
      "stateMutability": "nonpayable",
      "type": "function"
    },
    {
      "inputs": [],
      "name": "decimals",
      "outputs": [
        {
          "internalType": "uint8",
          "name": "",
          "type": "uint8"
        }
      ],
      "stateMutability": "view",
      "type": "function",
      "constant": true
    },
    {
      "inputs": [
        {
          "internalType": "address",
          "name": "spender",
          "type": "address"
        },
        {
          "internalType": "uint256",
          "name": "subtractedValue",
          "type": "uint256"
        }
      ],
      "name": "decreaseAllowance",
      "outputs": [
        {
          "internalType": "bool",
          "name": "",
          "type": "bool"
        }
      ],
      "stateMutability": "nonpayable",
      "type": "function"
    },
    {
      "inputs": [
        {
          "internalType": "bytes32",
          "name": "role",
          "type": "bytes32"
        }
      ],
      "name": "getRoleAdmin",
      "outputs": [
        {
          "internalType": "bytes32",
          "name": "",
          "type": "bytes32"
        }
      ],
      "stateMutability": "view",
      "type": "function",
      "constant": true
    },
    {
      "inputs": [
        {
          "internalType": "bytes32",
          "name": "role",
          "type": "bytes32"
        },
        {
          "internalType": "uint256",
          "name": "index",
          "type": "uint256"
        }
      ],
      "name": "getRoleMember",
      "outputs": [
        {
          "internalType": "address",
          "name": "",
          "type": "address"
        }
      ],
      "stateMutability": "view",
      "type": "function",
      "constant": true
    },
    {
      "inputs": [
        {
          "internalType": "bytes32",
          "name": "role",
          "type": "bytes32"
        }
      ],
      "name": "getRoleMemberCount",
      "outputs": [
        {
          "internalType": "uint256",
          "name": "",
          "type": "uint256"
        }
      ],
      "stateMutability": "view",
      "type": "function",
      "constant": true
    },
    {
      "inputs": [
        {
          "internalType": "bytes32",
          "name": "role",
          "type": "bytes32"
        },
        {
          "internalType": "address",
          "name": "account",
          "type": "address"
        }
      ],
      "name": "grantRole",
      "outputs": [],
      "stateMutability": "nonpayable",
      "type": "function"
    },
    {
      "inputs": [
        {
          "internalType": "bytes32",
          "name": "role",
          "type": "bytes32"
        },
        {
          "internalType": "address",
          "name": "account",
          "type": "address"
        }
      ],
      "name": "hasRole",
      "outputs": [
        {
          "internalType": "bool",
          "name": "",
          "type": "bool"
        }
      ],
      "stateMutability": "view",
      "type": "function",
      "constant": true
    },
    {
      "inputs": [
        {
          "internalType": "address",
          "name": "spender",
          "type": "address"
        },
        {
          "internalType": "uint256",
          "name": "addedValue",
          "type": "uint256"
        }
      ],
      "name": "increaseAllowance",
      "outputs": [
        {
          "internalType": "bool",
          "name": "",
          "type": "bool"
        }
      ],
      "stateMutability": "nonpayable",
      "type": "function"
    },
    {
      "inputs": [],
      "name": "name",
      "outputs": [
        {
          "internalType": "string",
          "name": "",
          "type": "string"
        }
      ],
      "stateMutability": "view",
      "type": "function",
      "constant": true
    },
    {
      "inputs": [],
      "name": "paused",
      "outputs": [
        {
          "internalType": "bool",
          "name": "",
          "type": "bool"
        }
      ],
      "stateMutability": "view",
      "type": "function",
      "constant": true
    },
    {
      "inputs": [
        {
          "internalType": "bytes32",
          "name": "role",
          "type": "bytes32"
        },
        {
          "internalType": "address",
          "name": "account",
          "type": "address"
        }
      ],
      "name": "renounceRole",
      "outputs": [],
      "stateMutability": "nonpayable",
      "type": "function"
    },
    {
      "inputs": [
        {
          "internalType": "bytes32",
          "name": "role",
          "type": "bytes32"
        },
        {
          "internalType": "address",
          "name": "account",
          "type": "address"
        }
      ],
      "name": "revokeRole",
      "outputs": [],
      "stateMutability": "nonpayable",
      "type": "function"
    },
    {
      "inputs": [
        {
          "internalType": "bytes4",
          "name": "interfaceId",
          "type": "bytes4"
        }
      ],
      "name": "supportsInterface",
      "outputs": [
        {
          "internalType": "bool",
          "name": "",
          "type": "bool"
        }
      ],
      "stateMutability": "view",
      "type": "function",
      "constant": true
    },
    {
      "inputs": [],
      "name": "symbol",
      "outputs": [
        {
          "internalType": "string",
          "name": "",
          "type": "string"
        }
      ],
      "stateMutability": "view",
      "type": "function",
      "constant": true
    },
    {
      "inputs": [],
      "name": "totalSupply",
      "outputs": [
        {
          "internalType": "uint256",
          "name": "",
          "type": "uint256"
        }
      ],
      "stateMutability": "view",
      "type": "function",
      "constant": true
    },
    {
      "inputs": [
        {
          "internalType": "address",
          "name": "recipient",
          "type": "address"
        },
        {
          "internalType": "uint256",
          "name": "amount",
          "type": "uint256"
        }
      ],
      "name": "transfer",
      "outputs": [
        {
          "internalType": "bool",
          "name": "",
          "type": "bool"
        }
      ],
      "stateMutability": "nonpayable",
      "type": "function"
    },
    {
      "inputs": [
        {
          "internalType": "address",
          "name": "sender",
          "type": "address"
        },
        {
          "internalType": "address",
          "name": "recipient",
          "type": "address"
        },
        {
          "internalType": "uint256",
          "name": "amount",
          "type": "uint256"
        }
      ],
      "name": "transferFrom",
      "outputs": [
        {
          "internalType": "bool",
          "name": "",
          "type": "bool"
        }
      ],
      "stateMutability": "nonpayable",
      "type": "function"
    },
    {
      "inputs": [],
      "name": "cap",
      "outputs": [
        {
          "internalType": "uint256",
          "name": "",
          "type": "uint256"
        }
      ],
      "stateMutability": "view",
      "type": "function",
      "constant": true
    },
    {
      "inputs": [
        {
          "internalType": "uint256",
          "name": "newCap",
          "type": "uint256"
        }
      ],
      "name": "changeCap",
      "outputs": [],
      "stateMutability": "nonpayable",
      "type": "function"
    },
    {
      "inputs": [
        {
          "internalType": "address",
          "name": "to",
          "type": "address"
        },
        {
          "internalType": "uint256",
          "name": "amount",
          "type": "uint256"
        }
      ],
      "name": "mint",
      "outputs": [],
      "stateMutability": "nonpayable",
      "type": "function"
    },
    {
      "inputs": [],
      "name": "pause",
      "outputs": [],
      "stateMutability": "nonpayable",
      "type": "function"
    },
    {
      "inputs": [],
      "name": "unpause",
      "outputs": [],
      "stateMutability": "nonpayable",
      "type": "function"
    }
  ],
  "bytecode": "0x60806040523480156200001157600080fd5b50604051620045d8380380620045d8833981810160405281019062000037919062000845565b6040518060400160405280600681526020017f596f7557686f00000000000000000000000000000000000000000000000000008152506040518060400160405280600381526020017f55485500000000000000000000000000000000000000000000000000000000008152508160059080519060200190620000bb9291906200077e565b508060069080519060200190620000d49291906200077e565b5050506000600760006101000a81548160ff02191690831515021790555062000102620002d060201b60201c565b60ff16600a62000113919062000a8e565b6307f819a962000124919062000bcb565b6008819055506200015a856064600f60085462000142919062000bcb565b6200014e9190620009fb565b620002d960201b60201c565b6200018a846064600b60085462000172919062000bcb565b6200017e9190620009fb565b620002d960201b60201c565b620001ba836064600b600854620001a2919062000bcb565b620001ae9190620009fb565b620002d960201b60201c565b620001ea826064600b600854620001d2919062000bcb565b620001de9190620009fb565b620002d960201b60201c565b6200021a816064600b60085462000202919062000bcb565b6200020e9190620009fb565b620002d960201b60201c565b6200022f6000801b866200043f60201b60201c565b620002617f9f2df0fed2c77648de5860a4cc508cd0818c85b8b8a1ab4ceeef8d981c8956a6866200043f60201b60201c565b620002937f65d7a28e3265b37a6474929f336521b332c1681b933f6cb9f3376673440d862a866200043f60201b60201c565b620002c57f2865fb6486f1182ff260a98800c07add86e3bf298ef0eac98fcd12371e94abc9866200043f60201b60201c565b505050505062000dd1565b60006012905090565b600073ffffffffffffffffffffffffffffffffffffffff168273ffffffffffffffffffffffffffffffffffffffff1614156200034c576040517f08c379a000000000000000000000000000000000000000000000000000000000815260040162000343906200092c565b60405180910390fd5b62000360600083836200048760201b60201c565b80600460008282546200037491906200099e565b9250508190555080600260008473ffffffffffffffffffffffffffffffffffffffff1673ffffffffffffffffffffffffffffffffffffffff1681526020019081526020016000206000828254620003cc91906200099e565b925050819055508173ffffffffffffffffffffffffffffffffffffffff16600073ffffffffffffffffffffffffffffffffffffffff167fddf252ad1be2c89b69c2b068fc378daa952ba7f163c4a11628f55a4df523b3ef8360405162000433919062000970565b60405180910390a35050565b620004568282620004a460201b620010c21760201c565b620004828160016000858152602001908152602001600020620004ba60201b620010d01790919060201c565b505050565b6200049f838383620004f260201b620011001760201c565b505050565b620004b682826200056260201b60201c565b5050565b6000620004ea836000018373ffffffffffffffffffffffffffffffffffffffff1660001b6200065360201b60201c565b905092915050565b6200050a838383620006cd60201b620011581760201c565b6200051a620006d260201b60201c565b156200055d576040517f08c379a000000000000000000000000000000000000000000000000000000000815260040162000554906200094e565b60405180910390fd5b505050565b620005748282620006e960201b60201c565b6200064f57600160008084815260200190815260200160002060000160008373ffffffffffffffffffffffffffffffffffffffff1673ffffffffffffffffffffffffffffffffffffffff16815260200190815260200160002060006101000a81548160ff021916908315150217905550620005f46200075360201b60201c565b73ffffffffffffffffffffffffffffffffffffffff168173ffffffffffffffffffffffffffffffffffffffff16837f2f8788117e7eff1d82e926ec794901d17c78024a50270940304540a733656f0d60405160405180910390a45b5050565b60006200066783836200075b60201b60201c565b620006c2578260000182908060018154018082558091505060019003906000526020600020016000909190919091505582600001805490508360010160008481526020019081526020016000208190555060019050620006c7565b600090505b92915050565b505050565b6000600760009054906101000a900460ff16905090565b600080600084815260200190815260200160002060000160008373ffffffffffffffffffffffffffffffffffffffff1673ffffffffffffffffffffffffffffffffffffffff16815260200190815260200160002060009054906101000a900460ff16905092915050565b600033905090565b600080836001016000848152602001908152602001600020541415905092915050565b8280546200078c9062000c6a565b90600052602060002090601f016020900481019282620007b05760008555620007fc565b82601f10620007cb57805160ff1916838001178555620007fc565b82800160010185558215620007fc579182015b82811115620007fb578251825591602001919060010190620007de565b5b5090506200080b91906200080f565b5090565b5b808211156200082a57600081600090555060010162000810565b5090565b6000815190506200083f8162000db7565b92915050565b600080600080600060a0868803121562000864576200086362000d2d565b5b600062000874888289016200082e565b955050602062000887888289016200082e565b94505060406200089a888289016200082e565b9350506060620008ad888289016200082e565b9250506080620008c0888289016200082e565b9150509295509295909350565b6000620008dc601f836200098d565b9150620008e98262000d3f565b602082019050919050565b600062000903602a836200098d565b9150620009108262000d68565b604082019050919050565b620009268162000c60565b82525050565b600060208201905081810360008301526200094781620008cd565b9050919050565b600060208201905081810360008301526200096981620008f4565b9050919050565b60006020820190506200098760008301846200091b565b92915050565b600082825260208201905092915050565b6000620009ab8262000c60565b9150620009b88362000c60565b9250827fffffffffffffffffffffffffffffffffffffffffffffffffffffffffffffffff03821115620009f057620009ef62000ca0565b5b828201905092915050565b600062000a088262000c60565b915062000a158362000c60565b92508262000a285762000a2762000ccf565b5b828204905092915050565b6000808291508390505b600185111562000a855780860481111562000a5d5762000a5c62000ca0565b5b600185161562000a6d5780820291505b808102905062000a7d8562000d32565b945062000a3d565b94509492505050565b600062000a9b8262000c60565b915062000aa88362000c60565b925062000ad77fffffffffffffffffffffffffffffffffffffffffffffffffffffffffffffffff848462000adf565b905092915050565b60008262000af1576001905062000bc4565b8162000b01576000905062000bc4565b816001811462000b1a576002811462000b255762000b5b565b600191505062000bc4565b60ff84111562000b3a5762000b3962000ca0565b5b8360020a91508482111562000b545762000b5362000ca0565b5b5062000bc4565b5060208310610133831016604e8410600b841016171562000b955782820a90508381111562000b8f5762000b8e62000ca0565b5b62000bc4565b62000ba4848484600162000a33565b9250905081840481111562000bbe5762000bbd62000ca0565b5b81810290505b9392505050565b600062000bd88262000c60565b915062000be58362000c60565b9250817fffffffffffffffffffffffffffffffffffffffffffffffffffffffffffffffff048311821515161562000c215762000c2062000ca0565b5b828202905092915050565b600062000c398262000c40565b9050919050565b600073ffffffffffffffffffffffffffffffffffffffff82169050919050565b6000819050919050565b6000600282049050600182168062000c8357607f821691505b6020821081141562000c9a5762000c9962000cfe565b5b50919050565b7f4e487b7100000000000000000000000000000000000000000000000000000000600052601160045260246000fd5b7f4e487b7100000000000000000000000000000000000000000000000000000000600052601260045260246000fd5b7f4e487b7100000000000000000000000000000000000000000000000000000000600052602260045260246000fd5b600080fd5b60008160011c9050919050565b7f45524332303a206d696e7420746f20746865207a65726f206164647265737300600082015250565b7f45524332305061757361626c653a20746f6b656e207472616e7366657220776860008201527f696c652070617573656400000000000000000000000000000000000000000000602082015250565b62000dc28162000c2c565b811462000dce57600080fd5b50565b6137f78062000de16000396000f3fe608060405234801561001057600080fd5b50600436106101e55760003560e01c806370a082311161010f578063a217fddf116100a2578063d539139311610071578063d5391393146105a6578063d547741f146105c4578063dd62ed3e146105e0578063e63ab1e914610610576101e5565b8063a217fddf146104f8578063a457c2d714610516578063a9059cbb14610546578063ca15c87314610576576101e5565b80638456cb59116100de5780638456cb59146104705780639010d07c1461047a57806391d14854146104aa57806395d89b41146104da576101e5565b806370a08231146103ea57806379cc67901461041a578063800edb9d1461043657806382c95f9c14610452576101e5565b8063313ce567116101875780633f4ba83a116101565780633f4ba83a1461038a57806340c10f191461039457806342966c68146103b05780635c975abb146103cc576101e5565b8063313ce56714610302578063355274ea1461032057806336568abe1461033e578063395093511461035a576101e5565b806318160ddd116101c357806318160ddd1461026857806323b872dd14610286578063248a9ca3146102b65780632f2ff15d146102e6576101e5565b806301ffc9a7146101ea57806306fdde031461021a578063095ea7b314610238575b600080fd5b61020460048036038101906101ff9190612509565b61062e565b60405161021191906129d8565b60405180910390f35b6102226106a8565b60405161022f9190612a0e565b60405180910390f35b610252600480360381019061024d919061241c565b61073a565b60405161025f91906129d8565b60405180910390f35b610270610758565b60405161027d9190612d10565b60405180910390f35b6102a0600480360381019061029b91906123c9565b610762565b6040516102ad91906129d8565b60405180910390f35b6102d060048036038101906102cb919061245c565b610863565b6040516102dd91906129f3565b60405180910390f35b61030060048036038101906102fb9190612489565b610882565b005b61030a6108b6565b6040516103179190612d2b565b60405180910390f35b6103286108bf565b6040516103359190612d10565b60405180910390f35b61035860048036038101906103539190612489565b6108c9565b005b610374600480360381019061036f919061241c565b6108fd565b60405161038191906129d8565b60405180910390f35b6103926109a9565b005b6103ae60048036038101906103a9919061241c565b610a23565b005b6103ca60048036038101906103c59190612536565b610afd565b005b6103d4610b11565b6040516103e191906129d8565b60405180910390f35b61040460048036038101906103ff919061235c565b610b28565b6040516104119190612d10565b60405180910390f35b610434600480360381019061042f919061241c565b610b71565b005b610450600480360381019061044b9190612536565b610bf5565b005b61045a610cb9565b60405161046791906129f3565b60405180910390f35b610478610cdd565b005b610494600480360381019061048f91906124c9565b610d57565b6040516104a191906129bd565b60405180910390f35b6104c460048036038101906104bf9190612489565b610d86565b6040516104d191906129d8565b60405180910390f35b6104e2610df0565b6040516104ef9190612a0e565b60405180910390f35b610500610e82565b60405161050d91906129f3565b60405180910390f35b610530600480360381019061052b919061241c565b610e89565b60405161053d91906129d8565b60405180910390f35b610560600480360381019061055b919061241c565b610f7d565b60405161056d91906129d8565b60405180910390f35b610590600480360381019061058b919061245c565b610f9b565b60405161059d9190612d10565b60405180910390f35b6105ae610fbf565b6040516105bb91906129f3565b60405180910390f35b6105de60048036038101906105d99190612489565b610fe3565b005b6105fa60048036038101906105f59190612389565b611017565b6040516106079190612d10565b60405180910390f35b61061861109e565b60405161062591906129f3565b60405180910390f35b60007f5a05180f000000000000000000000000000000000000000000000000000000007bffffffffffffffffffffffffffffffffffffffffffffffffffffffff1916827bffffffffffffffffffffffffffffffffffffffffffffffffffffffff191614806106a157506106a08261115d565b5b9050919050565b6060600580546106b790612f39565b80601f01602080910402602001604051908101604052809291908181526020018280546106e390612f39565b80156107305780601f1061070557610100808354040283529160200191610730565b820191906000526020600020905b81548152906001019060200180831161071357829003601f168201915b5050505050905090565b600061074e6107476111d7565b84846111df565b6001905092915050565b6000600454905090565b600061076f8484846113aa565b6000600360008673ffffffffffffffffffffffffffffffffffffffff1673ffffffffffffffffffffffffffffffffffffffff16815260200190815260200160002060006107ba6111d7565b73ffffffffffffffffffffffffffffffffffffffff1673ffffffffffffffffffffffffffffffffffffffff1681526020019081526020016000205490508281101561083a576040517f08c379a000000000000000000000000000000000000000000000000000000000815260040161083190612bd0565b60405180910390fd5b610857856108466111d7565b85846108529190612e1d565b6111df565b60019150509392505050565b6000806000838152602001908152602001600020600101549050919050565b61088c828261162c565b6108b181600160008581526020019081526020016000206110d090919063ffffffff16565b505050565b60006012905090565b6000600854905090565b6108d38282611655565b6108f881600160008581526020019081526020016000206116d890919063ffffffff16565b505050565b600061099f61090a6111d7565b8484600360006109186111d7565b73ffffffffffffffffffffffffffffffffffffffff1673ffffffffffffffffffffffffffffffffffffffff16815260200190815260200160002060008873ffffffffffffffffffffffffffffffffffffffff1673ffffffffffffffffffffffffffffffffffffffff1681526020019081526020016000205461099a9190612d6d565b6111df565b6001905092915050565b6109da7f65d7a28e3265b37a6474929f336521b332c1681b933f6cb9f3376673440d862a6109d56111d7565b610d86565b610a19576040517f08c379a0000000000000000000000000000000000000000000000000000000008152600401610a1090612b70565b60405180910390fd5b610a21611708565b565b610a547f9f2df0fed2c77648de5860a4cc508cd0818c85b8b8a1ab4ceeef8d981c8956a6610a4f6111d7565b610d86565b610a93576040517f08c379a0000000000000000000000000000000000000000000000000000000008152600401610a8a90612af0565b60405180910390fd5b610a9b6108bf565b81610aa4610758565b610aae9190612d6d565b1115610aef576040517f08c379a0000000000000000000000000000000000000000000000000000000008152600401610ae690612c70565b60405180910390fd5b610af982826117aa565b5050565b610b0e610b086111d7565b826118ff565b50565b6000600760009054906101000a900460ff16905090565b6000600260008373ffffffffffffffffffffffffffffffffffffffff1673ffffffffffffffffffffffffffffffffffffffff168152602001908152602001600020549050919050565b6000610b8483610b7f6111d7565b611017565b905081811015610bc9576040517f08c379a0000000000000000000000000000000000000000000000000000000008152600401610bc090612bf0565b60405180910390fd5b610be683610bd56111d7565b8484610be19190612e1d565b6111df565b610bf083836118ff565b505050565b610c267f2865fb6486f1182ff260a98800c07add86e3bf298ef0eac98fcd12371e94abc9610c216111d7565b610d86565b610c65576040517f08c379a0000000000000000000000000000000000000000000000000000000008152600401610c5c90612ab0565b60405180910390fd5b80610c6e610758565b1115610caf576040517f08c379a0000000000000000000000000000000000000000000000000000000008152600401610ca690612b90565b60405180910390fd5b8060088190555050565b7f2865fb6486f1182ff260a98800c07add86e3bf298ef0eac98fcd12371e94abc981565b610d0e7f65d7a28e3265b37a6474929f336521b332c1681b933f6cb9f3376673440d862a610d096111d7565b610d86565b610d4d576040517f08c379a0000000000000000000000000000000000000000000000000000000008152600401610d4490612b30565b60405180910390fd5b610d55611ad5565b565b6000610d7e8260016000868152602001908152602001600020611b7890919063ffffffff16565b905092915050565b600080600084815260200190815260200160002060000160008373ffffffffffffffffffffffffffffffffffffffff1673ffffffffffffffffffffffffffffffffffffffff16815260200190815260200160002060009054906101000a900460ff16905092915050565b606060068054610dff90612f39565b80601f0160208091040260200160405190810160405280929190818152602001828054610e2b90612f39565b8015610e785780601f10610e4d57610100808354040283529160200191610e78565b820191906000526020600020905b815481529060010190602001808311610e5b57829003601f168201915b5050505050905090565b6000801b81565b60008060036000610e986111d7565b73ffffffffffffffffffffffffffffffffffffffff1673ffffffffffffffffffffffffffffffffffffffff16815260200190815260200160002060008573ffffffffffffffffffffffffffffffffffffffff1673ffffffffffffffffffffffffffffffffffffffff16815260200190815260200160002054905082811015610f55576040517f08c379a0000000000000000000000000000000000000000000000000000000008152600401610f4c90612c90565b60405180910390fd5b610f72610f606111d7565b858584610f6d9190612e1d565b6111df565b600191505092915050565b6000610f91610f8a6111d7565b84846113aa565b6001905092915050565b6000610fb860016000848152602001908152602001600020611b92565b9050919050565b7f9f2df0fed2c77648de5860a4cc508cd0818c85b8b8a1ab4ceeef8d981c8956a681565b610fed8282611ba7565b61101281600160008581526020019081526020016000206116d890919063ffffffff16565b505050565b6000600360008473ffffffffffffffffffffffffffffffffffffffff1673ffffffffffffffffffffffffffffffffffffffff16815260200190815260200160002060008373ffffffffffffffffffffffffffffffffffffffff1673ffffffffffffffffffffffffffffffffffffffff16815260200190815260200160002054905092915050565b7f65d7a28e3265b37a6474929f336521b332c1681b933f6cb9f3376673440d862a81565b6110cc8282611bd0565b5050565b60006110f8836000018373ffffffffffffffffffffffffffffffffffffffff1660001b611cb0565b905092915050565b61110b838383611158565b611113610b11565b15611153576040517f08c379a000000000000000000000000000000000000000000000000000000000815260040161114a90612cf0565b60405180910390fd5b505050565b505050565b60007f7965db0b000000000000000000000000000000000000000000000000000000007bffffffffffffffffffffffffffffffffffffffffffffffffffffffff1916827bffffffffffffffffffffffffffffffffffffffffffffffffffffffff191614806111d057506111cf82611d20565b5b9050919050565b600033905090565b600073ffffffffffffffffffffffffffffffffffffffff168373ffffffffffffffffffffffffffffffffffffffff16141561124f576040517f08c379a000000000000000000000000000000000000000000000000000000000815260040161124690612c50565b60405180910390fd5b600073ffffffffffffffffffffffffffffffffffffffff168273ffffffffffffffffffffffffffffffffffffffff1614156112bf576040517f08c379a00000000000000000000000000000000000000000000000000000000081526004016112b690612b10565b60405180910390fd5b80600360008573ffffffffffffffffffffffffffffffffffffffff1673ffffffffffffffffffffffffffffffffffffffff16815260200190815260200160002060008473ffffffffffffffffffffffffffffffffffffffff1673ffffffffffffffffffffffffffffffffffffffff168152602001908152602001600020819055508173ffffffffffffffffffffffffffffffffffffffff168373ffffffffffffffffffffffffffffffffffffffff167f8c5be1e5ebec7d5bd14f71427d1e84f3dd0314c0f7b2291e5b200ac8c7c3b9258360405161139d9190612d10565b60405180910390a3505050565b600073ffffffffffffffffffffffffffffffffffffffff168373ffffffffffffffffffffffffffffffffffffffff16141561141a576040517f08c379a000000000000000000000000000000000000000000000000000000000815260040161141190612c30565b60405180910390fd5b600073ffffffffffffffffffffffffffffffffffffffff168273ffffffffffffffffffffffffffffffffffffffff16141561148a576040517f08c379a000000000000000000000000000000000000000000000000000000000815260040161148190612a70565b60405180910390fd5b611495838383611d8a565b6000600260008573ffffffffffffffffffffffffffffffffffffffff1673ffffffffffffffffffffffffffffffffffffffff1681526020019081526020016000205490508181101561151c576040517f08c379a000000000000000000000000000000000000000000000000000000000815260040161151390612b50565b60405180910390fd5b81816115289190612e1d565b600260008673ffffffffffffffffffffffffffffffffffffffff1673ffffffffffffffffffffffffffffffffffffffff1681526020019081526020016000208190555081600260008573ffffffffffffffffffffffffffffffffffffffff1673ffffffffffffffffffffffffffffffffffffffff16815260200190815260200160002060008282546115ba9190612d6d565b925050819055508273ffffffffffffffffffffffffffffffffffffffff168473ffffffffffffffffffffffffffffffffffffffff167fddf252ad1be2c89b69c2b068fc378daa952ba7f163c4a11628f55a4df523b3ef8460405161161e9190612d10565b60405180910390a350505050565b61163582610863565b611646816116416111d7565b611d9a565b6116508383611bd0565b505050565b61165d6111d7565b73ffffffffffffffffffffffffffffffffffffffff168173ffffffffffffffffffffffffffffffffffffffff16146116ca576040517f08c379a00000000000000000000000000000000000000000000000000000000081526004016116c190612cb0565b60405180910390fd5b6116d48282611e37565b5050565b6000611700836000018373ffffffffffffffffffffffffffffffffffffffff1660001b611f18565b905092915050565b611710610b11565b61174f576040517f08c379a000000000000000000000000000000000000000000000000000000000815260040161174690612a90565b60405180910390fd5b6000600760006101000a81548160ff0219169083151502179055507f5db9ee0a495bf2e6ff9c91a7834c1ba4fdd244a5e8aa4e537bd38aeae4b073aa6117936111d7565b6040516117a091906129bd565b60405180910390a1565b600073ffffffffffffffffffffffffffffffffffffffff168273ffffffffffffffffffffffffffffffffffffffff16141561181a576040517f08c379a000000000000000000000000000000000000000000000000000000000815260040161181190612cd0565b60405180910390fd5b61182660008383611d8a565b80600460008282546118389190612d6d565b9250508190555080600260008473ffffffffffffffffffffffffffffffffffffffff1673ffffffffffffffffffffffffffffffffffffffff168152602001908152602001600020600082825461188e9190612d6d565b925050819055508173ffffffffffffffffffffffffffffffffffffffff16600073ffffffffffffffffffffffffffffffffffffffff167fddf252ad1be2c89b69c2b068fc378daa952ba7f163c4a11628f55a4df523b3ef836040516118f39190612d10565b60405180910390a35050565b600073ffffffffffffffffffffffffffffffffffffffff168273ffffffffffffffffffffffffffffffffffffffff16141561196f576040517f08c379a000000000000000000000000000000000000000000000000000000000815260040161196690612c10565b60405180910390fd5b61197b82600083611d8a565b6000600260008473ffffffffffffffffffffffffffffffffffffffff1673ffffffffffffffffffffffffffffffffffffffff16815260200190815260200160002054905081811015611a02576040517f08c379a00000000000000000000000000000000000000000000000000000000081526004016119f990612ad0565b60405180910390fd5b8181611a0e9190612e1d565b600260008573ffffffffffffffffffffffffffffffffffffffff1673ffffffffffffffffffffffffffffffffffffffff168152602001908152602001600020819055508160046000828254611a639190612e1d565b92505081905550600073ffffffffffffffffffffffffffffffffffffffff168373ffffffffffffffffffffffffffffffffffffffff167fddf252ad1be2c89b69c2b068fc378daa952ba7f163c4a11628f55a4df523b3ef84604051611ac89190612d10565b60405180910390a3505050565b611add610b11565b15611b1d576040517f08c379a0000000000000000000000000000000000000000000000000000000008152600401611b1490612bb0565b60405180910390fd5b6001600760006101000a81548160ff0219169083151502179055507f62e78cea01bee320cd4e420270b5ea74000d11b0c9f74754ebdbfc544b05a258611b616111d7565b604051611b6e91906129bd565b60405180910390a1565b6000611b878360000183612024565b60001c905092915050565b6000611ba082600001612098565b9050919050565b611bb082610863565b611bc181611bbc6111d7565b611d9a565b611bcb8383611e37565b505050565b611bda8282610d86565b611cac57600160008084815260200190815260200160002060000160008373ffffffffffffffffffffffffffffffffffffffff1673ffffffffffffffffffffffffffffffffffffffff16815260200190815260200160002060006101000a81548160ff021916908315150217905550611c516111d7565b73ffffffffffffffffffffffffffffffffffffffff168173ffffffffffffffffffffffffffffffffffffffff16837f2f8788117e7eff1d82e926ec794901d17c78024a50270940304540a733656f0d60405160405180910390a45b5050565b6000611cbc83836120a9565b611d15578260000182908060018154018082558091505060019003906000526020600020016000909190919091505582600001805490508360010160008481526020019081526020016000208190555060019050611d1a565b600090505b92915050565b60007f01ffc9a7000000000000000000000000000000000000000000000000000000007bffffffffffffffffffffffffffffffffffffffffffffffffffffffff1916827bffffffffffffffffffffffffffffffffffffffffffffffffffffffff1916149050919050565b611d95838383611100565b505050565b611da48282610d86565b611e3357611dc98173ffffffffffffffffffffffffffffffffffffffff1660146120cc565b611dd78360001c60206120cc565b604051602001611de8929190612983565b6040516020818303038152906040526040517f08c379a0000000000000000000000000000000000000000000000000000000008152600401611e2a9190612a0e565b60405180910390fd5b5050565b611e418282610d86565b15611f1457600080600084815260200190815260200160002060000160008373ffffffffffffffffffffffffffffffffffffffff1673ffffffffffffffffffffffffffffffffffffffff16815260200190815260200160002060006101000a81548160ff021916908315150217905550611eb96111d7565b73ffffffffffffffffffffffffffffffffffffffff168173ffffffffffffffffffffffffffffffffffffffff16837ff6391f5c32d9c69d2a47ea670b442974b53935d1edc7fd64eb21e047a839171b60405160405180910390a45b5050565b60008083600101600084815260200190815260200160002054905060008114612018576000600182611f4a9190612e1d565b9050600060018660000180549050611f629190612e1d565b90506000866000018281548110611f7c57611f7b612ff8565b5b9060005260206000200154905080876000018481548110611fa057611f9f612ff8565b5b9060005260206000200181905550838760010160008381526020019081526020016000208190555086600001805480611fdc57611fdb612fc9565b5b6001900381819060005260206000200160009055905586600101600087815260200190815260200160002060009055600194505050505061201e565b60009150505b92915050565b60008183600001805490501161206f576040517f08c379a000000000000000000000000000000000000000000000000000000000815260040161206690612a30565b60405180910390fd5b82600001828154811061208557612084612ff8565b5b9060005260206000200154905092915050565b600081600001805490509050919050565b600080836001016000848152602001908152602001600020541415905092915050565b6060600060028360026120df9190612dc3565b6120e99190612d6d565b67ffffffffffffffff81111561210257612101613027565b5b6040519080825280601f01601f1916602001820160405280156121345781602001600182028036833780820191505090505b5090507f30000000000000000000000000000000000000000000000000000000000000008160008151811061216c5761216b612ff8565b5b60200101907effffffffffffffffffffffffffffffffffffffffffffffffffffffffffffff1916908160001a9053507f7800000000000000000000000000000000000000000000000000000000000000816001815181106121d0576121cf612ff8565b5b60200101907effffffffffffffffffffffffffffffffffffffffffffffffffffffffffffff1916908160001a905350600060018460026122109190612dc3565b61221a9190612d6d565b90505b60018111156122ba577f3031323334353637383961626364656600000000000000000000000000000000600f86166010811061225c5761225b612ff8565b5b1a60f81b82828151811061227357612272612ff8565b5b60200101907effffffffffffffffffffffffffffffffffffffffffffffffffffffffffffff1916908160001a905350600485901c9450806122b390612f0f565b905061221d565b50600084146122fe576040517f08c379a00000000000000000000000000000000000000000000000000000000081526004016122f590612a50565b60405180910390fd5b8091505092915050565b60008135905061231781613765565b92915050565b60008135905061232c8161377c565b92915050565b60008135905061234181613793565b92915050565b600081359050612356816137aa565b92915050565b60006020828403121561237257612371613056565b5b600061238084828501612308565b91505092915050565b600080604083850312156123a05761239f613056565b5b60006123ae85828601612308565b92505060206123bf85828601612308565b9150509250929050565b6000806000606084860312156123e2576123e1613056565b5b60006123f086828701612308565b935050602061240186828701612308565b925050604061241286828701612347565b9150509250925092565b6000806040838503121561243357612432613056565b5b600061244185828601612308565b925050602061245285828601612347565b9150509250929050565b60006020828403121561247257612471613056565b5b60006124808482850161231d565b91505092915050565b600080604083850312156124a05761249f613056565b5b60006124ae8582860161231d565b92505060206124bf85828601612308565b9150509250929050565b600080604083850312156124e0576124df613056565b5b60006124ee8582860161231d565b92505060206124ff85828601612347565b9150509250929050565b60006020828403121561251f5761251e613056565b5b600061252d84828501612332565b91505092915050565b60006020828403121561254c5761254b613056565b5b600061255a84828501612347565b91505092915050565b61256c81612e51565b82525050565b61257b81612e63565b82525050565b61258a81612e6f565b82525050565b600061259b82612d46565b6125a58185612d51565b93506125b5818560208601612edc565b6125be8161305b565b840191505092915050565b60006125d482612d46565b6125de8185612d62565b93506125ee818560208601612edc565b80840191505092915050565b6000612607602283612d51565b91506126128261306c565b604082019050919050565b600061262a602083612d51565b9150612635826130bb565b602082019050919050565b600061264d602383612d51565b9150612658826130e4565b604082019050919050565b6000612670601483612d51565b915061267b82613133565b602082019050919050565b6000612693602f83612d51565b915061269e8261315c565b604082019050919050565b60006126b6602283612d51565b91506126c1826131ab565b604082019050919050565b60006126d9602d83612d51565b91506126e4826131fa565b604082019050919050565b60006126fc602283612d51565b915061270782613249565b604082019050919050565b600061271f602f83612d51565b915061272a82613298565b604082019050919050565b6000612742602683612d51565b915061274d826132e7565b604082019050919050565b6000612765603383612d51565b915061277082613336565b604082019050919050565b6000612788603983612d51565b915061279382613385565b604082019050919050565b60006127ab601083612d51565b91506127b6826133d4565b602082019050919050565b60006127ce602883612d51565b91506127d9826133fd565b604082019050919050565b60006127f1602483612d51565b91506127fc8261344c565b604082019050919050565b6000612814602183612d51565b915061281f8261349b565b604082019050919050565b6000612837602583612d51565b9150612842826134ea565b604082019050919050565b600061285a602483612d51565b915061286582613539565b604082019050919050565b600061287d604d83612d51565b915061288882613588565b606082019050919050565b60006128a0601783612d62565b91506128ab826135fd565b601782019050919050565b60006128c3602583612d51565b91506128ce82613626565b604082019050919050565b60006128e6601183612d62565b91506128f182613675565b601182019050919050565b6000612909602f83612d51565b91506129148261369e565b604082019050919050565b600061292c601f83612d51565b9150612937826136ed565b602082019050919050565b600061294f602a83612d51565b915061295a82613716565b604082019050919050565b61296e81612ec5565b82525050565b61297d81612ecf565b82525050565b600061298e82612893565b915061299a82856125c9565b91506129a5826128d9565b91506129b182846125c9565b91508190509392505050565b60006020820190506129d26000830184612563565b92915050565b60006020820190506129ed6000830184612572565b92915050565b6000602082019050612a086000830184612581565b92915050565b60006020820190508181036000830152612a288184612590565b905092915050565b60006020820190508181036000830152612a49816125fa565b9050919050565b60006020820190508181036000830152612a698161261d565b9050919050565b60006020820190508181036000830152612a8981612640565b9050919050565b60006020820190508181036000830152612aa981612663565b9050919050565b60006020820190508181036000830152612ac981612686565b9050919050565b60006020820190508181036000830152612ae9816126a9565b9050919050565b60006020820190508181036000830152612b09816126cc565b9050919050565b60006020820190508181036000830152612b29816126ef565b9050919050565b60006020820190508181036000830152612b4981612712565b9050919050565b60006020820190508181036000830152612b6981612735565b9050919050565b60006020820190508181036000830152612b8981612758565b9050919050565b60006020820190508181036000830152612ba98161277b565b9050919050565b60006020820190508181036000830152612bc98161279e565b9050919050565b60006020820190508181036000830152612be9816127c1565b9050919050565b60006020820190508181036000830152612c09816127e4565b9050919050565b60006020820190508181036000830152612c2981612807565b9050919050565b60006020820190508181036000830152612c498161282a565b9050919050565b60006020820190508181036000830152612c698161284d565b9050919050565b60006020820190508181036000830152612c8981612870565b9050919050565b60006020820190508181036000830152612ca9816128b6565b9050919050565b60006020820190508181036000830152612cc9816128fc565b9050919050565b60006020820190508181036000830152612ce98161291f565b9050919050565b60006020820190508181036000830152612d0981612942565b9050919050565b6000602082019050612d256000830184612965565b92915050565b6000602082019050612d406000830184612974565b92915050565b600081519050919050565b600082825260208201905092915050565b600081905092915050565b6000612d7882612ec5565b9150612d8383612ec5565b9250827fffffffffffffffffffffffffffffffffffffffffffffffffffffffffffffffff03821115612db857612db7612f6b565b5b828201905092915050565b6000612dce82612ec5565b9150612dd983612ec5565b9250817fffffffffffffffffffffffffffffffffffffffffffffffffffffffffffffffff0483118215151615612e1257612e11612f6b565b5b828202905092915050565b6000612e2882612ec5565b9150612e3383612ec5565b925082821015612e4657612e45612f6b565b5b828203905092915050565b6000612e5c82612ea5565b9050919050565b60008115159050919050565b6000819050919050565b60007fffffffff0000000000000000000000000000000000000000000000000000000082169050919050565b600073ffffffffffffffffffffffffffffffffffffffff82169050919050565b6000819050919050565b600060ff82169050919050565b60005b83811015612efa578082015181840152602081019050612edf565b83811115612f09576000848401525b50505050565b6000612f1a82612ec5565b91506000821415612f2e57612f2d612f6b565b5b600182039050919050565b60006002820490506001821680612f5157607f821691505b60208210811415612f6557612f64612f9a565b5b50919050565b7f4e487b7100000000000000000000000000000000000000000000000000000000600052601160045260246000fd5b7f4e487b7100000000000000000000000000000000000000000000000000000000600052602260045260246000fd5b7f4e487b7100000000000000000000000000000000000000000000000000000000600052603160045260246000fd5b7f4e487b7100000000000000000000000000000000000000000000000000000000600052603260045260246000fd5b7f4e487b7100000000000000000000000000000000000000000000000000000000600052604160045260246000fd5b600080fd5b6000601f19601f8301169050919050565b7f456e756d657261626c655365743a20696e646578206f7574206f6620626f756e60008201527f6473000000000000000000000000000000000000000000000000000000000000602082015250565b7f537472696e67733a20686578206c656e67746820696e73756666696369656e74600082015250565b7f45524332303a207472616e7366657220746f20746865207a65726f206164647260008201527f6573730000000000000000000000000000000000000000000000000000000000602082015250565b7f5061757361626c653a206e6f7420706175736564000000000000000000000000600082015250565b7f4572726f72204361703a20596f75206d75737420686176652063617020726f6c60008201527f6520746f206368616e6765206361700000000000000000000000000000000000602082015250565b7f45524332303a206275726e20616d6f756e7420657863656564732062616c616e60008201527f6365000000000000000000000000000000000000000000000000000000000000602082015250565b7f4572726f72204d696e743a20596f75206d7573742068617665206d696e74657260008201527f20726f6c6520746f206d696e7400000000000000000000000000000000000000602082015250565b7f45524332303a20617070726f766520746f20746865207a65726f20616464726560008201527f7373000000000000000000000000000000000000000000000000000000000000602082015250565b7f4572726f722050617573653a20596f75206d757374206861766520706175736560008201527f7220726f6c6520746f2070617573650000000000000000000000000000000000602082015250565b7f45524332303a207472616e7366657220616d6f756e742065786365656473206260008201527f616c616e63650000000000000000000000000000000000000000000000000000602082015250565b7f4572726f7220556e70617573653a20596f75206d75737420686176652070617560008201527f73657220726f6c6520746f20756e706175736500000000000000000000000000602082015250565b7f4572726f72204361703a204e6577206361702063616e74206265206c6573732060008201527f7468616e2063757272656e7420746f74616c20737570706c7900000000000000602082015250565b7f5061757361626c653a2070617573656400000000000000000000000000000000600082015250565b7f45524332303a207472616e7366657220616d6f756e742065786365656473206160008201527f6c6c6f77616e6365000000000000000000000000000000000000000000000000602082015250565b7f45524332303a206275726e20616d6f756e74206578636565647320616c6c6f7760008201527f616e636500000000000000000000000000000000000000000000000000000000602082015250565b7f45524332303a206275726e2066726f6d20746865207a65726f2061646472657360008201527f7300000000000000000000000000000000000000000000000000000000000000602082015250565b7f45524332303a207472616e736665722066726f6d20746865207a65726f20616460008201527f6472657373000000000000000000000000000000000000000000000000000000602082015250565b7f45524332303a20617070726f76652066726f6d20746865207a65726f2061646460008201527f7265737300000000000000000000000000000000000000000000000000000000602082015250565b7f4572726f72204361703a20596f7520686176652072656163686564207468652060008201527f737570706c79206361702e20496e6372656173652063617020746f20636f6e7460208201527f696e7565206d696e74696e672e00000000000000000000000000000000000000604082015250565b7f416363657373436f6e74726f6c3a206163636f756e7420000000000000000000600082015250565b7f45524332303a2064656372656173656420616c6c6f77616e63652062656c6f7760008201527f207a65726f000000000000000000000000000000000000000000000000000000602082015250565b7f206973206d697373696e6720726f6c6520000000000000000000000000000000600082015250565b7f416363657373436f6e74726f6c3a2063616e206f6e6c792072656e6f756e636560008201527f20726f6c657320666f722073656c660000000000000000000000000000000000602082015250565b7f45524332303a206d696e7420746f20746865207a65726f206164647265737300600082015250565b7f45524332305061757361626c653a20746f6b656e207472616e7366657220776860008201527f696c652070617573656400000000000000000000000000000000000000000000602082015250565b61376e81612e51565b811461377957600080fd5b50565b61378581612e6f565b811461379057600080fd5b50565b61379c81612e79565b81146137a757600080fd5b50565b6137b381612ec5565b81146137be57600080fd5b5056fea2646970667358221220e4eea30d31aab54e45ee527d2d39f504ad050e6b942c00fcbf09816f0cbf71b264736f6c63430008060033",
  "immutableReferences": {},
  "source": "// SPDX-License-Identifier: MIT\n\npragma solidity ^0.8.0;\n\nimport \"../../node_modules/@openzeppelin/contracts/token/ERC20/ERC20.sol\";\nimport \"../../node_modules/@openzeppelin/contracts/token/ERC20/extensions/ERC20Burnable.sol\";\nimport \"../../node_modules/@openzeppelin/contracts/token/ERC20/extensions/ERC20Pausable.sol\";\nimport \"../../node_modules/@openzeppelin/contracts/access/AccessControlEnumerable.sol\";\nimport \"../../node_modules/@openzeppelin/contracts/utils/Context.sol\";\n\n/**\n * @dev {ERC20} token, including:\n *\n *  - ability for holders to burn (destroy) their tokens\n *  - a minter role that allows for token minting (creation)\n *  - a pauser role that allows to stop all token transfers\n *\n * This contract uses {AccessControl} to lock permissioned functions using the\n * different roles - head to its documentation for details.\n *\n * The account that deploys the contract will be granted the minter and pauser\n * roles, as well as the default admin role, which will let it grant both minter\n * and pauser roles to other accounts.\n */\ncontract YouWho is\n    Context,\n    AccessControlEnumerable,\n    ERC20Burnable,\n    ERC20Pausable {\n\n    bytes32 public constant MINTER_ROLE = keccak256(\"MINTER_ROLE\");\n    bytes32 public constant PAUSER_ROLE = keccak256(\"PAUSER_ROLE\");\n    bytes32 public constant CAP_ROLE = keccak256(\"CAP_ROLE\");\n    uint256 private _cap;\n\n    /**\n     * @dev Grants `DEFAULT_ADMIN_ROLE`, `MINTER_ROLE` and `PAUSER_ROLE` to the\n     * account that deploys the contract.\n     *\n     * See {ERC20-constructor}.\n     */\n    // constructor(string memory name, string memory symbol, uint256 cap_, address _1 ) ERC20(name, symbol) {\n    constructor(address _1, address _2, address _3, address _4, address _5) ERC20(\"YouWho\", \"UHU\") {\n        _cap = 133700009 * (10**uint256(decimals()));\n        _mint(_1, _cap * 15 / 100 );\n        _mint(_2, _cap * 11 / 100 );\n        _mint(_3, _cap * 11 / 100 );\n        _mint(_4, _cap * 11 / 100 );\n        _mint(_5, _cap * 11 / 100 );\n        _setupRole(DEFAULT_ADMIN_ROLE, _1);\n        _setupRole(MINTER_ROLE, _1);\n        _setupRole(PAUSER_ROLE, _1);\n        _setupRole(CAP_ROLE, _1);\n        // require(cap_ > 0, \"ERC20Capped: cap is 0\");\n        // _cap = cap_;\n    }\n\n    function cap() public view virtual returns (uint256) {\n        return _cap;\n    }\n\n    function changeCap(uint256 newCap) external {\n        require(hasRole(CAP_ROLE, _msgSender()),\"Error Cap: You must have cap role to change cap\");\n        require(ERC20.totalSupply() <= newCap,\"Error Cap: New cap cant be less than current total supply\");        \n        _cap = newCap;\n    }\n\n    /**\n     * @dev Creates `amount` new tokens for `to`.\n     *\n     * See {ERC20-_mint}.\n     *\n     * Requirements:\n     *\n     * - the caller must have the `MINTER_ROLE`.\n     */\n    function mint(address to, uint256 amount) public virtual {\n        require(hasRole(MINTER_ROLE, _msgSender()),\"Error Mint: You must have minter role to mint\");\n        require(ERC20.totalSupply() + amount <= cap(),\"Error Cap: You have reached the supply cap. Increase cap to continue minting.\");\n        _mint(to, amount);\n    }\n\n    /**\n     * @dev Pauses all token transfers.\n     *\n     * See {ERC20Pausable} and {Pausable-_pause}.\n     *\n     * Requirements:\n     *\n     * - the caller must have the `PAUSER_ROLE`.\n     */\n    function pause() public virtual {\n        require(hasRole(PAUSER_ROLE, _msgSender()),\"Error Pause: You must have pauser role to pause\");\n        _pause();\n    }\n\n    /**\n     * @dev Unpauses all token transfers.\n     *\n     * See {ERC20Pausable} and {Pausable-_unpause}.\n     *\n     * Requirements:\n     *\n     * - the caller must have the `PAUSER_ROLE`.\n     */\n    function unpause() public virtual {\n        require(hasRole(PAUSER_ROLE, _msgSender()),\"Error Unpause: You must have pauser role to unpause\");\n        _unpause();\n    }\n\n    function _beforeTokenTransfer(address from,address to,uint256 amount) internal virtual override(ERC20, ERC20Pausable) {\n        super._beforeTokenTransfer(from, to, amount);\n    }\n}\n",
  "sourcePath": "/home/phyx1u5/Moralis/yh2/youwho/src/contracts/YouWho.sol",
  "compiler": {
    "name": "solc",
    "version": "0.8.6+commit.11564f7e.Emscripten.clang"
  },
  "schemaVersion": "3.3.4",
  "updatedAt": "2021-06-23T09:27:51.264Z",
  "networkType": "ethereum",
  "devdoc": {
    "details": "{ERC20} token, including:  - ability for holders to burn (destroy) their tokens  - a minter role that allows for token minting (creation)  - a pauser role that allows to stop all token transfers This contract uses {AccessControl} to lock permissioned functions using the different roles - head to its documentation for details. The account that deploys the contract will be granted the minter and pauser roles, as well as the default admin role, which will let it grant both minter and pauser roles to other accounts.",
    "kind": "dev",
    "methods": {
      "allowance(address,address)": {
        "details": "See {IERC20-allowance}."
      },
      "approve(address,uint256)": {
        "details": "See {IERC20-approve}. Requirements: - `spender` cannot be the zero address."
      },
      "balanceOf(address)": {
        "details": "See {IERC20-balanceOf}."
      },
      "burn(uint256)": {
        "details": "Destroys `amount` tokens from the caller. See {ERC20-_burn}."
      },
      "burnFrom(address,uint256)": {
        "details": "Destroys `amount` tokens from `account`, deducting from the caller's allowance. See {ERC20-_burn} and {ERC20-allowance}. Requirements: - the caller must have allowance for ``accounts``'s tokens of at least `amount`."
      },
      "constructor": {
        "details": "Grants `DEFAULT_ADMIN_ROLE`, `MINTER_ROLE` and `PAUSER_ROLE` to the account that deploys the contract. See {ERC20-constructor}."
      },
      "decimals()": {
        "details": "Returns the number of decimals used to get its user representation. For example, if `decimals` equals `2`, a balance of `505` tokens should be displayed to a user as `5,05` (`505 / 10 ** 2`). Tokens usually opt for a value of 18, imitating the relationship between Ether and Wei. This is the value {ERC20} uses, unless this function is overridden; NOTE: This information is only used for _display_ purposes: it in no way affects any of the arithmetic of the contract, including {IERC20-balanceOf} and {IERC20-transfer}."
      },
      "decreaseAllowance(address,uint256)": {
        "details": "Atomically decreases the allowance granted to `spender` by the caller. This is an alternative to {approve} that can be used as a mitigation for problems described in {IERC20-approve}. Emits an {Approval} event indicating the updated allowance. Requirements: - `spender` cannot be the zero address. - `spender` must have allowance for the caller of at least `subtractedValue`."
      },
      "getRoleAdmin(bytes32)": {
        "details": "Returns the admin role that controls `role`. See {grantRole} and {revokeRole}. To change a role's admin, use {_setRoleAdmin}."
      },
      "getRoleMember(bytes32,uint256)": {
        "details": "Returns one of the accounts that have `role`. `index` must be a value between 0 and {getRoleMemberCount}, non-inclusive. Role bearers are not sorted in any particular way, and their ordering may change at any point. WARNING: When using {getRoleMember} and {getRoleMemberCount}, make sure you perform all queries on the same block. See the following https://forum.openzeppelin.com/t/iterating-over-elements-on-enumerableset-in-openzeppelin-contracts/2296[forum post] for more information."
      },
      "getRoleMemberCount(bytes32)": {
        "details": "Returns the number of accounts that have `role`. Can be used together with {getRoleMember} to enumerate all bearers of a role."
      },
      "grantRole(bytes32,address)": {
        "details": "Overload {grantRole} to track enumerable memberships"
      },
      "hasRole(bytes32,address)": {
        "details": "Returns `true` if `account` has been granted `role`."
      },
      "increaseAllowance(address,uint256)": {
        "details": "Atomically increases the allowance granted to `spender` by the caller. This is an alternative to {approve} that can be used as a mitigation for problems described in {IERC20-approve}. Emits an {Approval} event indicating the updated allowance. Requirements: - `spender` cannot be the zero address."
      },
      "mint(address,uint256)": {
        "details": "Creates `amount` new tokens for `to`. See {ERC20-_mint}. Requirements: - the caller must have the `MINTER_ROLE`."
      },
      "name()": {
        "details": "Returns the name of the token."
      },
      "pause()": {
        "details": "Pauses all token transfers. See {ERC20Pausable} and {Pausable-_pause}. Requirements: - the caller must have the `PAUSER_ROLE`."
      },
      "paused()": {
        "details": "Returns true if the contract is paused, and false otherwise."
      },
      "renounceRole(bytes32,address)": {
        "details": "Overload {renounceRole} to track enumerable memberships"
      },
      "revokeRole(bytes32,address)": {
        "details": "Overload {revokeRole} to track enumerable memberships"
      },
      "supportsInterface(bytes4)": {
        "details": "See {IERC165-supportsInterface}."
      },
      "symbol()": {
        "details": "Returns the symbol of the token, usually a shorter version of the name."
      },
      "totalSupply()": {
        "details": "See {IERC20-totalSupply}."
      },
      "transfer(address,uint256)": {
        "details": "See {IERC20-transfer}. Requirements: - `recipient` cannot be the zero address. - the caller must have a balance of at least `amount`."
      },
      "transferFrom(address,address,uint256)": {
        "details": "See {IERC20-transferFrom}. Emits an {Approval} event indicating the updated allowance. This is not required by the EIP. See the note at the beginning of {ERC20}. Requirements: - `sender` and `recipient` cannot be the zero address. - `sender` must have a balance of at least `amount`. - the caller must have allowance for ``sender``'s tokens of at least `amount`."
      },
      "unpause()": {
        "details": "Unpauses all token transfers. See {ERC20Pausable} and {Pausable-_unpause}. Requirements: - the caller must have the `PAUSER_ROLE`."
      }
    },
    "version": 1
  },
  "userdoc": {
    "kind": "user",
    "methods": {},
    "version": 1
  }
}